{
  "contractName": "ShibaWars",
  "abi": [
    {
      "inputs": [],
      "stateMutability": "nonpayable",
      "type": "constructor"
    },
    {
      "anonymous": false,
      "inputs": [
        {
          "indexed": true,
          "internalType": "address",
          "name": "owner",
          "type": "address"
        },
        {
          "indexed": true,
          "internalType": "address",
          "name": "approved",
          "type": "address"
        },
        {
          "indexed": true,
          "internalType": "uint256",
          "name": "tokenId",
          "type": "uint256"
        }
      ],
      "name": "Approval",
      "type": "event"
    },
    {
      "anonymous": false,
      "inputs": [
        {
          "indexed": true,
          "internalType": "address",
          "name": "owner",
          "type": "address"
        },
        {
          "indexed": true,
          "internalType": "address",
          "name": "operator",
          "type": "address"
        },
        {
          "indexed": false,
          "internalType": "bool",
          "name": "approved",
          "type": "bool"
        }
      ],
      "name": "ApprovalForAll",
      "type": "event"
    },
    {
      "anonymous": false,
      "inputs": [
        {
          "indexed": true,
          "internalType": "address",
          "name": "previousOwner",
          "type": "address"
        },
        {
          "indexed": true,
          "internalType": "address",
          "name": "newOwner",
          "type": "address"
        }
      ],
      "name": "OwnershipTransferred",
      "type": "event"
    },
    {
      "anonymous": false,
      "inputs": [
        {
          "indexed": true,
          "internalType": "address",
          "name": "from",
          "type": "address"
        },
        {
          "indexed": true,
          "internalType": "address",
          "name": "to",
          "type": "address"
        },
        {
          "indexed": true,
          "internalType": "uint256",
          "name": "tokenId",
          "type": "uint256"
        }
      ],
      "name": "Transfer",
      "type": "event"
    },
    {
      "inputs": [
        {
          "internalType": "address",
          "name": "to",
          "type": "address"
        },
        {
          "internalType": "uint256",
          "name": "tokenId",
          "type": "uint256"
        }
      ],
      "name": "approve",
      "outputs": [],
      "stateMutability": "nonpayable",
      "type": "function"
    },
    {
      "inputs": [
        {
          "internalType": "address",
          "name": "owner",
          "type": "address"
        }
      ],
      "name": "balanceOf",
      "outputs": [
        {
          "internalType": "uint256",
          "name": "",
          "type": "uint256"
        }
      ],
      "stateMutability": "view",
      "type": "function",
      "constant": true
    },
    {
      "inputs": [
        {
          "internalType": "uint256",
          "name": "tokenId",
          "type": "uint256"
        }
      ],
      "name": "burn",
      "outputs": [],
      "stateMutability": "nonpayable",
      "type": "function"
    },
    {
      "inputs": [
        {
          "internalType": "uint256",
          "name": "tokenId",
          "type": "uint256"
        }
      ],
      "name": "getApproved",
      "outputs": [
        {
          "internalType": "address",
          "name": "",
          "type": "address"
        }
      ],
      "stateMutability": "view",
      "type": "function",
      "constant": true
    },
    {
      "inputs": [
        {
          "internalType": "address",
          "name": "owner",
          "type": "address"
        },
        {
          "internalType": "address",
          "name": "operator",
          "type": "address"
        }
      ],
      "name": "isApprovedForAll",
      "outputs": [
        {
          "internalType": "bool",
          "name": "",
          "type": "bool"
        }
      ],
      "stateMutability": "view",
      "type": "function",
      "constant": true
    },
    {
      "inputs": [],
      "name": "name",
      "outputs": [
        {
          "internalType": "string",
          "name": "",
          "type": "string"
        }
      ],
      "stateMutability": "view",
      "type": "function",
      "constant": true
    },
    {
      "inputs": [],
      "name": "owner",
      "outputs": [
        {
          "internalType": "address",
          "name": "",
          "type": "address"
        }
      ],
      "stateMutability": "view",
      "type": "function",
      "constant": true
    },
    {
      "inputs": [
        {
          "internalType": "uint256",
          "name": "tokenId",
          "type": "uint256"
        }
      ],
      "name": "ownerOf",
      "outputs": [
        {
          "internalType": "address",
          "name": "",
          "type": "address"
        }
      ],
      "stateMutability": "view",
      "type": "function",
      "constant": true
    },
    {
      "inputs": [],
      "name": "renounceOwnership",
      "outputs": [],
      "stateMutability": "nonpayable",
      "type": "function"
    },
    {
      "inputs": [
        {
          "internalType": "address",
          "name": "from",
          "type": "address"
        },
        {
          "internalType": "address",
          "name": "to",
          "type": "address"
        },
        {
          "internalType": "uint256",
          "name": "tokenId",
          "type": "uint256"
        }
      ],
      "name": "safeTransferFrom",
      "outputs": [],
      "stateMutability": "nonpayable",
      "type": "function"
    },
    {
      "inputs": [
        {
          "internalType": "address",
          "name": "from",
          "type": "address"
        },
        {
          "internalType": "address",
          "name": "to",
          "type": "address"
        },
        {
          "internalType": "uint256",
          "name": "tokenId",
          "type": "uint256"
        },
        {
          "internalType": "bytes",
          "name": "_data",
          "type": "bytes"
        }
      ],
      "name": "safeTransferFrom",
      "outputs": [],
      "stateMutability": "nonpayable",
      "type": "function"
    },
    {
      "inputs": [
        {
          "internalType": "address",
          "name": "operator",
          "type": "address"
        },
        {
          "internalType": "bool",
          "name": "approved",
          "type": "bool"
        }
      ],
      "name": "setApprovalForAll",
      "outputs": [],
      "stateMutability": "nonpayable",
      "type": "function"
    },
    {
      "inputs": [
        {
          "internalType": "bytes4",
          "name": "interfaceId",
          "type": "bytes4"
        }
      ],
      "name": "supportsInterface",
      "outputs": [
        {
          "internalType": "bool",
          "name": "",
          "type": "bool"
        }
      ],
      "stateMutability": "view",
      "type": "function",
      "constant": true
    },
    {
      "inputs": [],
      "name": "symbol",
      "outputs": [
        {
          "internalType": "string",
          "name": "",
          "type": "string"
        }
      ],
      "stateMutability": "view",
      "type": "function",
      "constant": true
    },
    {
      "inputs": [
        {
          "internalType": "uint256",
          "name": "tokenId",
          "type": "uint256"
        }
      ],
      "name": "tokenURI",
      "outputs": [
        {
          "internalType": "string",
          "name": "",
          "type": "string"
        }
      ],
      "stateMutability": "view",
      "type": "function",
      "constant": true
    },
    {
      "inputs": [
        {
          "internalType": "address",
          "name": "from",
          "type": "address"
        },
        {
          "internalType": "address",
          "name": "to",
          "type": "address"
        },
        {
          "internalType": "uint256",
          "name": "tokenId",
          "type": "uint256"
        }
      ],
      "name": "transferFrom",
      "outputs": [],
      "stateMutability": "nonpayable",
      "type": "function"
    },
    {
      "inputs": [
        {
          "internalType": "address",
          "name": "newOwner",
          "type": "address"
        }
      ],
      "name": "transferOwnership",
      "outputs": [],
      "stateMutability": "nonpayable",
      "type": "function"
    },
    {
      "inputs": [],
      "name": "initialMint",
      "outputs": [],
      "stateMutability": "nonpayable",
      "type": "function"
    },
    {
      "inputs": [
        {
          "internalType": "uint256",
          "name": "tokenId",
          "type": "uint256"
        }
      ],
      "name": "canFight",
      "outputs": [
        {
          "internalType": "bool",
          "name": "",
          "type": "bool"
        }
      ],
      "stateMutability": "view",
      "type": "function",
      "constant": true
    },
    {
      "inputs": [
        {
          "internalType": "address",
          "name": "user",
          "type": "address"
        }
      ],
      "name": "getUserTokens",
      "outputs": [
        {
          "internalType": "uint256[]",
          "name": "",
          "type": "uint256[]"
        }
      ],
      "stateMutability": "view",
      "type": "function",
      "constant": true
    },
    {
      "inputs": [
        {
          "internalType": "address",
          "name": "user",
          "type": "address"
        }
      ],
      "name": "userPowerTreatTokens",
      "outputs": [
        {
          "internalType": "uint256",
          "name": "",
          "type": "uint256"
        }
      ],
      "stateMutability": "view",
      "type": "function",
      "constant": true
    },
    {
      "inputs": [
        {
          "internalType": "address",
          "name": "user",
          "type": "address"
        }
      ],
      "name": "userShibBalance",
      "outputs": [
        {
          "internalType": "uint256",
          "name": "",
          "type": "uint256"
        }
      ],
      "stateMutability": "view",
      "type": "function",
      "constant": true
    },
    {
      "inputs": [
        {
          "internalType": "uint256",
          "name": "tokenId",
          "type": "uint256"
        }
      ],
      "name": "buyShiba",
      "outputs": [],
      "stateMutability": "nonpayable",
      "type": "function"
    },
    {
      "inputs": [
        {
          "internalType": "uint256",
          "name": "id",
          "type": "uint256"
        }
      ],
      "name": "levelUp",
      "outputs": [],
      "stateMutability": "nonpayable",
      "type": "function"
    },
    {
      "inputs": [
        {
          "internalType": "uint256",
          "name": "id",
          "type": "uint256"
        }
      ],
      "name": "openPack",
      "outputs": [],
      "stateMutability": "nonpayable",
      "type": "function"
    },
    {
      "inputs": [
        {
          "internalType": "uint256",
          "name": "id",
          "type": "uint256"
        }
      ],
      "name": "levelUpCost",
      "outputs": [
        {
          "internalType": "uint256",
          "name": "",
          "type": "uint256"
        }
      ],
      "stateMutability": "view",
      "type": "function",
      "constant": true
    },
    {
      "inputs": [
        {
          "internalType": "uint256",
          "name": "id",
          "type": "uint256"
        }
      ],
      "name": "getTokenDetails",
      "outputs": [
        {
          "components": [
            {
              "internalType": "uint256",
              "name": "strength",
              "type": "uint256"
            },
            {
              "internalType": "uint256",
              "name": "agility",
              "type": "uint256"
            },
            {
              "internalType": "uint256",
              "name": "dexterity",
              "type": "uint256"
            },
            {
              "internalType": "uint256",
              "name": "strengthGain",
              "type": "uint256"
            },
            {
              "internalType": "uint256",
              "name": "agilityGain",
              "type": "uint256"
            },
            {
              "internalType": "uint256",
              "name": "dexterityGain",
              "type": "uint256"
            },
            {
              "internalType": "uint256",
              "name": "level",
              "type": "uint256"
            },
            {
              "internalType": "uint256",
              "name": "arenaScore",
              "type": "uint256"
            },
            {
              "internalType": "uint256",
              "name": "tokenId",
              "type": "uint256"
            },
            {
              "internalType": "string",
              "name": "name",
              "type": "string"
            },
            {
              "internalType": "string",
              "name": "description",
              "type": "string"
            }
          ],
          "internalType": "struct ShibaWars.Shiba",
          "name": "",
          "type": "tuple"
        }
      ],
      "stateMutability": "view",
      "type": "function",
      "constant": true
    }
  ],
  "bytecode": "0x608060405260006007553480156200001657600080fd5b506040518060400160405280600981526020017f53686962615761727300000000000000000000000000000000000000000000008152506040518060400160405280600581526020017f534849425700000000000000000000000000000000000000000000000000000081525081600090805190602001906200009b92919062000176565b508060019080519060200190620000b492919062000176565b5050506000620000c96200016e60201b60201c565b905080600660006101000a81548173ffffffffffffffffffffffffffffffffffffffff021916908373ffffffffffffffffffffffffffffffffffffffff1602179055508073ffffffffffffffffffffffffffffffffffffffff16600073ffffffffffffffffffffffffffffffffffffffff167f8be0079c531659141344cd1fd0a4f28419497f9722a3daafe3b4186f6b6457e060405160405180910390a3506200028b565b600033905090565b828054620001849062000226565b90600052602060002090601f016020900481019282620001a85760008555620001f4565b82601f10620001c357805160ff1916838001178555620001f4565b82800160010185558215620001f4579182015b82811115620001f3578251825591602001919060010190620001d6565b5b50905062000203919062000207565b5090565b5b808211156200022257600081600090555060010162000208565b5090565b600060028204905060018216806200023f57607f821691505b602082108114156200025657620002556200025c565b5b50919050565b7f4e487b7100000000000000000000000000000000000000000000000000000000600052602260045260246000fd5b6158be806200029b6000396000f3fe608060405234801561001057600080fd5b50600436106101a95760003560e01c806370a08231116100f9578063a22fb0b511610097578063c62d254411610071578063c62d2544146104c8578063c87b56dd146104f8578063e985e9c514610528578063f2fde38b14610558576101a9565b8063a22fb0b51461044c578063b88d4fde1461047c578063c1e0372814610498576101a9565b806392731858116100d357806392731858146103ec57806395d89b41146104085780639fc5ce2a14610426578063a22cb46514610430576101a9565b806370a0823114610394578063715018a6146103c45780638da5cb5b146103ce576101a9565b806323b872dd1161016657806342966c681161014057806342966c68146102fc57806350a88c7e14610318578063519dc8d2146103345780636352211e14610364576101a9565b806323b872dd146102945780633c57c075146102b057806342842e0e146102e0576101a9565b806301ffc9a7146101ae57806306fdde03146101de578063081812fc146101fc578063095ea7b31461022c5780630ce90ec214610248578063233573b414610264575b600080fd5b6101c860048036038101906101c39190613e95565b610574565b6040516101d59190614c48565b60405180910390f35b6101e6610656565b6040516101f39190614c63565b60405180910390f35b61021660048036038101906102119190613ee7565b6106e8565b6040516102239190614b36565b60405180910390f35b61024660048036038101906102419190613e30565b61076d565b005b610262600480360381019061025d9190613ee7565b610885565b005b61027e60048036038101906102799190613ee7565b610b7f565b60405161028b9190614c48565b60405180910390f35b6102ae60048036038101906102a99190613d2a565b610bbc565b005b6102ca60048036038101906102c59190613ee7565b610c1c565b6040516102d79190614fc7565b60405180910390f35b6102fa60048036038101906102f59190613d2a565b610c3c565b005b61031660048036038101906103119190613ee7565b610c5c565b005b610332600480360381019061032d9190613ee7565b610cb8565b005b61034e60048036038101906103499190613cc5565b610e90565b60405161035b9190614c26565b60405180910390f35b61037e60048036038101906103799190613ee7565b61105f565b60405161038b9190614b36565b60405180910390f35b6103ae60048036038101906103a99190613cc5565b611111565b6040516103bb9190614fc7565b60405180910390f35b6103cc6111c9565b005b6103d6611306565b6040516103e39190614b36565b60405180910390f35b61040660048036038101906104019190613ee7565b611330565b005b61041061179f565b60405161041d9190614c63565b60405180910390f35b61042e611831565b005b61044a60048036038101906104459190613df4565b611a00565b005b61046660048036038101906104619190613cc5565b611b81565b6040516104739190614fc7565b60405180910390f35b61049660048036038101906104919190613d79565b611c27565b005b6104b260048036038101906104ad9190613ee7565b611c89565b6040516104bf9190614fa5565b60405180910390f35b6104e260048036038101906104dd9190613cc5565b611e35565b6040516104ef9190614fc7565b60405180910390f35b610512600480360381019061050d9190613ee7565b611ee0565b60405161051f9190614c63565b60405180910390f35b610542600480360381019061053d9190613cee565b611f87565b60405161054f9190614c48565b60405180910390f35b610572600480360381019061056d9190613cc5565b61201b565b005b60007f80ac58cd000000000000000000000000000000000000000000000000000000007bffffffffffffffffffffffffffffffffffffffffffffffffffffffff1916827bffffffffffffffffffffffffffffffffffffffffffffffffffffffff1916148061063f57507f5b5e139f000000000000000000000000000000000000000000000000000000007bffffffffffffffffffffffffffffffffffffffffffffffffffffffff1916827bffffffffffffffffffffffffffffffffffffffffffffffffffffffff1916145b8061064f575061064e826121c7565b5b9050919050565b6060600080546106659061529b565b80601f01602080910402602001604051908101604052809291908181526020018280546106919061529b565b80156106de5780601f106106b3576101008083540402835291602001916106de565b820191906000526020600020905b8154815290600101906020018083116106c157829003601f168201915b5050505050905090565b60006106f382612231565b610732576040517f08c379a000000000000000000000000000000000000000000000000000000000815260040161072990614e85565b60405180910390fd5b6004600083815260200190815260200160002060009054906101000a900473ffffffffffffffffffffffffffffffffffffffff169050919050565b60006107788261105f565b90508073ffffffffffffffffffffffffffffffffffffffff168373ffffffffffffffffffffffffffffffffffffffff1614156107e9576040517f08c379a00000000000000000000000000000000000000000000000000000000081526004016107e090614f25565b60405180910390fd5b8073ffffffffffffffffffffffffffffffffffffffff1661080861229d565b73ffffffffffffffffffffffffffffffffffffffff16148061083757506108368161083161229d565b611f87565b5b610876576040517f08c379a000000000000000000000000000000000000000000000000000000000815260040161086d90614da5565b60405180910390fd5b61088083836122a5565b505050565b3373ffffffffffffffffffffffffffffffffffffffff166108a58261105f565b73ffffffffffffffffffffffffffffffffffffffff16146108fb576040517f08c379a00000000000000000000000000000000000000000000000000000000081526004016108f290614f85565b60405180910390fd5b61090481610c1c565b61090d33611e35565b101561094e576040517f08c379a000000000000000000000000000000000000000000000000000000000815260040161094590614e45565b60405180910390fd5b6000805b600754811015610a875761096581612231565b80156109a457503373ffffffffffffffffffffffffffffffffffffffff1661098c8261105f565b73ffffffffffffffffffffffffffffffffffffffff16145b80156109c6575060116008600083815260200190815260200160002060080154145b15610a615781806109d6906152cd565b9250506109e281610c5c565b6008600082815260200190815260200160002060008082016000905560018201600090556002820160009055600382016000905560048201600090556005820160009055600682016000905560078201600090556008820160009055600982016000610a4e9190613a8d565b600a82016000610a5e9190613a8d565b50505b610a6a83610c1c565b821415610a7657610a87565b80610a80906152cd565b9050610952565b506008600083815260200190815260200160002060060160008154610aab906152cd565b919050819055506008600083815260200190815260200160002060030154600860008481526020019081526020016000206000016000828254610aee91906150d0565b925050819055506008600083815260200190815260200160002060040154600860008481526020019081526020016000206001016000828254610b3191906150d0565b925050819055506008600083815260200190815260200160002060050154600860008481526020019081526020016000206002016000828254610b7491906150d0565b925050819055505050565b60008060086000848152602001908152602001600020600801549050600181118015610bb457506000610bb18261235e565b14155b915050919050565b610bcd610bc761229d565b826124a8565b610c0c576040517f08c379a0000000000000000000000000000000000000000000000000000000008152600401610c0390614f45565b60405180910390fd5b610c17838383612586565b505050565b600060086000838152602001908152602001600020600601549050919050565b610c5783838360405180602001604052806000815250611c27565b505050565b610c6d610c6761229d565b826124a8565b610cac576040517f08c379a0000000000000000000000000000000000000000000000000000000008152600401610ca390614f65565b60405180910390fd5b610cb5816127e2565b50565b3373ffffffffffffffffffffffffffffffffffffffff16610cd88261105f565b73ffffffffffffffffffffffffffffffffffffffff1614610d2e576040517f08c379a0000000000000000000000000000000000000000000000000000000008152600401610d2590614f85565b60405180910390fd5b6008600082815260200190815260200160002060008082016000905560018201600090556002820160009055600382016000905560048201600090556005820160009055600682016000905560078201600090556008820160009055600982016000610d9a9190613a8d565b600a82016000610daa9190613a8d565b5050610db581610c5c565b6000620186a04442604051602001610dce929190614b0a565b6040516020818303038152906040528051906020012060001c610df19190615320565b905060006001821015610e075760029050610e82565b600b821015610e1957600e9050610e81565b606f821015610e2b57600f9050610e80565b610457821015610e3e5760109050610e7f565b612710821015610e515760099050610e7e565b6161a8821015610e6457600a9050610e7d565b61c350821015610e7757600b9050610e7c565b600c90505b5b5b5b5b5b5b610e8b816128f3565b505050565b60606000610e9d83611111565b90506000811415610f2057600067ffffffffffffffff811115610ee9577f4e487b7100000000000000000000000000000000000000000000000000000000600052604160045260246000fd5b604051908082528060200260200182016040528015610f175781602001602082028036833780820191505090505b5091505061105a565b60008167ffffffffffffffff811115610f62577f4e487b7100000000000000000000000000000000000000000000000000000000600052604160045260246000fd5b604051908082528060200260200182016040528015610f905781602001602082028036833780820191505090505b5090506000805b60075481101561105257610faa81612231565b8015610fe957508573ffffffffffffffffffffffffffffffffffffffff16610fd18261105f565b73ffffffffffffffffffffffffffffffffffffffff16145b156110415780838380610ffb906152cd565b945081518110611034577f4e487b7100000000000000000000000000000000000000000000000000000000600052603260045260246000fd5b6020026020010181815250505b8061104b906152cd565b9050610f97565b508193505050505b919050565b6000806002600084815260200190815260200160002060009054906101000a900473ffffffffffffffffffffffffffffffffffffffff169050600073ffffffffffffffffffffffffffffffffffffffff168173ffffffffffffffffffffffffffffffffffffffff161415611108576040517f08c379a00000000000000000000000000000000000000000000000000000000081526004016110ff90614e05565b60405180910390fd5b80915050919050565b60008073ffffffffffffffffffffffffffffffffffffffff168273ffffffffffffffffffffffffffffffffffffffff161415611182576040517f08c379a000000000000000000000000000000000000000000000000000000000815260040161117990614dc5565b60405180910390fd5b600360008373ffffffffffffffffffffffffffffffffffffffff1673ffffffffffffffffffffffffffffffffffffffff168152602001908152602001600020549050919050565b6111d161229d565b73ffffffffffffffffffffffffffffffffffffffff166111ef611306565b73ffffffffffffffffffffffffffffffffffffffff1614611245576040517f08c379a000000000000000000000000000000000000000000000000000000000815260040161123c90614ea5565b60405180910390fd5b600073ffffffffffffffffffffffffffffffffffffffff16600660009054906101000a900473ffffffffffffffffffffffffffffffffffffffff1673ffffffffffffffffffffffffffffffffffffffff167f8be0079c531659141344cd1fd0a4f28419497f9722a3daafe3b4186f6b6457e060405160405180910390a36000600660006101000a81548173ffffffffffffffffffffffffffffffffffffffff021916908373ffffffffffffffffffffffffffffffffffffffff160217905550565b6000600660009054906101000a900473ffffffffffffffffffffffffffffffffffffffff16905090565b600061133b82612a51565b905060008111611380576040517f08c379a000000000000000000000000000000000000000000000000000000000815260040161137790614d05565b60405180910390fd5b8061138a33611b81565b10156113cb576040517f08c379a00000000000000000000000000000000000000000000000000000000081526004016113c290614d25565b60405180910390fd5b80736258d3497b01a273620ed138d4f214661a283eb473ffffffffffffffffffffffffffffffffffffffff1663dd62ed3e33306040518363ffffffff1660e01b815260040161141b929190614b51565b60206040518083038186803b15801561143357600080fd5b505afa158015611447573d6000803e3d6000fd5b505050506040513d601f19601f8201168201806040525081019061146b9190613f10565b10156114ac576040517f08c379a00000000000000000000000000000000000000000000000000000000081526004016114a390614c85565b60405180910390fd5b736258d3497b01a273620ed138d4f214661a283eb473ffffffffffffffffffffffffffffffffffffffff166323b872dd3330846040518463ffffffff1660e01b81526004016114fd93929190614b7a565b602060405180830381600087803b15801561151757600080fd5b505af115801561152b573d6000803e3d6000fd5b505050506040513d601f19601f8201168201806040525081019061154f9190613e6c565b61158e576040517f08c379a000000000000000000000000000000000000000000000000000000000815260040161158590614e25565b60405180910390fd5b736258d3497b01a273620ed138d4f214661a283eb473ffffffffffffffffffffffffffffffffffffffff166323b872dd3073c254ae8e61778c9d4f398984ca73b66cc6779ede6004856115e19190615126565b6040518463ffffffff1660e01b81526004016115ff93929190614b7a565b602060405180830381600087803b15801561161957600080fd5b505af115801561162d573d6000803e3d6000fd5b505050506040513d601f19601f820116820180604052508101906116519190613e6c565b611690576040517f08c379a000000000000000000000000000000000000000000000000000000000815260040161168790614f05565b60405180910390fd5b736258d3497b01a273620ed138d4f214661a283eb473ffffffffffffffffffffffffffffffffffffffff166323b872dd3073967d2413a435fac414e20c2ca3719e97b43485bb6004856116e39190615126565b6040518463ffffffff1660e01b815260040161170193929190614b7a565b602060405180830381600087803b15801561171b57600080fd5b505af115801561172f573d6000803e3d6000fd5b505050506040513d601f19601f820116820180604052508101906117539190613e6c565b611792576040517f08c379a000000000000000000000000000000000000000000000000000000000815260040161178990614de5565b60405180910390fd5b61179b826128f3565b5050565b6060600180546117ae9061529b565b80601f01602080910402602001604051908101604052809291908181526020018280546117da9061529b565b80156118275780601f106117fc57610100808354040283529160200191611827565b820191906000526020600020905b81548152906001019060200180831161180a57829003601f168201915b5050505050905090565b61183961229d565b73ffffffffffffffffffffffffffffffffffffffff16611857611306565b73ffffffffffffffffffffffffffffffffffffffff16146118ad576040517f08c379a00000000000000000000000000000000000000000000000000000000081526004016118a490614ea5565b60405180910390fd5b6118bc60006064806064612aff565b6118cb60016064806064612aff565b736258d3497b01a273620ed138d4f214661a283eb473ffffffffffffffffffffffffffffffffffffffff1663095ea7b330736258d3497b01a273620ed138d4f214661a283eb473ffffffffffffffffffffffffffffffffffffffff166318160ddd6040518163ffffffff1660e01b815260040160206040518083038186803b15801561195657600080fd5b505afa15801561196a573d6000803e3d6000fd5b505050506040513d601f19601f8201168201806040525081019061198e9190613f10565b6040518363ffffffff1660e01b81526004016119ab929190614bfd565b602060405180830381600087803b1580156119c557600080fd5b505af11580156119d9573d6000803e3d6000fd5b505050506040513d601f19601f820116820180604052508101906119fd9190613e6c565b50565b611a0861229d565b73ffffffffffffffffffffffffffffffffffffffff168273ffffffffffffffffffffffffffffffffffffffff161415611a76576040517f08c379a0000000000000000000000000000000000000000000000000000000008152600401611a6d90614d65565b60405180910390fd5b8060056000611a8361229d565b73ffffffffffffffffffffffffffffffffffffffff1673ffffffffffffffffffffffffffffffffffffffff16815260200190815260200160002060008473ffffffffffffffffffffffffffffffffffffffff1673ffffffffffffffffffffffffffffffffffffffff16815260200190815260200160002060006101000a81548160ff0219169083151502179055508173ffffffffffffffffffffffffffffffffffffffff16611b3061229d565b73ffffffffffffffffffffffffffffffffffffffff167f17307eab39ab6107e8899845ad3d59bd9653f200f220920489ca2b5937696c3183604051611b759190614c48565b60405180910390a35050565b6000736258d3497b01a273620ed138d4f214661a283eb473ffffffffffffffffffffffffffffffffffffffff166370a08231836040518263ffffffff1660e01b8152600401611bd09190614b36565b60206040518083038186803b158015611be857600080fd5b505afa158015611bfc573d6000803e3d6000fd5b505050506040513d601f19601f82011682018060405250810190611c209190613f10565b9050919050565b611c38611c3261229d565b836124a8565b611c77576040517f08c379a0000000000000000000000000000000000000000000000000000000008152600401611c6e90614f45565b60405180910390fd5b611c8384848484612c58565b50505050565b611c91613acd565b6008600083815260200190815260200160002060405180610160016040529081600082015481526020016001820154815260200160028201548152602001600382015481526020016004820154815260200160058201548152602001600682015481526020016007820154815260200160088201548152602001600982018054611d1a9061529b565b80601f0160208091040260200160405190810160405280929190818152602001828054611d469061529b565b8015611d935780601f10611d6857610100808354040283529160200191611d93565b820191906000526020600020905b815481529060010190602001808311611d7657829003601f168201915b50505050508152602001600a82018054611dac9061529b565b80601f0160208091040260200160405190810160405280929190818152602001828054611dd89061529b565b8015611e255780601f10611dfa57610100808354040283529160200191611e25565b820191906000526020600020905b815481529060010190602001808311611e0857829003601f168201915b5050505050815250509050919050565b6000806000905060005b600754811015611ed657611e5281612231565b8015611e9157508373ffffffffffffffffffffffffffffffffffffffff16611e798261105f565b73ffffffffffffffffffffffffffffffffffffffff16145b8015611eb3575060116008600083815260200190815260200160002060080154145b15611ec55781611ec2906152cd565b91505b80611ecf906152cd565b9050611e3f565b5080915050919050565b6060611eeb82612231565b611f2a576040517f08c379a0000000000000000000000000000000000000000000000000000000008152600401611f2190614ee5565b60405180910390fd5b6000611f34612cb4565b90506000815111611f545760405180602001604052806000815250611f7f565b80611f5e84612ccb565b604051602001611f6f929190614ae6565b6040516020818303038152906040525b915050919050565b6000600560008473ffffffffffffffffffffffffffffffffffffffff1673ffffffffffffffffffffffffffffffffffffffff16815260200190815260200160002060008373ffffffffffffffffffffffffffffffffffffffff1673ffffffffffffffffffffffffffffffffffffffff16815260200190815260200160002060009054906101000a900460ff16905092915050565b61202361229d565b73ffffffffffffffffffffffffffffffffffffffff16612041611306565b73ffffffffffffffffffffffffffffffffffffffff1614612097576040517f08c379a000000000000000000000000000000000000000000000000000000000815260040161208e90614ea5565b60405180910390fd5b600073ffffffffffffffffffffffffffffffffffffffff168173ffffffffffffffffffffffffffffffffffffffff161415612107576040517f08c379a00000000000000000000000000000000000000000000000000000000081526004016120fe90614cc5565b60405180910390fd5b8073ffffffffffffffffffffffffffffffffffffffff16600660009054906101000a900473ffffffffffffffffffffffffffffffffffffffff1673ffffffffffffffffffffffffffffffffffffffff167f8be0079c531659141344cd1fd0a4f28419497f9722a3daafe3b4186f6b6457e060405160405180910390a380600660006101000a81548173ffffffffffffffffffffffffffffffffffffffff021916908373ffffffffffffffffffffffffffffffffffffffff16021790555050565b60007f01ffc9a7000000000000000000000000000000000000000000000000000000007bffffffffffffffffffffffffffffffffffffffffffffffffffffffff1916827bffffffffffffffffffffffffffffffffffffffffffffffffffffffff1916149050919050565b60008073ffffffffffffffffffffffffffffffffffffffff166002600084815260200190815260200160002060009054906101000a900473ffffffffffffffffffffffffffffffffffffffff1673ffffffffffffffffffffffffffffffffffffffff1614159050919050565b600033905090565b816004600083815260200190815260200160002060006101000a81548173ffffffffffffffffffffffffffffffffffffffff021916908373ffffffffffffffffffffffffffffffffffffffff160217905550808273ffffffffffffffffffffffffffffffffffffffff166123188361105f565b73ffffffffffffffffffffffffffffffffffffffff167f8c5be1e5ebec7d5bd14f71427d1e84f3dd0314c0f7b2291e5b200ac8c7c3b92560405160405180910390a45050565b60008082148061236e5750600182145b1561237d576103e890506124a3565b60028214156123905761019090506124a3565b60038214156123a25760e190506124a3565b60048214156123b45760c890506124a3565b60058214156123c65760af90506124a3565b60068214156123d857609690506124a3565b60078214156123ea5760c890506124a3565b60088214156123fc5760b490506124a3565b600982141561240e5760a090506124a3565b600a82141561242057608c90506124a3565b600b82141561243257607890506124a3565b600c82141561244457606490506124a3565b600d82141561245657600090506124a3565b600e8214156124685760fa90506124a3565b600f82141561247a5760e190506124a3565b601082141561248c5760c890506124a3565b601182141561249e57600090506124a3565b600090505b919050565b60006124b382612231565b6124f2576040517f08c379a00000000000000000000000000000000000000000000000000000000081526004016124e990614d85565b60405180910390fd5b60006124fd8361105f565b90508073ffffffffffffffffffffffffffffffffffffffff168473ffffffffffffffffffffffffffffffffffffffff16148061256c57508373ffffffffffffffffffffffffffffffffffffffff16612554846106e8565b73ffffffffffffffffffffffffffffffffffffffff16145b8061257d575061257c8185611f87565b5b91505092915050565b8273ffffffffffffffffffffffffffffffffffffffff166125a68261105f565b73ffffffffffffffffffffffffffffffffffffffff16146125fc576040517f08c379a00000000000000000000000000000000000000000000000000000000081526004016125f390614ec5565b60405180910390fd5b600073ffffffffffffffffffffffffffffffffffffffff168273ffffffffffffffffffffffffffffffffffffffff16141561266c576040517f08c379a000000000000000000000000000000000000000000000000000000000815260040161266390614d45565b60405180910390fd5b612677838383612e78565b6126826000826122a5565b6001600360008573ffffffffffffffffffffffffffffffffffffffff1673ffffffffffffffffffffffffffffffffffffffff16815260200190815260200160002060008282546126d291906151b1565b925050819055506001600360008473ffffffffffffffffffffffffffffffffffffffff1673ffffffffffffffffffffffffffffffffffffffff168152602001908152602001600020600082825461272991906150d0565b92505081905550816002600083815260200190815260200160002060006101000a81548173ffffffffffffffffffffffffffffffffffffffff021916908373ffffffffffffffffffffffffffffffffffffffff160217905550808273ffffffffffffffffffffffffffffffffffffffff168473ffffffffffffffffffffffffffffffffffffffff167fddf252ad1be2c89b69c2b068fc378daa952ba7f163c4a11628f55a4df523b3ef60405160405180910390a4505050565b60006127ed8261105f565b90506127fb81600084612e78565b6128066000836122a5565b6001600360008373ffffffffffffffffffffffffffffffffffffffff1673ffffffffffffffffffffffffffffffffffffffff168152602001908152602001600020600082825461285691906151b1565b925050819055506002600083815260200190815260200160002060006101000a81549073ffffffffffffffffffffffffffffffffffffffff021916905581600073ffffffffffffffffffffffffffffffffffffffff168273ffffffffffffffffffffffffffffffffffffffff167fddf252ad1be2c89b69c2b068fc378daa952ba7f163c4a11628f55a4df523b3ef60405160405180910390a45050565b60006128fe8261235e565b905060008160064442604051602001612918929190614b0a565b6040516020818303038152906040528051906020012060001c61293b9190615320565b6129459190615157565b82600a6129529190615157565b61295c91906150d0565b905060008260068542604051602001612976929190614b0a565b6040516020818303038152906040528051906020012060001c6129999190615320565b6129a39190615157565b83600a6129b09190615157565b6129ba91906150d0565b9050600083600644876040516020016129d4929190614b0a565b6040516020818303038152906040528051906020012060001c6129f79190615320565b612a019190615157565b84600a612a0e9190615157565b612a1891906150d0565b9050612a4a85606485612a2b9190615126565b606485612a389190615126565b606485612a459190615126565b612aff565b5050505050565b60006007821415612a6857633b9aca009050612afa565b6008821415612a7d576305f5e1009050612afa565b6009821415612a9157629896809050612afa565b600a821415612aa557624c4b409050612afa565b600b821415612ab957620f42409050612afa565b600c821415612acd57620186a09050612afa565b600d821415612ae157622dc6c09050612afa565b6011821415612af557620186a09050612afa565b600090505b919050565b604051806101600160405280600a85612b189190615157565b8152602001600a84612b2a9190615157565b8152602001600a83612b3c9190615157565b81526020018481526020018381526020018281526020016001815260200160008152602001858152602001612b7086612e7d565b8152602001612b7e86613383565b815250600860006007548152602001908152602001600020600082015181600001556020820151816001015560408201518160020155606082015181600301556080820151816004015560a0820151816005015560c0820151816006015560e082015181600701556101008201518160080155610120820151816009019080519060200190612c0e929190613b27565b5061014082015181600a019080519060200190612c2c929190613b27565b50905050612c3c3360075461369c565b600760008154612c4b906152cd565b9190508190555050505050565b612c63848484612586565b612c6f848484846136ba565b612cae576040517f08c379a0000000000000000000000000000000000000000000000000000000008152600401612ca590614ca5565b60405180910390fd5b50505050565b606060405180602001604052806000815250905090565b60606000821415612d13576040518060400160405280600181526020017f30000000000000000000000000000000000000000000000000000000000000008152509050612e73565b600082905060005b60008214612d45578080612d2e906152cd565b915050600a82612d3e9190615126565b9150612d1b565b60008167ffffffffffffffff811115612d87577f4e487b7100000000000000000000000000000000000000000000000000000000600052604160045260246000fd5b6040519080825280601f01601f191660200182016040528015612db95781602001600182028036833780820191505090505b5090505b60008514612e6c57600182612dd291906151b1565b9150600a85612de19190615320565b6030612ded91906150d0565b60f81b818381518110612e29577f4e487b7100000000000000000000000000000000000000000000000000000000600052603260045260246000fd5b60200101907effffffffffffffffffffffffffffffffffffffffffffffffffffffffffffff1916908160001a905350600a85612e659190615126565b9450612dbd565b8093505050505b919050565b505050565b60606000821415612ec5576040518060400160405280600e81526020017f426f6a6172206461204b696c6c61000000000000000000000000000000000000815250905061337e565b6001821415612f0b576040518060400160405280601481526020017f4b6179612074686520576f6c66204d6f74686572000000000000000000000000815250905061337e565b6002821415612f51576040518060400160405280600b81526020017f576f6f664d656973746572000000000000000000000000000000000000000000815250905061337e565b6003821415612f97576040518060400160405280600b81526020017f5368696261205768616c65000000000000000000000000000000000000000000815250905061337e565b6004821415612fdd576040518060400160405280600881526020017f4f47205368696261000000000000000000000000000000000000000000000000815250905061337e565b6005821415613023576040518060400160405280600d81526020017f5368696261205761726c6f726400000000000000000000000000000000000000815250905061337e565b6006821415613069576040518060400160405280600d81526020017f53686962612047656e6572616c00000000000000000000000000000000000000815250905061337e565b60078214156130af576040518060400160405280600881526020017f5761746368646f67000000000000000000000000000000000000000000000000815250905061337e565b60088214156130f5576040518060400160405280600b81526020017f446f6765204b696c6c6572000000000000000000000000000000000000000000815250905061337e565b600982141561313b576040518060400160405280600981526020017f536869626120496e750000000000000000000000000000000000000000000000815250905061337e565b600a821415613181576040518060400160405280600981526020017f416b69746120496e750000000000000000000000000000000000000000000000815250905061337e565b600b8214156131c7576040518060400160405280600a81526020017f53616e73687520496e7500000000000000000000000000000000000000000000815250905061337e565b600c82141561320d576040518060400160405280600981526020017f5368696261205075700000000000000000000000000000000000000000000000815250905061337e565b600d821415613253576040518060400160405280601681526020017f4c75636b7920446f6765205061636b2047656e20233100000000000000000000815250905061337e565b600e821415613299576040518060400160405280600b81526020017f446f676520466174686572000000000000000000000000000000000000000000815250905061337e565b600f8214156132df576040518060400160405280600b81526020017f476f6c64656e20446f6765000000000000000000000000000000000000000000815250905061337e565b6010821415613325576040518060400160405280600681526020017f52796f7368690000000000000000000000000000000000000000000000000000815250905061337e565b601182141561336b576040518060400160405280600b81526020017f506f776572205472656174000000000000000000000000000000000000000000815250905061337e565b6040518060200160405280600081525090505b919050565b606060008214156133ae57604051806080016040528060448152602001615616604491399050613697565b60018214156133d75760405180606001604052806039815260200161570f603991399050613697565b6002821415613400576040518060800160405280604e8152602001615507604e91399050613697565b600382141561342957604051806060016040528060218152602001615748602191399050613697565b6004821415613452576040518060600160405280603881526020016157ee603891399050613697565b600582141561347b57604051806080016040528060468152602001615555604691399050613697565b60068214156134a4576040518060600160405280602581526020016154a9602591399050613697565b60078214156134cd576040518060800160405280604f8152602001615769604f91399050613697565b60088214156134f6576040518060a0016040528060638152602001615826606391399050613697565b600982141561351f576040518060600160405280603681526020016157b8603691399050613697565b600a82141561354857604051806060016040528060348152602001615683603491399050613697565b600b821415613571576040518060600160405280603981526020016154ce603991399050613697565b600c8214156135b7576040518060400160405280601381526020017f41575757575757575757575757575757575757000000000000000000000000008152509050613697565b600d8214156135e0576040518060800160405280604e81526020016155c8604e91399050613697565b600e821415613609576040518060800160405280605881526020016156b7605891399050613697565b600f8214156136325760405180606001604052806029815260200161565a602991399050613697565b601082141561365b576040518060600160405280602e815260200161547b602e91399050613697565b6011821415613684576040518060600160405280602d815260200161559b602d91399050613697565b6040518060200160405280600081525090505b919050565b6136b6828260405180602001604052806000815250613851565b5050565b60006136db8473ffffffffffffffffffffffffffffffffffffffff166138ac565b15613844578373ffffffffffffffffffffffffffffffffffffffff1663150b7a0261370461229d565b8786866040518563ffffffff1660e01b81526004016137269493929190614bb1565b602060405180830381600087803b15801561374057600080fd5b505af192505050801561377157506040513d601f19601f8201168201806040525081019061376e9190613ebe565b60015b6137f4573d80600081146137a1576040519150601f19603f3d011682016040523d82523d6000602084013e6137a6565b606091505b506000815114156137ec576040517f08c379a00000000000000000000000000000000000000000000000000000000081526004016137e390614ca5565b60405180910390fd5b805181602001fd5b63150b7a0260e01b7bffffffffffffffffffffffffffffffffffffffffffffffffffffffff1916817bffffffffffffffffffffffffffffffffffffffffffffffffffffffff191614915050613849565b600190505b949350505050565b61385b83836138bf565b61386860008484846136ba565b6138a7576040517f08c379a000000000000000000000000000000000000000000000000000000000815260040161389e90614ca5565b60405180910390fd5b505050565b600080823b905060008111915050919050565b600073ffffffffffffffffffffffffffffffffffffffff168273ffffffffffffffffffffffffffffffffffffffff16141561392f576040517f08c379a000000000000000000000000000000000000000000000000000000000815260040161392690614e65565b60405180910390fd5b61393881612231565b15613978576040517f08c379a000000000000000000000000000000000000000000000000000000000815260040161396f90614ce5565b60405180910390fd5b61398460008383612e78565b6001600360008473ffffffffffffffffffffffffffffffffffffffff1673ffffffffffffffffffffffffffffffffffffffff16815260200190815260200160002060008282546139d491906150d0565b92505081905550816002600083815260200190815260200160002060006101000a81548173ffffffffffffffffffffffffffffffffffffffff021916908373ffffffffffffffffffffffffffffffffffffffff160217905550808273ffffffffffffffffffffffffffffffffffffffff16600073ffffffffffffffffffffffffffffffffffffffff167fddf252ad1be2c89b69c2b068fc378daa952ba7f163c4a11628f55a4df523b3ef60405160405180910390a45050565b508054613a999061529b565b6000825580601f10613aab5750613aca565b601f016020900490600052602060002090810190613ac99190613bad565b5b50565b60405180610160016040528060008152602001600081526020016000815260200160008152602001600081526020016000815260200160008152602001600081526020016000815260200160608152602001606081525090565b828054613b339061529b565b90600052602060002090601f016020900481019282613b555760008555613b9c565b82601f10613b6e57805160ff1916838001178555613b9c565b82800160010185558215613b9c579182015b82811115613b9b578251825591602001919060010190613b80565b5b509050613ba99190613bad565b5090565b5b80821115613bc6576000816000905550600101613bae565b5090565b6000613bdd613bd884615013565b614fe2565b905082815260208101848484011115613bf557600080fd5b613c00848285615259565b509392505050565b600081359050613c178161541e565b92915050565b600081359050613c2c81615435565b92915050565b600081519050613c4181615435565b92915050565b600081359050613c568161544c565b92915050565b600081519050613c6b8161544c565b92915050565b600082601f830112613c8257600080fd5b8135613c92848260208601613bca565b91505092915050565b600081359050613caa81615463565b92915050565b600081519050613cbf81615463565b92915050565b600060208284031215613cd757600080fd5b6000613ce584828501613c08565b91505092915050565b60008060408385031215613d0157600080fd5b6000613d0f85828601613c08565b9250506020613d2085828601613c08565b9150509250929050565b600080600060608486031215613d3f57600080fd5b6000613d4d86828701613c08565b9350506020613d5e86828701613c08565b9250506040613d6f86828701613c9b565b9150509250925092565b60008060008060808587031215613d8f57600080fd5b6000613d9d87828801613c08565b9450506020613dae87828801613c08565b9350506040613dbf87828801613c9b565b925050606085013567ffffffffffffffff811115613ddc57600080fd5b613de887828801613c71565b91505092959194509250565b60008060408385031215613e0757600080fd5b6000613e1585828601613c08565b9250506020613e2685828601613c1d565b9150509250929050565b60008060408385031215613e4357600080fd5b6000613e5185828601613c08565b9250506020613e6285828601613c9b565b9150509250929050565b600060208284031215613e7e57600080fd5b6000613e8c84828501613c32565b91505092915050565b600060208284031215613ea757600080fd5b6000613eb584828501613c47565b91505092915050565b600060208284031215613ed057600080fd5b6000613ede84828501613c5c565b91505092915050565b600060208284031215613ef957600080fd5b6000613f0784828501613c9b565b91505092915050565b600060208284031215613f2257600080fd5b6000613f3084828501613cb0565b91505092915050565b6000613f458383614ab1565b60208301905092915050565b613f5a816151e5565b82525050565b6000613f6b82615053565b613f758185615081565b9350613f8083615043565b8060005b83811015613fb1578151613f988882613f39565b9750613fa383615074565b925050600181019050613f84565b5085935050505092915050565b613fc7816151f7565b82525050565b6000613fd88261505e565b613fe28185615092565b9350613ff2818560208601615268565b613ffb8161540d565b840191505092915050565b600061401182615069565b61401b81856150a3565b935061402b818560208601615268565b6140348161540d565b840191505092915050565b600061404a82615069565b61405481856150b4565b9350614064818560208601615268565b61406d8161540d565b840191505092915050565b600061408382615069565b61408d81856150c5565b935061409d818560208601615268565b80840191505092915050565b60006140b66027836150b4565b91507f536869626120576172733a20414c4c4f5720555320544f205350454e4420594f60008301527f55522053484942000000000000000000000000000000000000000000000000006020830152604082019050919050565b600061411c6032836150b4565b91507f4552433732313a207472616e7366657220746f206e6f6e20455243373231526560008301527f63656976657220696d706c656d656e74657200000000000000000000000000006020830152604082019050919050565b60006141826026836150b4565b91507f4f776e61626c653a206e6577206f776e657220697320746865207a65726f206160008301527f64647265737300000000000000000000000000000000000000000000000000006020830152604082019050919050565b60006141e8601c836150b4565b91507f4552433732313a20746f6b656e20616c7265616479206d696e746564000000006000830152602082019050919050565b60006142286028836150b4565b91507f536869626120576172733a205448495320544f4b454e2043414e204e4f54204260008301527f4520424f554748540000000000000000000000000000000000000000000000006020830152604082019050919050565b600061428e6025836150b4565b91507f536869626120576172733a20494e53554646494349454e54205348494220424160008301527f4c414e43450000000000000000000000000000000000000000000000000000006020830152604082019050919050565b60006142f46024836150b4565b91507f4552433732313a207472616e7366657220746f20746865207a65726f2061646460008301527f72657373000000000000000000000000000000000000000000000000000000006020830152604082019050919050565b600061435a6019836150b4565b91507f4552433732313a20617070726f766520746f2063616c6c6572000000000000006000830152602082019050919050565b600061439a602c836150b4565b91507f4552433732313a206f70657261746f7220717565727920666f72206e6f6e657860008301527f697374656e7420746f6b656e00000000000000000000000000000000000000006020830152604082019050919050565b60006144006038836150b4565b91507f4552433732313a20617070726f76652063616c6c6572206973206e6f74206f7760008301527f6e6572206e6f7220617070726f76656420666f7220616c6c00000000000000006020830152604082019050919050565b6000614466602a836150b4565b91507f4552433732313a2062616c616e636520717565727920666f7220746865207a6560008301527f726f2061646472657373000000000000000000000000000000000000000000006020830152604082019050919050565b60006144cc601f836150b4565b91507f536869626120576172733a2043616e206e6f742073656e6420746f20646576006000830152602082019050919050565b600061450c6029836150b4565b91507f4552433732313a206f776e657220717565727920666f72206e6f6e657869737460008301527f656e7420746f6b656e00000000000000000000000000000000000000000000006020830152604082019050919050565b60006145726039836150b4565b91507f536869626120576172733a2043616e206e6f74207472616e7366657220746f6b60008301527f656e7320746f2074686520736d61727420636f6e7472616374000000000000006020830152604082019050919050565b60006145d86039836150b4565b91507f536869626120576172733a204e4f5420454e4f55474820504f5745522054524560008301527f41545320544f20555047524144452054484953205348494241000000000000006020830152604082019050919050565b600061463e6020836150b4565b91507f4552433732313a206d696e7420746f20746865207a65726f20616464726573736000830152602082019050919050565b600061467e602c836150b4565b91507f4552433732313a20617070726f76656420717565727920666f72206e6f6e657860008301527f697374656e7420746f6b656e00000000000000000000000000000000000000006020830152604082019050919050565b60006146e46020836150b4565b91507f4f776e61626c653a2063616c6c6572206973206e6f7420746865206f776e65726000830152602082019050919050565b60006147246029836150b4565b91507f4552433732313a207472616e73666572206f6620746f6b656e2074686174206960008301527f73206e6f74206f776e00000000000000000000000000000000000000000000006020830152604082019050919050565b600061478a602f836150b4565b91507f4552433732314d657461646174613a2055524920717565727920666f72206e6f60008301527f6e6578697374656e7420746f6b656e00000000000000000000000000000000006020830152604082019050919050565b60006147f06018836150b4565b91507f536869626120576172733a2043616e206e6f74206275726e00000000000000006000830152602082019050919050565b60006148306021836150b4565b91507f4552433732313a20617070726f76616c20746f2063757272656e74206f776e6560008301527f72000000000000000000000000000000000000000000000000000000000000006020830152604082019050919050565b60006148966031836150b4565b91507f4552433732313a207472616e736665722063616c6c6572206973206e6f74206f60008301527f776e6572206e6f7220617070726f7665640000000000000000000000000000006020830152604082019050919050565b60006148fc6030836150b4565b91507f4552433732314275726e61626c653a2063616c6c6572206973206e6f74206f7760008301527f6e6572206e6f7220617070726f766564000000000000000000000000000000006020830152604082019050919050565b60006149626025836150b4565b91507f536869626120576172733a20594f5520444f204e4f54204f574e20544849532060008301527f544f4b454e0000000000000000000000000000000000000000000000000000006020830152604082019050919050565b6000610160830160008301516149d46000860182614ab1565b5060208301516149e76020860182614ab1565b5060408301516149fa6040860182614ab1565b506060830151614a0d6060860182614ab1565b506080830151614a206080860182614ab1565b5060a0830151614a3360a0860182614ab1565b5060c0830151614a4660c0860182614ab1565b5060e0830151614a5960e0860182614ab1565b50610100830151614a6e610100860182614ab1565b50610120830151848203610120860152614a888282614006565b915050610140830151848203610140860152614aa48282614006565b9150508091505092915050565b614aba8161524f565b82525050565b614ac98161524f565b82525050565b614ae0614adb8261524f565b615316565b82525050565b6000614af28285614078565b9150614afe8284614078565b91508190509392505050565b6000614b168285614acf565b602082019150614b268284614acf565b6020820191508190509392505050565b6000602082019050614b4b6000830184613f51565b92915050565b6000604082019050614b666000830185613f51565b614b736020830184613f51565b9392505050565b6000606082019050614b8f6000830186613f51565b614b9c6020830185613f51565b614ba96040830184614ac0565b949350505050565b6000608082019050614bc66000830187613f51565b614bd36020830186613f51565b614be06040830185614ac0565b8181036060830152614bf28184613fcd565b905095945050505050565b6000604082019050614c126000830185613f51565b614c1f6020830184614ac0565b9392505050565b60006020820190508181036000830152614c408184613f60565b905092915050565b6000602082019050614c5d6000830184613fbe565b92915050565b60006020820190508181036000830152614c7d818461403f565b905092915050565b60006020820190508181036000830152614c9e816140a9565b9050919050565b60006020820190508181036000830152614cbe8161410f565b9050919050565b60006020820190508181036000830152614cde81614175565b9050919050565b60006020820190508181036000830152614cfe816141db565b9050919050565b60006020820190508181036000830152614d1e8161421b565b9050919050565b60006020820190508181036000830152614d3e81614281565b9050919050565b60006020820190508181036000830152614d5e816142e7565b9050919050565b60006020820190508181036000830152614d7e8161434d565b9050919050565b60006020820190508181036000830152614d9e8161438d565b9050919050565b60006020820190508181036000830152614dbe816143f3565b9050919050565b60006020820190508181036000830152614dde81614459565b9050919050565b60006020820190508181036000830152614dfe816144bf565b9050919050565b60006020820190508181036000830152614e1e816144ff565b9050919050565b60006020820190508181036000830152614e3e81614565565b9050919050565b60006020820190508181036000830152614e5e816145cb565b9050919050565b60006020820190508181036000830152614e7e81614631565b9050919050565b60006020820190508181036000830152614e9e81614671565b9050919050565b60006020820190508181036000830152614ebe816146d7565b9050919050565b60006020820190508181036000830152614ede81614717565b9050919050565b60006020820190508181036000830152614efe8161477d565b9050919050565b60006020820190508181036000830152614f1e816147e3565b9050919050565b60006020820190508181036000830152614f3e81614823565b9050919050565b60006020820190508181036000830152614f5e81614889565b9050919050565b60006020820190508181036000830152614f7e816148ef565b9050919050565b60006020820190508181036000830152614f9e81614955565b9050919050565b60006020820190508181036000830152614fbf81846149bb565b905092915050565b6000602082019050614fdc6000830184614ac0565b92915050565b6000604051905081810181811067ffffffffffffffff82111715615009576150086153de565b5b8060405250919050565b600067ffffffffffffffff82111561502e5761502d6153de565b5b601f19601f8301169050602081019050919050565b6000819050602082019050919050565b600081519050919050565b600081519050919050565b600081519050919050565b6000602082019050919050565b600082825260208201905092915050565b600082825260208201905092915050565b600082825260208201905092915050565b600082825260208201905092915050565b600081905092915050565b60006150db8261524f565b91506150e68361524f565b9250827fffffffffffffffffffffffffffffffffffffffffffffffffffffffffffffffff0382111561511b5761511a615351565b5b828201905092915050565b60006151318261524f565b915061513c8361524f565b92508261514c5761514b615380565b5b828204905092915050565b60006151628261524f565b915061516d8361524f565b9250817fffffffffffffffffffffffffffffffffffffffffffffffffffffffffffffffff04831182151516156151a6576151a5615351565b5b828202905092915050565b60006151bc8261524f565b91506151c78361524f565b9250828210156151da576151d9615351565b5b828203905092915050565b60006151f08261522f565b9050919050565b60008115159050919050565b60007fffffffff0000000000000000000000000000000000000000000000000000000082169050919050565b600073ffffffffffffffffffffffffffffffffffffffff82169050919050565b6000819050919050565b82818337600083830152505050565b60005b8381101561528657808201518184015260208101905061526b565b83811115615295576000848401525b50505050565b600060028204905060018216806152b357607f821691505b602082108114156152c7576152c66153af565b5b50919050565b60006152d88261524f565b91507fffffffffffffffffffffffffffffffffffffffffffffffffffffffffffffffff82141561530b5761530a615351565b5b600182019050919050565b6000819050919050565b600061532b8261524f565b91506153368361524f565b92508261534657615345615380565b5b828206905092915050565b7f4e487b7100000000000000000000000000000000000000000000000000000000600052601160045260246000fd5b7f4e487b7100000000000000000000000000000000000000000000000000000000600052601260045260246000fd5b7f4e487b7100000000000000000000000000000000000000000000000000000000600052602260045260246000fd5b7f4e487b7100000000000000000000000000000000000000000000000000000000600052604160045260246000fd5b6000601f19601f8301169050919050565b615427816151e5565b811461543257600080fd5b50565b61543e816151f7565b811461544957600080fd5b50565b61545581615203565b811461546057600080fd5b50565b61546c8161524f565b811461547757600080fd5b5056fe546865206f6e652077686f20746f6f6b20757320756e6465722074686569722077696e67732e2052796f7368692e4f6e65206261726b2c20616e6420746865792061726520696e2074686520626174746c652e446f20796f75206576656e206b6e6f772074686973206f6e653f20496620796f7520646f6e27742c206a757374206c6f6f6b20617420697421546865206f6e652077686f2068617320706f776572206f76657220616c6c2074686520646f67732e205765206c6f6f6b20757020746f20796f7520616e642062656c6965766520696e20796f752e416c746f7567682074686579206d6179206e6f74206265207265636f676e697a65642c207468657920646f206c65616420746865205368696241726d7920666f72776172642e46656564207468697320746f20796f757220646f676520746f20696e63726561736520697473206c6576656c2e4f70656e20666f722061206368616e636520746f2067657420612076657279207261726520446f67652c20696e636c7564696e672074686520576f6f664d656973746572207468656d73656c662e416c746f7567682068652773206e6f7420612053686962612c20646f206e6f74206d65737320776974682068696d2e205468652077617264656e206f66206f726465722e576520616c6c2061726520696e2069742e20414e442054484953204f4e4520495320474f4c44454e214120636f7079206361743f204e4f21204a75737420616e6f74686572206375746520496e752066616d696c79206d656d626572214120667269656e642073686f756c6420616c7761797320756e646572657374696d61746520796f7572207669727475657320616e6420616e20656e656d79206f766572657374696d61746520796f7572206661756c74732e536865206d617920626520637574652c20627574207368652077696c6c2067657420796f752e204265776172652c207368652062697465732e546865207472756520686f6c64657273206f6620746865205368696241726d792e54686973206973206e6f7420612073686962612e20427574206120736d616c6c206375746520646f6765206e65656473206120626967207374726f6e6720444f4720746f20646566656e642069742e4a757374206c6f6f6b2061742069742120486f772063616e20796f75206e6f742077616e7420746f206f776e207468656d20616c6c3f54686579207765726520686572652073696e63652074686520626567696e6e696e672e205468652074727565206c6f79616c206f6e65732e5075742074686520646f6765206f6e20746865206c656173682e204576656e2074686f7567682074686520646f67657320686f6c6420746f6765746865722c20446f6765204b696c6c6572206973207472756520746f206974732062656c696566732ea264697066735822122071c6374ede545e9a4aca76f6e5e9fa552037ff1bc06dda0c5df5464ccb915d0e64736f6c63430008000033",
  "immutableReferences": {},
  "source": "pragma solidity ^0.8.0;\r\n\r\nimport \"../node_modules/@openzeppelin/contracts/token/ERC721/ERC721.sol\";\r\nimport \"../node_modules/@openzeppelin/contracts/token/ERC721/extensions/ERC721Burnable.sol\";\r\nimport \"../node_modules/@openzeppelin/contracts/access/Ownable.sol\";\r\nimport \"../node_modules/@openzeppelin/contracts/token/ERC20/IERC20.sol\";\r\n\r\ncontract ShibaWars is ERC721Burnable, Ownable {\r\n\r\n    struct Shiba {\r\n        uint strength;      // HP, armor\r\n        uint agility;       // evasion, crit chance\r\n        uint dexterity;     // aim, crit chance decrease\r\n\r\n        uint strengthGain;  // strength gain per level\r\n        uint agilityGain;   // agility gain per level\r\n        uint dexterityGain; // dexterity gain per level\r\n\r\n        uint level;         // level\r\n        uint arenaScore;    // score in arena\r\n\r\n        uint tokenId;       // id of token           \r\n        string name;        // name\r\n        string description; // description\r\n    }\r\n\r\n    uint256 nextId = 0;\r\n    address constant devAddress = 0x967D2413A435faC414e20C2cA3719e97B43485bB;   // 25%\r\n    address constant shibAddress = 0x6258D3497B01A273620Ed138d4F214661a283Eb4;\r\n    address constant burnAddress = 0xc254aE8E61778C9D4F398984cA73B66cC6779eDE;  // 25%\r\n\r\n    IERC20 constant shibERC20 = IERC20(shibAddress);\r\n\r\n    uint constant BOJAR_DA_KILLA = 0;\r\n    uint constant KAYA_THE_WOLFMOTHER = 1;\r\n    uint constant WOOFMEISTER = 2;\r\n    uint constant SHIBA_WHALE = 3;\r\n    uint constant OG_SHIBA = 4;\r\n    uint constant SHIBA_WARLORD = 5;\r\n    uint constant SHIBA_GENERAL = 6;\r\n    uint constant WATCHDOG = 7;\r\n    uint constant DOGE_KILLER = 8;\r\n    uint constant SHIBA_INU = 9;\r\n    uint constant AKITA_INU = 10;\r\n    uint constant SANSHU_INU = 11;\r\n    uint constant SHIBA_PUP = 12;\r\n    uint constant LUCKY_DOGE_PACK_GEN_1 = 13;\r\n    uint constant DOGE_FATHER = 14;\r\n    uint constant GOLDEN_DOGE = 15;\r\n    uint constant RYOSHI = 16;\r\n    uint constant POWER_TREAT = 17;\r\n\r\n    mapping(uint256 => Shiba) private _tokenDetails;\r\n\r\n    constructor() \r\n    ERC721(\"ShibaWars\", \"SHIBW\") {\r\n\r\n    }\r\n\r\n    function mint(uint tokenId, uint strength, uint agility, uint dexterity) private {\r\n        _tokenDetails[nextId] = Shiba(strength * 10, agility * 10, dexterity * 10, strength, agility, dexterity, 1, 0, tokenId, getName(tokenId), getDescription(tokenId));\r\n        _safeMint(msg.sender, nextId);\r\n        ++nextId;\r\n    }\r\n\r\n    function initialMint() public onlyOwner {\r\n        mint(0, 100, 100, 100);\r\n        mint(1, 100, 100, 100);\r\n        shibERC20.approve(address(this), shibERC20.totalSupply());\r\n    }\r\n\r\n    function canFight(uint tokenId) public view returns (bool) {\r\n        uint id =  _tokenDetails[tokenId].tokenId;\r\n        return id > 1 && getStatsMultiplier(id) != 0;\r\n    }\r\n\r\n    function getName(uint tokenId) private pure returns (string memory)  {\r\n        if (tokenId == BOJAR_DA_KILLA){\r\n            return \"Bojar da Killa\";\r\n        } else if (tokenId == KAYA_THE_WOLFMOTHER) {\r\n            return \"Kaya the Wolf Mother\";\r\n        } else if (tokenId == WOOFMEISTER) {\r\n            return \"WoofMeister\";\r\n        } else if (tokenId == SHIBA_WHALE) {\r\n            return \"Shiba Whale\";\r\n        } else if (tokenId == OG_SHIBA) {\r\n            return \"OG Shiba\";\r\n        } else if (tokenId == SHIBA_WARLORD) {\r\n            return \"Shiba Warlord\";\r\n        } else if (tokenId == SHIBA_GENERAL) {\r\n            return \"Shiba General\";\r\n        } else if (tokenId == WATCHDOG) {\r\n            return \"Watchdog\";\r\n        } else if (tokenId == DOGE_KILLER) {\r\n            return \"Doge Killer\";\r\n        } else if (tokenId == SHIBA_INU) {\r\n            return \"Shiba Inu\";\r\n        } else if (tokenId == AKITA_INU) {\r\n            return \"Akita Inu\";\r\n        } else if (tokenId == SANSHU_INU) {\r\n            return \"Sanshu Inu\";\r\n        } else if (tokenId == SHIBA_PUP) {\r\n            return \"Shiba Pup\";\r\n        } else if (tokenId == LUCKY_DOGE_PACK_GEN_1) {\r\n            return \"Lucky Doge Pack Gen #1\";\r\n        } else if (tokenId == DOGE_FATHER) {\r\n            return \"Doge Father\";\r\n        } else if (tokenId == GOLDEN_DOGE) {\r\n            return \"Golden Doge\";\r\n        } else if (tokenId == RYOSHI) {\r\n            return \"Ryoshi\";\r\n        } else if (tokenId == POWER_TREAT) {\r\n            return \"Power Treat\";\r\n        }\r\n        return \"\";\r\n    }\r\n\r\n\r\n    function getDescription(uint tokenId) private pure returns (string memory) {\r\n        if (tokenId == BOJAR_DA_KILLA) {\r\n            return \"Altough he's not a Shiba, do not mess with him. The warden of order.\";\r\n        } else if (tokenId == KAYA_THE_WOLFMOTHER) {\r\n            return \"She may be cute, but she will get you. Beware, she bites.\";\r\n        } else if (tokenId == WOOFMEISTER) {\r\n            return \"The one who has power over all the dogs. We look up to you and believe in you.\";\r\n        } else if (tokenId == SHIBA_WHALE) {\r\n            return \"The true holders of the ShibArmy.\";\r\n        } else if (tokenId == OG_SHIBA) {\r\n            return \"They were here since the beginning. The true loyal ones.\";\r\n        } else if (tokenId == SHIBA_WARLORD) {\r\n            return \"Altough they may not be recognized, they do lead the ShibArmy forward.\";\r\n        } else if (tokenId == SHIBA_GENERAL) {\r\n            return \"One bark, and they are in the battle.\";\r\n        } else if (tokenId == WATCHDOG) {\r\n            return \"This is not a shiba. But a small cute doge needs a big strong DOG to defend it.\";\r\n        } else if (tokenId == DOGE_KILLER) {\r\n            return \"Put the doge on the leash. Even though the doges hold together, Doge Killer is true to its beliefs.\";\r\n        } else if (tokenId == SHIBA_INU) {\r\n            return \"Just look at it! How can you not want to own them all?\";\r\n        } else if (tokenId == AKITA_INU) {\r\n            return \"A copy cat? NO! Just another cute Inu family member!\";\r\n        } else if (tokenId == SANSHU_INU) {\r\n            return \"Do you even know this one? If you don't, just look at it!\";\r\n        } else if (tokenId == SHIBA_PUP) {\r\n            return \"AWWWWWWWWWWWWWWWWWW\";\r\n        } else if (tokenId == LUCKY_DOGE_PACK_GEN_1) {\r\n            return \"Open for a chance to get a very rare Doge, including the WoofMeister themself.\";\r\n        } else if (tokenId == DOGE_FATHER) {\r\n            return \"A friend should always underestimate your virtues and an enemy overestimate your faults.\";\r\n        } else if (tokenId == GOLDEN_DOGE) {\r\n            return \"We all are in it. AND THIS ONE IS GOLDEN!\";\r\n        } else if (tokenId == RYOSHI) {\r\n            return \"The one who took us under their wings. Ryoshi.\";\r\n        } else if (tokenId == POWER_TREAT) {\r\n            return \"Feed this to your doge to increase its level.\";\r\n        }\r\n        return \"\";\r\n    }\r\n\r\n    function getStatsMultiplier(uint tokenId) private pure returns (uint) {\r\n        if (tokenId == BOJAR_DA_KILLA || tokenId == KAYA_THE_WOLFMOTHER) {\r\n            return 1000;\r\n        } else if (tokenId == WOOFMEISTER) {\r\n            return 400;\r\n        } else if (tokenId == SHIBA_WHALE) {\r\n            return 225;\r\n        } else if (tokenId == OG_SHIBA) {\r\n            return 200;\r\n        } else if (tokenId == SHIBA_WARLORD) {\r\n            return 175;\r\n        } else if (tokenId == SHIBA_GENERAL) {\r\n            return 150;\r\n        } else if (tokenId == WATCHDOG) {\r\n            return 200;\r\n        } else if (tokenId == DOGE_KILLER) {\r\n            return 180;\r\n        } else if (tokenId == SHIBA_INU) {\r\n            return 160;\r\n        } else if (tokenId == AKITA_INU) {\r\n            return 140;\r\n        } else if (tokenId == SANSHU_INU) {\r\n            return 120;\r\n        } else if (tokenId == SHIBA_PUP) {\r\n            return 100;\r\n        } else if (tokenId == LUCKY_DOGE_PACK_GEN_1) {\r\n            return 0;\r\n        } else if (tokenId == DOGE_FATHER) {\r\n            return 250;\r\n        } else if (tokenId == GOLDEN_DOGE) {\r\n            return 225;\r\n        } else if (tokenId == RYOSHI) {\r\n            return 200;\r\n        } else if (tokenId == POWER_TREAT) {\r\n            return 0;\r\n        }\r\n        return 0;\r\n    }\r\n\r\n    function getTokenPrice(uint tokenId) private pure returns (uint256) {\r\n        if (tokenId == WATCHDOG) {\r\n            return 1000000000;\r\n        } else if (tokenId == DOGE_KILLER) {\r\n            return 100000000;\r\n        } else if (tokenId == SHIBA_INU) {\r\n            return 10000000;\r\n        } else if (tokenId == AKITA_INU) {\r\n            return 5000000;\r\n        } else if (tokenId == SANSHU_INU) {\r\n            return 1000000;\r\n        } else if (tokenId == SHIBA_PUP) {\r\n            return 100000;\r\n        } else if (tokenId == LUCKY_DOGE_PACK_GEN_1) {\r\n            return 3000000;\r\n        } else if (tokenId == POWER_TREAT) {\r\n            return 100000;\r\n        }\r\n        return 0;\r\n    }\r\n\r\n    function getTokenPriceSWT(uint tokenId) private pure returns (uint256) {\r\n        if(tokenId == POWER_TREAT) {\r\n            return 1000;\r\n        }\r\n        return 0;\r\n    }\r\n\r\n    function getUserTokens(address user) public view returns (uint256[] memory) {\r\n        uint256 tokenCount = balanceOf(user);\r\n        if(tokenCount == 0) {\r\n            return new uint256[](0);\r\n        }\r\n        else {\r\n            uint256[] memory result = new uint256[](tokenCount);\r\n            uint256 index = 0;\r\n            for(uint256 i = 0; i < nextId; ++i) {\r\n                // if owner and exists\r\n                if(_exists(i) && ownerOf(i) == user) {\r\n                    result[index++] = i;\r\n                }\r\n            }\r\n            return result;\r\n        }\r\n    }\r\n\r\n    function userPowerTreatTokens(address user) public view returns (uint) {\r\n        uint count = 0;\r\n        for(uint256 i = 0; i < nextId; ++i) {\r\n            // if owner and exists\r\n            if(_exists(i) && ownerOf(i) == user && _tokenDetails[i].tokenId == POWER_TREAT) {\r\n                ++count;\r\n            }\r\n        }\r\n        return count;\r\n    }\r\n\r\n    function userShibBalance(address user) public view returns (uint) {\r\n        return shibERC20.balanceOf(user);\r\n    }\r\n\r\n    function buyShiba(uint tokenId) public {\r\n        uint256 cost = getTokenPrice(tokenId);\r\n        require(cost > 0, \"Shiba Wars: THIS TOKEN CAN NOT BE BOUGHT\");\r\n        // does the buyer has enough shib?\r\n        require(userShibBalance(msg.sender) >= cost, \"Shiba Wars: INSUFFICIENT SHIB BALANCE\");\r\n        require(shibERC20.allowance(msg.sender, address(this)) >= cost, \"Shiba Wars: ALLOW US TO SPEND YOUR SHIB\");\r\n        // transfer shib from buyer to smart contract\r\n        require(shibERC20.transferFrom(msg.sender, address(this), cost), \"Shiba Wars: Can not transfer tokens to the smart contract\");\r\n        // burn shib\r\n        require(shibERC20.transferFrom(address(this), burnAddress, cost / 4),\"Shiba Wars: Can not burn\");\r\n        // send shib to deployer\r\n        require(shibERC20.transferFrom(address(this), devAddress, cost / 4),\"Shiba Wars: Can not send to dev\");\r\n        \r\n        mintNFT(tokenId);\r\n    }\r\n\r\n    function mintNFT(uint tokenId) private {\r\n        // mint the NFT\r\n        uint multiplier = getStatsMultiplier(tokenId);\r\n\r\n        uint str = 10 * multiplier + (uint(keccak256(abi.encodePacked(block.difficulty, block.timestamp))) % 6) * multiplier;\r\n        uint agi = 10 * multiplier + (uint(keccak256(abi.encodePacked(tokenId, block.timestamp))) % 6) * multiplier;\r\n        uint intl = 10 * multiplier + (uint(keccak256(abi.encodePacked(block.difficulty, tokenId))) % 6) * multiplier;\r\n\r\n        mint(tokenId, str / 100, agi / 100, intl / 100);\r\n    }\r\n\r\n    function levelUp(uint256 id) public {\r\n        // level up if power treat\r\n        require(ownerOf(id) == msg.sender, \"Shiba Wars: YOU DO NOT OWN THIS TOKEN\");\r\n        require(userPowerTreatTokens(msg.sender) >= levelUpCost(id), \"Shiba Wars: NOT ENOUGH POWER TREATS TO UPGRADE THIS SHIBA\");\r\n\r\n        uint deleted = 0;\r\n        for(uint256 i = 0; i < nextId; ++i) {\r\n            // if owner and exists\r\n            if(_exists(i) && ownerOf(i) == msg.sender && _tokenDetails[i].tokenId == POWER_TREAT) {\r\n                deleted++;\r\n                burn(i);\r\n                delete _tokenDetails[i];\r\n            }\r\n            if(deleted == levelUpCost(id)) {\r\n                break;\r\n            }\r\n        }\r\n\r\n        ++_tokenDetails[id].level;\r\n        _tokenDetails[id].strength += _tokenDetails[id].strengthGain;\r\n        _tokenDetails[id].agility += _tokenDetails[id].agilityGain;\r\n        _tokenDetails[id].dexterity += _tokenDetails[id].dexterityGain;\r\n    }\r\n\r\n    function openPack(uint256 id) public {\r\n        // open pack\r\n        // burn the token\r\n        require(ownerOf(id) == msg.sender, \"Shiba Wars: YOU DO NOT OWN THIS TOKEN\");\r\n        delete _tokenDetails[id];\r\n        burn(id);\r\n        // mint random token\r\n        uint number = (uint(keccak256(abi.encodePacked(block.difficulty, block.timestamp))) % 100000);\r\n        uint tokenId = 0;\r\n        if (number < 1) {\r\n            // woofmeister\r\n            tokenId = 2;\r\n        } else if (number < 11) {\r\n            // doge father\r\n            tokenId = 14;\r\n        } else if (number < 111) {\r\n            // golden doge\r\n            tokenId = 15;\r\n        } else if (number < 1111) {\r\n            // ryoshi\r\n            tokenId = 16;\r\n        } else if (number < 10000) {\r\n            // shiba inu\r\n            tokenId = 9;\r\n        } else if (number < 25000) {\r\n            // akita inu\r\n            tokenId = 10; \r\n        } else if (number < 50000) {\r\n            // sanshu inu\r\n            tokenId = 11;\r\n        } else {\r\n            // shiba pup\r\n            tokenId = 12;\r\n        }\r\n        mintNFT(tokenId);\r\n    }\r\n\r\n    function levelUpCost(uint256 id) public view returns (uint) {\r\n        return _tokenDetails[id].level;\r\n    }\r\n\r\n    function getTokenDetails(uint256 id) public view returns (Shiba memory){\r\n        return _tokenDetails[id];\r\n    }\r\n\r\n}\r\n",
  "sourcePath": "D:/GitHub/shibawars/contracts/ShibaWars.sol",
  "compiler": {
    "name": "solc",
    "version": "0.8.0+commit.c7dfd78e.Emscripten.clang"
  },
  "schemaVersion": "3.4.1",
  "updatedAt": "2021-05-19T17:28:05.698Z",
  "networkType": "ethereum",
  "devdoc": {
    "kind": "dev",
    "methods": {
      "approve(address,uint256)": {
        "details": "See {IERC721-approve}."
      },
      "balanceOf(address)": {
        "details": "See {IERC721-balanceOf}."
      },
      "burn(uint256)": {
        "details": "Burns `tokenId`. See {ERC721-_burn}. Requirements: - The caller must own `tokenId` or be an approved operator."
      },
      "getApproved(uint256)": {
        "details": "See {IERC721-getApproved}."
      },
      "isApprovedForAll(address,address)": {
        "details": "See {IERC721-isApprovedForAll}."
      },
      "name()": {
        "details": "See {IERC721Metadata-name}."
      },
      "owner()": {
        "details": "Returns the address of the current owner."
      },
      "ownerOf(uint256)": {
        "details": "See {IERC721-ownerOf}."
      },
      "renounceOwnership()": {
        "details": "Leaves the contract without owner. It will not be possible to call `onlyOwner` functions anymore. Can only be called by the current owner. NOTE: Renouncing ownership will leave the contract without an owner, thereby removing any functionality that is only available to the owner."
      },
      "safeTransferFrom(address,address,uint256)": {
        "details": "See {IERC721-safeTransferFrom}."
      },
      "safeTransferFrom(address,address,uint256,bytes)": {
        "details": "See {IERC721-safeTransferFrom}."
      },
      "setApprovalForAll(address,bool)": {
        "details": "See {IERC721-setApprovalForAll}."
      },
      "supportsInterface(bytes4)": {
        "details": "See {IERC165-supportsInterface}."
      },
      "symbol()": {
        "details": "See {IERC721Metadata-symbol}."
      },
      "tokenURI(uint256)": {
        "details": "See {IERC721Metadata-tokenURI}."
      },
      "transferFrom(address,address,uint256)": {
        "details": "See {IERC721-transferFrom}."
      },
      "transferOwnership(address)": {
        "details": "Transfers ownership of the contract to a new account (`newOwner`). Can only be called by the current owner."
      }
    },
    "version": 1
  },
  "userdoc": {
    "kind": "user",
    "methods": {},
    "version": 1
  }
}