{
  "contractName": "ShibaWars",
  "abi": [
    {
      "inputs": [],
      "stateMutability": "nonpayable",
      "type": "constructor"
    },
    {
      "anonymous": false,
      "inputs": [
        {
          "indexed": true,
          "internalType": "address",
          "name": "owner",
          "type": "address"
        },
        {
          "indexed": true,
          "internalType": "address",
          "name": "approved",
          "type": "address"
        },
        {
          "indexed": true,
          "internalType": "uint256",
          "name": "tokenId",
          "type": "uint256"
        }
      ],
      "name": "Approval",
      "type": "event"
    },
    {
      "anonymous": false,
      "inputs": [
        {
          "indexed": true,
          "internalType": "address",
          "name": "owner",
          "type": "address"
        },
        {
          "indexed": true,
          "internalType": "address",
          "name": "operator",
          "type": "address"
        },
        {
          "indexed": false,
          "internalType": "bool",
          "name": "approved",
          "type": "bool"
        }
      ],
      "name": "ApprovalForAll",
      "type": "event"
    },
    {
      "anonymous": false,
      "inputs": [
        {
          "indexed": true,
          "internalType": "address",
          "name": "previousOwner",
          "type": "address"
        },
        {
          "indexed": true,
          "internalType": "address",
          "name": "newOwner",
          "type": "address"
        }
      ],
      "name": "OwnershipTransferred",
      "type": "event"
    },
    {
      "anonymous": false,
      "inputs": [
        {
          "indexed": true,
          "internalType": "address",
          "name": "from",
          "type": "address"
        },
        {
          "indexed": true,
          "internalType": "address",
          "name": "to",
          "type": "address"
        },
        {
          "indexed": true,
          "internalType": "uint256",
          "name": "tokenId",
          "type": "uint256"
        }
      ],
      "name": "Transfer",
      "type": "event"
    },
    {
      "inputs": [
        {
          "internalType": "address",
          "name": "to",
          "type": "address"
        },
        {
          "internalType": "uint256",
          "name": "tokenId",
          "type": "uint256"
        }
      ],
      "name": "approve",
      "outputs": [],
      "stateMutability": "nonpayable",
      "type": "function"
    },
    {
      "inputs": [
        {
          "internalType": "address",
          "name": "owner",
          "type": "address"
        }
      ],
      "name": "balanceOf",
      "outputs": [
        {
          "internalType": "uint256",
          "name": "",
          "type": "uint256"
        }
      ],
      "stateMutability": "view",
      "type": "function",
      "constant": true
    },
    {
      "inputs": [
        {
          "internalType": "uint256",
          "name": "tokenId",
          "type": "uint256"
        }
      ],
      "name": "burn",
      "outputs": [],
      "stateMutability": "nonpayable",
      "type": "function"
    },
    {
      "inputs": [
        {
          "internalType": "uint256",
          "name": "tokenId",
          "type": "uint256"
        }
      ],
      "name": "getApproved",
      "outputs": [
        {
          "internalType": "address",
          "name": "",
          "type": "address"
        }
      ],
      "stateMutability": "view",
      "type": "function",
      "constant": true
    },
    {
      "inputs": [
        {
          "internalType": "address",
          "name": "owner",
          "type": "address"
        },
        {
          "internalType": "address",
          "name": "operator",
          "type": "address"
        }
      ],
      "name": "isApprovedForAll",
      "outputs": [
        {
          "internalType": "bool",
          "name": "",
          "type": "bool"
        }
      ],
      "stateMutability": "view",
      "type": "function",
      "constant": true
    },
    {
      "inputs": [],
      "name": "name",
      "outputs": [
        {
          "internalType": "string",
          "name": "",
          "type": "string"
        }
      ],
      "stateMutability": "view",
      "type": "function",
      "constant": true
    },
    {
      "inputs": [],
      "name": "owner",
      "outputs": [
        {
          "internalType": "address",
          "name": "",
          "type": "address"
        }
      ],
      "stateMutability": "view",
      "type": "function",
      "constant": true
    },
    {
      "inputs": [
        {
          "internalType": "uint256",
          "name": "tokenId",
          "type": "uint256"
        }
      ],
      "name": "ownerOf",
      "outputs": [
        {
          "internalType": "address",
          "name": "",
          "type": "address"
        }
      ],
      "stateMutability": "view",
      "type": "function",
      "constant": true
    },
    {
      "inputs": [],
      "name": "renounceOwnership",
      "outputs": [],
      "stateMutability": "nonpayable",
      "type": "function"
    },
    {
      "inputs": [
        {
          "internalType": "address",
          "name": "from",
          "type": "address"
        },
        {
          "internalType": "address",
          "name": "to",
          "type": "address"
        },
        {
          "internalType": "uint256",
          "name": "tokenId",
          "type": "uint256"
        }
      ],
      "name": "safeTransferFrom",
      "outputs": [],
      "stateMutability": "nonpayable",
      "type": "function"
    },
    {
      "inputs": [
        {
          "internalType": "address",
          "name": "from",
          "type": "address"
        },
        {
          "internalType": "address",
          "name": "to",
          "type": "address"
        },
        {
          "internalType": "uint256",
          "name": "tokenId",
          "type": "uint256"
        },
        {
          "internalType": "bytes",
          "name": "_data",
          "type": "bytes"
        }
      ],
      "name": "safeTransferFrom",
      "outputs": [],
      "stateMutability": "nonpayable",
      "type": "function"
    },
    {
      "inputs": [
        {
          "internalType": "address",
          "name": "operator",
          "type": "address"
        },
        {
          "internalType": "bool",
          "name": "approved",
          "type": "bool"
        }
      ],
      "name": "setApprovalForAll",
      "outputs": [],
      "stateMutability": "nonpayable",
      "type": "function"
    },
    {
      "inputs": [
        {
          "internalType": "bytes4",
          "name": "interfaceId",
          "type": "bytes4"
        }
      ],
      "name": "supportsInterface",
      "outputs": [
        {
          "internalType": "bool",
          "name": "",
          "type": "bool"
        }
      ],
      "stateMutability": "view",
      "type": "function",
      "constant": true
    },
    {
      "inputs": [],
      "name": "symbol",
      "outputs": [
        {
          "internalType": "string",
          "name": "",
          "type": "string"
        }
      ],
      "stateMutability": "view",
      "type": "function",
      "constant": true
    },
    {
      "inputs": [
        {
          "internalType": "uint256",
          "name": "tokenId",
          "type": "uint256"
        }
      ],
      "name": "tokenURI",
      "outputs": [
        {
          "internalType": "string",
          "name": "",
          "type": "string"
        }
      ],
      "stateMutability": "view",
      "type": "function",
      "constant": true
    },
    {
      "inputs": [
        {
          "internalType": "address",
          "name": "from",
          "type": "address"
        },
        {
          "internalType": "address",
          "name": "to",
          "type": "address"
        },
        {
          "internalType": "uint256",
          "name": "tokenId",
          "type": "uint256"
        }
      ],
      "name": "transferFrom",
      "outputs": [],
      "stateMutability": "nonpayable",
      "type": "function"
    },
    {
      "inputs": [
        {
          "internalType": "address",
          "name": "newOwner",
          "type": "address"
        }
      ],
      "name": "transferOwnership",
      "outputs": [],
      "stateMutability": "nonpayable",
      "type": "function"
    },
    {
      "inputs": [],
      "name": "initialMint",
      "outputs": [],
      "stateMutability": "nonpayable",
      "type": "function"
    },
    {
      "inputs": [
        {
          "internalType": "uint256",
          "name": "tokenId",
          "type": "uint256"
        }
      ],
      "name": "canFight",
      "outputs": [
        {
          "internalType": "bool",
          "name": "",
          "type": "bool"
        }
      ],
      "stateMutability": "view",
      "type": "function",
      "constant": true
    },
    {
      "inputs": [
        {
          "internalType": "uint256",
          "name": "id",
          "type": "uint256"
        }
      ],
      "name": "levelUpCost",
      "outputs": [
        {
          "internalType": "uint256",
          "name": "",
          "type": "uint256"
        }
      ],
      "stateMutability": "view",
      "type": "function",
      "constant": true
    },
    {
      "inputs": [
        {
          "internalType": "uint256",
          "name": "id",
          "type": "uint256"
        }
      ],
      "name": "getMaxHp",
      "outputs": [
        {
          "internalType": "uint256",
          "name": "",
          "type": "uint256"
        }
      ],
      "stateMutability": "view",
      "type": "function",
      "constant": true
    },
    {
      "inputs": [
        {
          "internalType": "uint256",
          "name": "id",
          "type": "uint256"
        }
      ],
      "name": "getArmor",
      "outputs": [
        {
          "internalType": "uint256",
          "name": "",
          "type": "uint256"
        }
      ],
      "stateMutability": "view",
      "type": "function",
      "constant": true
    },
    {
      "inputs": [
        {
          "internalType": "uint256",
          "name": "id",
          "type": "uint256"
        }
      ],
      "name": "getAim",
      "outputs": [
        {
          "internalType": "uint256",
          "name": "",
          "type": "uint256"
        }
      ],
      "stateMutability": "view",
      "type": "function",
      "constant": true
    },
    {
      "inputs": [
        {
          "internalType": "uint256",
          "name": "id",
          "type": "uint256"
        }
      ],
      "name": "getDodge",
      "outputs": [
        {
          "internalType": "uint256",
          "name": "",
          "type": "uint256"
        }
      ],
      "stateMutability": "view",
      "type": "function",
      "constant": true
    },
    {
      "inputs": [
        {
          "internalType": "uint256",
          "name": "id",
          "type": "uint256"
        }
      ],
      "name": "getCritAim",
      "outputs": [
        {
          "internalType": "uint256",
          "name": "",
          "type": "uint256"
        }
      ],
      "stateMutability": "view",
      "type": "function",
      "constant": true
    },
    {
      "inputs": [
        {
          "internalType": "uint256",
          "name": "id",
          "type": "uint256"
        }
      ],
      "name": "getCritDodge",
      "outputs": [
        {
          "internalType": "uint256",
          "name": "",
          "type": "uint256"
        }
      ],
      "stateMutability": "view",
      "type": "function",
      "constant": true
    },
    {
      "inputs": [
        {
          "internalType": "uint256",
          "name": "id",
          "type": "uint256"
        }
      ],
      "name": "getMinDamage",
      "outputs": [
        {
          "internalType": "uint256",
          "name": "",
          "type": "uint256"
        }
      ],
      "stateMutability": "view",
      "type": "function",
      "constant": true
    },
    {
      "inputs": [
        {
          "internalType": "uint256",
          "name": "id",
          "type": "uint256"
        }
      ],
      "name": "getMaxDamage",
      "outputs": [
        {
          "internalType": "uint256",
          "name": "",
          "type": "uint256"
        }
      ],
      "stateMutability": "view",
      "type": "function",
      "constant": true
    },
    {
      "inputs": [
        {
          "internalType": "address",
          "name": "user",
          "type": "address"
        }
      ],
      "name": "getUserTokens",
      "outputs": [
        {
          "internalType": "uint256[]",
          "name": "",
          "type": "uint256[]"
        }
      ],
      "stateMutability": "view",
      "type": "function",
      "constant": true
    },
    {
      "inputs": [
        {
          "internalType": "address",
          "name": "user",
          "type": "address"
        }
      ],
      "name": "userPowerTreatTokens",
      "outputs": [
        {
          "internalType": "uint256",
          "name": "",
          "type": "uint256"
        }
      ],
      "stateMutability": "view",
      "type": "function",
      "constant": true
    },
    {
      "inputs": [
        {
          "internalType": "address",
          "name": "user",
          "type": "address"
        }
      ],
      "name": "userShibBalance",
      "outputs": [
        {
          "internalType": "uint256",
          "name": "",
          "type": "uint256"
        }
      ],
      "stateMutability": "view",
      "type": "function",
      "constant": true
    },
    {
      "inputs": [
        {
          "internalType": "uint256",
          "name": "id",
          "type": "uint256"
        }
      ],
      "name": "getTokenDetails",
      "outputs": [
        {
          "components": [
            {
              "internalType": "uint256",
              "name": "strength",
              "type": "uint256"
            },
            {
              "internalType": "uint256",
              "name": "agility",
              "type": "uint256"
            },
            {
              "internalType": "uint256",
              "name": "dexterity",
              "type": "uint256"
            },
            {
              "internalType": "uint256",
              "name": "strengthGain",
              "type": "uint256"
            },
            {
              "internalType": "uint256",
              "name": "agilityGain",
              "type": "uint256"
            },
            {
              "internalType": "uint256",
              "name": "dexterityGain",
              "type": "uint256"
            },
            {
              "internalType": "uint256",
              "name": "level",
              "type": "uint256"
            },
            {
              "internalType": "uint256",
              "name": "arenaScore",
              "type": "uint256"
            },
            {
              "internalType": "uint256",
              "name": "tokenId",
              "type": "uint256"
            },
            {
              "internalType": "string",
              "name": "name",
              "type": "string"
            },
            {
              "internalType": "string",
              "name": "description",
              "type": "string"
            },
            {
              "internalType": "uint256",
              "name": "hitPoints",
              "type": "uint256"
            },
            {
              "internalType": "enum ShibaWars.ATTRIBUTE",
              "name": "primary",
              "type": "uint8"
            }
          ],
          "internalType": "struct ShibaWars.Shiba",
          "name": "",
          "type": "tuple"
        }
      ],
      "stateMutability": "view",
      "type": "function",
      "constant": true
    },
    {
      "inputs": [
        {
          "internalType": "uint256",
          "name": "tokenId",
          "type": "uint256"
        }
      ],
      "name": "buyShiba",
      "outputs": [],
      "stateMutability": "nonpayable",
      "type": "function"
    },
    {
      "inputs": [
        {
          "internalType": "uint256",
          "name": "id",
          "type": "uint256"
        }
      ],
      "name": "levelUp",
      "outputs": [],
      "stateMutability": "nonpayable",
      "type": "function"
    },
    {
      "inputs": [
        {
          "internalType": "uint256",
          "name": "id",
          "type": "uint256"
        }
      ],
      "name": "openPack",
      "outputs": [],
      "stateMutability": "nonpayable",
      "type": "function"
    }
  ],
  "bytecode": "0x608060405260006007553480156200001657600080fd5b506040518060400160405280600981526020017f53686962615761727300000000000000000000000000000000000000000000008152506040518060400160405280600581526020017f534849425700000000000000000000000000000000000000000000000000000081525081600090805190602001906200009b92919062000176565b508060019080519060200190620000b492919062000176565b5050506000620000c96200016e60201b60201c565b905080600660006101000a81548173ffffffffffffffffffffffffffffffffffffffff021916908373ffffffffffffffffffffffffffffffffffffffff1602179055508073ffffffffffffffffffffffffffffffffffffffff16600073ffffffffffffffffffffffffffffffffffffffff167f8be0079c531659141344cd1fd0a4f28419497f9722a3daafe3b4186f6b6457e060405160405180910390a3506200028b565b600033905090565b828054620001849062000226565b90600052602060002090601f016020900481019282620001a85760008555620001f4565b82601f10620001c357805160ff1916838001178555620001f4565b82800160010185558215620001f4579182015b82811115620001f3578251825591602001919060010190620001d6565b5b50905062000203919062000207565b5090565b5b808211156200022257600081600090555060010162000208565b5090565b600060028204905060018216806200023f57607f821691505b602082108114156200025657620002556200025c565b5b50919050565b7f4e487b7100000000000000000000000000000000000000000000000000000000600052602260045260246000fd5b615617806200029b6000396000f3fe608060405234801561001057600080fd5b50600436106102115760003560e01c80636352211e11610125578063b2bdfc16116100ad578063c87b56dd1161007c578063c87b56dd14610680578063df34dd22146106b0578063e985e9c5146106e0578063f2fde38b14610710578063f95163e91461072c57610211565b8063b2bdfc16146105d4578063b88d4fde14610604578063c1e0372814610620578063c62d25441461065057610211565b806392731858116100f4578063927318581461054457806395d89b41146105605780639fc5ce2a1461057e578063a22cb46514610588578063a22fb0b5146105a457610211565b80636352211e146104bc57806370a08231146104ec578063715018a61461051c5780638da5cb5b1461052657610211565b80631c69adde116101a857806342842e0e1161017757806342842e0e1461040857806342966c681461042457806350a88c7e14610440578063519dc8d21461045c5780635a8cedab1461048c57610211565b80631c69adde1461035c578063233573b41461038c57806323b872dd146103bc5780633c57c075146103d857610211565b80630b4e96b7116101e45780630b4e96b7146102b05780630ba2ad00146102e05780630ce90ec21461031057806311d2b6b41461032c57610211565b806301ffc9a71461021657806306fdde0314610246578063081812fc14610264578063095ea7b314610294575b600080fd5b610230600480360381019061022b9190613e72565b61075c565b60405161023d9190614cfc565b60405180910390f35b61024e61083e565b60405161025b9190614d17565b60405180910390f35b61027e60048036038101906102799190613f05565b6108d0565b60405161028b9190614bea565b60405180910390f35b6102ae60048036038101906102a99190613e0d565b610955565b005b6102ca60048036038101906102c59190613f05565b610a6d565b6040516102d79190615096565b60405180910390f35b6102fa60048036038101906102f59190613f05565b610a99565b6040516103079190615096565b60405180910390f35b61032a60048036038101906103259190613f05565b610ab7565b005b61034660048036038101906103419190613f05565b610dcd565b6040516103539190615096565b60405180910390f35b61037660048036038101906103719190613f05565b610df9565b6040516103839190615096565b60405180910390f35b6103a660048036038101906103a19190613f05565b610e19565b6040516103b39190614cfc565b60405180910390f35b6103d660048036038101906103d19190613d07565b610ed4565b005b6103f260048036038101906103ed9190613f05565b610f34565b6040516103ff9190615096565b60405180910390f35b610422600480360381019061041d9190613d07565b610f54565b005b61043e60048036038101906104399190613f05565b610f74565b005b61045a60048036038101906104559190613f05565b610fd0565b005b61047660048036038101906104719190613ca2565b6111c4565b6040516104839190614cda565b60405180910390f35b6104a660048036038101906104a19190613f05565b611393565b6040516104b39190615096565b60405180910390f35b6104d660048036038101906104d19190613f05565b6113bf565b6040516104e39190614bea565b60405180910390f35b61050660048036038101906105019190613ca2565b611471565b6040516105139190615096565b60405180910390f35b610524611529565b005b61052e611666565b60405161053b9190614bea565b60405180910390f35b61055e60048036038101906105599190613f05565b611690565b005b610568611b7d565b6040516105759190614d17565b60405180910390f35b610586611c0f565b005b6105a2600480360381019061059d9190613dd1565b611de2565b005b6105be60048036038101906105b99190613ca2565b611f63565b6040516105cb9190615096565b60405180910390f35b6105ee60048036038101906105e99190613f05565b612009565b6040516105fb9190615096565b60405180910390f35b61061e60048036038101906106199190613d56565b61201b565b005b61063a60048036038101906106359190613f05565b61207d565b6040516106479190615059565b60405180910390f35b61066a60048036038101906106659190613ca2565b6122ba565b6040516106779190615096565b60405180910390f35b61069a60048036038101906106959190613f05565b612365565b6040516106a79190614d17565b60405180910390f35b6106ca60048036038101906106c59190613f05565b61240c565b6040516106d79190615096565b60405180910390f35b6106fa60048036038101906106f59190613ccb565b612434565b6040516107079190614cfc565b60405180910390f35b61072a60048036038101906107259190613ca2565b6124c8565b005b61074660048036038101906107419190613f05565b612674565b6040516107539190615096565b60405180910390f35b60007f80ac58cd000000000000000000000000000000000000000000000000000000007bffffffffffffffffffffffffffffffffffffffffffffffffffffffff1916827bffffffffffffffffffffffffffffffffffffffffffffffffffffffff1916148061082757507f5b5e139f000000000000000000000000000000000000000000000000000000007bffffffffffffffffffffffffffffffffffffffffffffffffffffffff1916827bffffffffffffffffffffffffffffffffffffffffffffffffffffffff1916145b806108375750610836826126a0565b5b9050919050565b60606000805461084d906153bf565b80601f0160208091040260200160405190810160405280929190818152602001828054610879906153bf565b80156108c65780601f1061089b576101008083540402835291602001916108c6565b820191906000526020600020905b8154815290600101906020018083116108a957829003601f168201915b5050505050905090565b60006108db8261270a565b61091a576040517f08c379a000000000000000000000000000000000000000000000000000000000815260040161091190614f39565b60405180910390fd5b6004600083815260200190815260200160002060009054906101000a900473ffffffffffffffffffffffffffffffffffffffff169050919050565b6000610960826113bf565b90508073ffffffffffffffffffffffffffffffffffffffff168373ffffffffffffffffffffffffffffffffffffffff1614156109d1576040517f08c379a00000000000000000000000000000000000000000000000000000000081526004016109c890614fd9565b60405180910390fd5b8073ffffffffffffffffffffffffffffffffffffffff166109f0612776565b73ffffffffffffffffffffffffffffffffffffffff161480610a1f5750610a1e81610a19612776565b612434565b5b610a5e576040517f08c379a0000000000000000000000000000000000000000000000000000000008152600401610a5590614e59565b60405180910390fd5b610a68838361277e565b505050565b600060056008600084815260200190815260200160002060010154610a9291906151cf565b9050919050565b6000610aa482612837565b6003610ab09190615256565b9050919050565b3373ffffffffffffffffffffffffffffffffffffffff16610ad7826113bf565b73ffffffffffffffffffffffffffffffffffffffff1614610b2d576040517f08c379a0000000000000000000000000000000000000000000000000000000008152600401610b2490615039565b60405180910390fd5b610b3681610f34565b610b3f336122ba565b1015610b80576040517f08c379a0000000000000000000000000000000000000000000000000000000008152600401610b7790614ef9565b60405180910390fd5b6000805b600754811015610cd557610b978161270a565b8015610bd657503373ffffffffffffffffffffffffffffffffffffffff16610bbe826113bf565b73ffffffffffffffffffffffffffffffffffffffff16145b8015610bf8575060116008600083815260200190815260200160002060080154145b15610caf578180610c08906153f1565b925050610c1481610f74565b6008600082815260200190815260200160002060008082016000905560018201600090556002820160009055600382016000905560048201600090556005820160009055600682016000905560078201600090556008820160009055600982016000610c8091906139bc565b600a82016000610c9091906139bc565b600b820160009055600c820160006101000a81549060ff021916905550505b610cb883610f34565b821415610cc457610cd5565b80610cce906153f1565b9050610b84565b506008600083815260200190815260200160002060060160008154610cf9906153f1565b919050819055506008600083815260200190815260200160002060030154600860008481526020019081526020016000206000016000828254610d3c91906151cf565b925050819055506008600083815260200190815260200160002060040154600860008481526020019081526020016000206001016000828254610d7f91906151cf565b925050819055506008600083815260200190815260200160002060050154600860008481526020019081526020016000206002016000828254610dc291906151cf565b925050819055505050565b600060056008600084815260200190815260200160002060010154610df291906151cf565b9050919050565b600060086000838152602001908152602001600020600001549050919050565b60008060086000848152602001908152602001600020600801549050600181118015610ecc5750600073__ShibaWarsFunctions____________________63772fb596836040518263ffffffff1660e01b8152600401610e79919061507b565b60206040518083038186803b158015610e9157600080fd5b505af4158015610ea5573d6000803e3d6000fd5b505050506040513d601f19601f82011682018060405250810190610ec99190613f2e565b14155b915050919050565b610ee5610edf612776565b826129cb565b610f24576040517f08c379a0000000000000000000000000000000000000000000000000000000008152600401610f1b90614ff9565b60405180910390fd5b610f2f838383612aa9565b505050565b600060086000838152602001908152602001600020600601549050919050565b610f6f8383836040518060200160405280600081525061201b565b505050565b610f85610f7f612776565b826129cb565b610fc4576040517f08c379a0000000000000000000000000000000000000000000000000000000008152600401610fbb90615019565b60405180910390fd5b610fcd81612d05565b50565b3373ffffffffffffffffffffffffffffffffffffffff16610ff0826113bf565b73ffffffffffffffffffffffffffffffffffffffff1614611046576040517f08c379a000000000000000000000000000000000000000000000000000000000815260040161103d90615039565b60405180910390fd5b60086000828152602001908152602001600020600080820160009055600182016000905560028201600090556003820160009055600482016000905560058201600090556006820160009055600782016000905560088201600090556009820160006110b291906139bc565b600a820160006110c291906139bc565b600b820160009055600c820160006101000a81549060ff021916905550506110e981610f74565b6000620186a04442604051602001611102929190614b70565b6040516020818303038152906040528051906020012060001c6111259190615444565b90506000600182101561113b57600290506111b6565b600b82101561114d57600e90506111b5565b606f82101561115f57600f90506111b4565b61045782101561117257601090506111b3565b61271082101561118557600990506111b2565b6161a882101561119857600a90506111b1565b61c3508210156111ab57600b90506111b0565b600c90505b5b5b5b5b5b5b6111bf81612e16565b505050565b606060006111d183611471565b9050600081141561125457600067ffffffffffffffff81111561121d577f4e487b7100000000000000000000000000000000000000000000000000000000600052604160045260246000fd5b60405190808252806020026020018201604052801561124b5781602001602082028036833780820191505090505b5091505061138e565b60008167ffffffffffffffff811115611296577f4e487b7100000000000000000000000000000000000000000000000000000000600052604160045260246000fd5b6040519080825280602002602001820160405280156112c45781602001602082028036833780820191505090505b5090506000805b600754811015611386576112de8161270a565b801561131d57508573ffffffffffffffffffffffffffffffffffffffff16611305826113bf565b73ffffffffffffffffffffffffffffffffffffffff16145b15611375578083838061132f906153f1565b945081518110611368577f4e487b7100000000000000000000000000000000000000000000000000000000600052603260045260246000fd5b6020026020010181815250505b8061137f906153f1565b90506112cb565b508193505050505b919050565b6000600560086000848152602001908152602001600020600201546113b891906151cf565b9050919050565b6000806002600084815260200190815260200160002060009054906101000a900473ffffffffffffffffffffffffffffffffffffffff169050600073ffffffffffffffffffffffffffffffffffffffff168173ffffffffffffffffffffffffffffffffffffffff161415611468576040517f08c379a000000000000000000000000000000000000000000000000000000000815260040161145f90614eb9565b60405180910390fd5b80915050919050565b60008073ffffffffffffffffffffffffffffffffffffffff168273ffffffffffffffffffffffffffffffffffffffff1614156114e2576040517f08c379a00000000000000000000000000000000000000000000000000000000081526004016114d990614e79565b60405180910390fd5b600360008373ffffffffffffffffffffffffffffffffffffffff1673ffffffffffffffffffffffffffffffffffffffff168152602001908152602001600020549050919050565b611531612776565b73ffffffffffffffffffffffffffffffffffffffff1661154f611666565b73ffffffffffffffffffffffffffffffffffffffff16146115a5576040517f08c379a000000000000000000000000000000000000000000000000000000000815260040161159c90614f59565b60405180910390fd5b600073ffffffffffffffffffffffffffffffffffffffff16600660009054906101000a900473ffffffffffffffffffffffffffffffffffffffff1673ffffffffffffffffffffffffffffffffffffffff167f8be0079c531659141344cd1fd0a4f28419497f9722a3daafe3b4186f6b6457e060405160405180910390a36000600660006101000a81548173ffffffffffffffffffffffffffffffffffffffff021916908373ffffffffffffffffffffffffffffffffffffffff160217905550565b6000600660009054906101000a900473ffffffffffffffffffffffffffffffffffffffff16905090565b600073__ShibaWarsFunctions____________________63c457fb37836040518263ffffffff1660e01b81526004016116c9919061507b565b60206040518083038186803b1580156116e157600080fd5b505af41580156116f5573d6000803e3d6000fd5b505050506040513d601f19601f820116820180604052508101906117199190613f2e565b90506000811161175e576040517f08c379a000000000000000000000000000000000000000000000000000000000815260040161175590614db9565b60405180910390fd5b8061176833611f63565b10156117a9576040517f08c379a00000000000000000000000000000000000000000000000000000000081526004016117a090614dd9565b60405180910390fd5b80736258d3497b01a273620ed138d4f214661a283eb473ffffffffffffffffffffffffffffffffffffffff1663dd62ed3e33306040518363ffffffff1660e01b81526004016117f9929190614c05565b60206040518083038186803b15801561181157600080fd5b505afa158015611825573d6000803e3d6000fd5b505050506040513d601f19601f820116820180604052508101906118499190613f2e565b101561188a576040517f08c379a000000000000000000000000000000000000000000000000000000000815260040161188190614d39565b60405180910390fd5b736258d3497b01a273620ed138d4f214661a283eb473ffffffffffffffffffffffffffffffffffffffff166323b872dd3330846040518463ffffffff1660e01b81526004016118db93929190614c2e565b602060405180830381600087803b1580156118f557600080fd5b505af1158015611909573d6000803e3d6000fd5b505050506040513d601f19601f8201168201806040525081019061192d9190613e49565b61196c576040517f08c379a000000000000000000000000000000000000000000000000000000000815260040161196390614ed9565b60405180910390fd5b736258d3497b01a273620ed138d4f214661a283eb473ffffffffffffffffffffffffffffffffffffffff166323b872dd3073c254ae8e61778c9d4f398984ca73b66cc6779ede6004856119bf9190615225565b6040518463ffffffff1660e01b81526004016119dd93929190614c2e565b602060405180830381600087803b1580156119f757600080fd5b505af1158015611a0b573d6000803e3d6000fd5b505050506040513d601f19601f82011682018060405250810190611a2f9190613e49565b611a6e576040517f08c379a0000000000000000000000000000000000000000000000000000000008152600401611a6590614fb9565b60405180910390fd5b736258d3497b01a273620ed138d4f214661a283eb473ffffffffffffffffffffffffffffffffffffffff166323b872dd3073967d2413a435fac414e20c2ca3719e97b43485bb600485611ac19190615225565b6040518463ffffffff1660e01b8152600401611adf93929190614c2e565b602060405180830381600087803b158015611af957600080fd5b505af1158015611b0d573d6000803e3d6000fd5b505050506040513d601f19601f82011682018060405250810190611b319190613e49565b611b70576040517f08c379a0000000000000000000000000000000000000000000000000000000008152600401611b6790614e99565b60405180910390fd5b611b7982612e16565b5050565b606060018054611b8c906153bf565b80601f0160208091040260200160405190810160405280929190818152602001828054611bb8906153bf565b8015611c055780601f10611bda57610100808354040283529160200191611c05565b820191906000526020600020905b815481529060010190602001808311611be857829003601f168201915b5050505050905090565b611c17612776565b73ffffffffffffffffffffffffffffffffffffffff16611c35611666565b73ffffffffffffffffffffffffffffffffffffffff1614611c8b576040517f08c379a0000000000000000000000000000000000000000000000000000000008152600401611c8290614f59565b60405180910390fd5b611c9c60006064806064600061306a565b611cad60016064806064600161306a565b736258d3497b01a273620ed138d4f214661a283eb473ffffffffffffffffffffffffffffffffffffffff1663095ea7b330736258d3497b01a273620ed138d4f214661a283eb473ffffffffffffffffffffffffffffffffffffffff166318160ddd6040518163ffffffff1660e01b815260040160206040518083038186803b158015611d3857600080fd5b505afa158015611d4c573d6000803e3d6000fd5b505050506040513d601f19601f82011682018060405250810190611d709190613f2e565b6040518363ffffffff1660e01b8152600401611d8d929190614cb1565b602060405180830381600087803b158015611da757600080fd5b505af1158015611dbb573d6000803e3d6000fd5b505050506040513d601f19601f82011682018060405250810190611ddf9190613e49565b50565b611dea612776565b73ffffffffffffffffffffffffffffffffffffffff168273ffffffffffffffffffffffffffffffffffffffff161415611e58576040517f08c379a0000000000000000000000000000000000000000000000000000000008152600401611e4f90614e19565b60405180910390fd5b8060056000611e65612776565b73ffffffffffffffffffffffffffffffffffffffff1673ffffffffffffffffffffffffffffffffffffffff16815260200190815260200160002060008473ffffffffffffffffffffffffffffffffffffffff1673ffffffffffffffffffffffffffffffffffffffff16815260200190815260200160002060006101000a81548160ff0219169083151502179055508173ffffffffffffffffffffffffffffffffffffffff16611f12612776565b73ffffffffffffffffffffffffffffffffffffffff167f17307eab39ab6107e8899845ad3d59bd9653f200f220920489ca2b5937696c3183604051611f579190614cfc565b60405180910390a35050565b6000736258d3497b01a273620ed138d4f214661a283eb473ffffffffffffffffffffffffffffffffffffffff166370a08231836040518263ffffffff1660e01b8152600401611fb29190614bea565b60206040518083038186803b158015611fca57600080fd5b505afa158015611fde573d6000803e3d6000fd5b505050506040513d601f19601f820116820180604052508101906120029190613f2e565b9050919050565b600061201482612837565b9050919050565b61202c612026612776565b836129cb565b61206b576040517f08c379a000000000000000000000000000000000000000000000000000000000815260040161206290614ff9565b60405180910390fd5b61207784848484613384565b50505050565b6120856139fc565b60086000838152602001908152602001600020604051806101a001604052908160008201548152602001600182015481526020016002820154815260200160038201548152602001600482015481526020016005820154815260200160068201548152602001600782015481526020016008820154815260200160098201805461210e906153bf565b80601f016020809104026020016040519081016040528092919081815260200182805461213a906153bf565b80156121875780601f1061215c57610100808354040283529160200191612187565b820191906000526020600020905b81548152906001019060200180831161216a57829003601f168201915b50505050508152602001600a820180546121a0906153bf565b80601f01602080910402602001604051908101604052809291908181526020018280546121cc906153bf565b80156122195780601f106121ee57610100808354040283529160200191612219565b820191906000526020600020905b8154815290600101906020018083116121fc57829003601f168201915b50505050508152602001600b8201548152602001600c820160009054906101000a900460ff166002811115612277577f4e487b7100000000000000000000000000000000000000000000000000000000600052602160045260246000fd5b60028111156122af577f4e487b7100000000000000000000000000000000000000000000000000000000600052602160045260246000fd5b815250509050919050565b6000806000905060005b60075481101561235b576122d78161270a565b801561231657508373ffffffffffffffffffffffffffffffffffffffff166122fe826113bf565b73ffffffffffffffffffffffffffffffffffffffff16145b8015612338575060116008600083815260200190815260200160002060080154145b1561234a5781612347906153f1565b91505b80612354906153f1565b90506122c4565b5080915050919050565b60606123708261270a565b6123af576040517f08c379a00000000000000000000000000000000000000000000000000000000081526004016123a690614f99565b60405180910390fd5b60006123b96133e0565b905060008151116123d95760405180602001604052806000815250612404565b806123e3846133f7565b6040516020016123f4929190614b4c565b6040516020818303038152906040525b915050919050565b600061242d60086000848152602001908152602001600020600001546135a4565b9050919050565b6000600560008473ffffffffffffffffffffffffffffffffffffffff1673ffffffffffffffffffffffffffffffffffffffff16815260200190815260200160002060008373ffffffffffffffffffffffffffffffffffffffff1673ffffffffffffffffffffffffffffffffffffffff16815260200190815260200160002060009054906101000a900460ff16905092915050565b6124d0612776565b73ffffffffffffffffffffffffffffffffffffffff166124ee611666565b73ffffffffffffffffffffffffffffffffffffffff1614612544576040517f08c379a000000000000000000000000000000000000000000000000000000000815260040161253b90614f59565b60405180910390fd5b600073ffffffffffffffffffffffffffffffffffffffff168173ffffffffffffffffffffffffffffffffffffffff1614156125b4576040517f08c379a00000000000000000000000000000000000000000000000000000000081526004016125ab90614d79565b60405180910390fd5b8073ffffffffffffffffffffffffffffffffffffffff16600660009054906101000a900473ffffffffffffffffffffffffffffffffffffffff1673ffffffffffffffffffffffffffffffffffffffff167f8be0079c531659141344cd1fd0a4f28419497f9722a3daafe3b4186f6b6457e060405160405180910390a380600660006101000a81548173ffffffffffffffffffffffffffffffffffffffff021916908373ffffffffffffffffffffffffffffffffffffffff16021790555050565b60006005600860008481526020019081526020016000206002015461269991906151cf565b9050919050565b60007f01ffc9a7000000000000000000000000000000000000000000000000000000007bffffffffffffffffffffffffffffffffffffffffffffffffffffffff1916827bffffffffffffffffffffffffffffffffffffffffffffffffffffffff1916149050919050565b60008073ffffffffffffffffffffffffffffffffffffffff166002600084815260200190815260200160002060009054906101000a900473ffffffffffffffffffffffffffffffffffffffff1673ffffffffffffffffffffffffffffffffffffffff1614159050919050565b600033905090565b816004600083815260200190815260200160002060006101000a81548173ffffffffffffffffffffffffffffffffffffffff021916908373ffffffffffffffffffffffffffffffffffffffff160217905550808273ffffffffffffffffffffffffffffffffffffffff166127f1836113bf565b73ffffffffffffffffffffffffffffffffffffffff167f8c5be1e5ebec7d5bd14f71427d1e84f3dd0314c0f7b2291e5b200ac8c7c3b92560405160405180910390a45050565b6000806002811115612872577f4e487b7100000000000000000000000000000000000000000000000000000000600052602160045260246000fd5b60086000848152602001908152602001600020600c0160009054906101000a900460ff1660028111156128ce577f4e487b7100000000000000000000000000000000000000000000000000000000600052602160045260246000fd5b14156128f257600860008381526020019081526020016000206000015490506129c6565b6001600281111561292c577f4e487b7100000000000000000000000000000000000000000000000000000000600052602160045260246000fd5b60086000848152602001908152602001600020600c0160009054906101000a900460ff166002811115612988577f4e487b7100000000000000000000000000000000000000000000000000000000600052602160045260246000fd5b14156129ac57600860008381526020019081526020016000206001015490506129c6565b600860008381526020019081526020016000206002015490505b919050565b60006129d68261270a565b612a15576040517f08c379a0000000000000000000000000000000000000000000000000000000008152600401612a0c90614e39565b60405180910390fd5b6000612a20836113bf565b90508073ffffffffffffffffffffffffffffffffffffffff168473ffffffffffffffffffffffffffffffffffffffff161480612a8f57508373ffffffffffffffffffffffffffffffffffffffff16612a77846108d0565b73ffffffffffffffffffffffffffffffffffffffff16145b80612aa05750612a9f8185612434565b5b91505092915050565b8273ffffffffffffffffffffffffffffffffffffffff16612ac9826113bf565b73ffffffffffffffffffffffffffffffffffffffff1614612b1f576040517f08c379a0000000000000000000000000000000000000000000000000000000008152600401612b1690614f79565b60405180910390fd5b600073ffffffffffffffffffffffffffffffffffffffff168273ffffffffffffffffffffffffffffffffffffffff161415612b8f576040517f08c379a0000000000000000000000000000000000000000000000000000000008152600401612b8690614df9565b60405180910390fd5b612b9a8383836135c6565b612ba560008261277e565b6001600360008573ffffffffffffffffffffffffffffffffffffffff1673ffffffffffffffffffffffffffffffffffffffff1681526020019081526020016000206000828254612bf591906152b0565b925050819055506001600360008473ffffffffffffffffffffffffffffffffffffffff1673ffffffffffffffffffffffffffffffffffffffff1681526020019081526020016000206000828254612c4c91906151cf565b92505081905550816002600083815260200190815260200160002060006101000a81548173ffffffffffffffffffffffffffffffffffffffff021916908373ffffffffffffffffffffffffffffffffffffffff160217905550808273ffffffffffffffffffffffffffffffffffffffff168473ffffffffffffffffffffffffffffffffffffffff167fddf252ad1be2c89b69c2b068fc378daa952ba7f163c4a11628f55a4df523b3ef60405160405180910390a4505050565b6000612d10826113bf565b9050612d1e816000846135c6565b612d2960008361277e565b6001600360008373ffffffffffffffffffffffffffffffffffffffff1673ffffffffffffffffffffffffffffffffffffffff1681526020019081526020016000206000828254612d7991906152b0565b925050819055506002600083815260200190815260200160002060006101000a81549073ffffffffffffffffffffffffffffffffffffffff021916905581600073ffffffffffffffffffffffffffffffffffffffff168273ffffffffffffffffffffffffffffffffffffffff167fddf252ad1be2c89b69c2b068fc378daa952ba7f163c4a11628f55a4df523b3ef60405160405180910390a45050565b600073__ShibaWarsFunctions____________________63772fb596836040518263ffffffff1660e01b8152600401612e4f919061507b565b60206040518083038186803b158015612e6757600080fd5b505af4158015612e7b573d6000803e3d6000fd5b505050506040513d601f19601f82011682018060405250810190612e9f9190613f2e565b905060008160064442604051602001612eb9929190614b70565b6040516020818303038152906040528051906020012060001c612edc9190615444565b612ee69190615256565b82600a612ef39190615256565b612efd91906151cf565b905060008260068542604051602001612f17929190614b70565b6040516020818303038152906040528051906020012060001c612f3a9190615444565b612f449190615256565b83600a612f519190615256565b612f5b91906151cf565b905060008360064487604051602001612f75929190614b70565b6040516020818303038152906040528051906020012060001c612f989190615444565b612fa29190615256565b84600a612faf9190615256565b612fb991906151cf565b90506000600384848442604051602001612fd69493929190614b9c565b6040516020818303038152906040528051906020012060001c612ff99190615444565b905060008082141561300e5760009050613030565b6001821415613020576001905061302f565b600282141561302e57600290505b5b5b613061876064876130419190615225565b60648761304e9190615225565b60648761305b9190615225565b8561306a565b50505050505050565b604051806101a00160405280600a866130839190615256565b8152602001600a856130959190615256565b8152602001600a846130a79190615256565b8152602001858152602001848152602001838152602001600181526020016000815260200186815260200173__ShibaWarsFunctions____________________636b8ff574886040518263ffffffff1660e01b8152600401613109919061507b565b60006040518083038186803b15801561312157600080fd5b505af4158015613135573d6000803e3d6000fd5b505050506040513d6000823e3d601f19601f8201168201806040525081019061315e9190613ec4565b815260200173__ShibaWarsFunctions____________________634925ec55886040518263ffffffff1660e01b815260040161319a919061507b565b60006040518083038186803b1580156131b257600080fd5b505af41580156131c6573d6000803e3d6000fd5b505050506040513d6000823e3d601f19601f820116820180604052508101906131ef9190613ec4565b8152602001613209600a876132049190615256565b6135a4565b8152602001826002811115613247577f4e487b7100000000000000000000000000000000000000000000000000000000600052602160045260246000fd5b815250600860006007548152602001908152602001600020600082015181600001556020820151816001015560408201518160020155606082015181600301556080820151816004015560a0820151816005015560c0820151816006015560e0820151816007015561010082015181600801556101208201518160090190805190602001906132d7929190613a9c565b5061014082015181600a0190805190602001906132f5929190613a9c565b5061016082015181600b015561018082015181600c0160006101000a81548160ff02191690836002811115613353577f4e487b7100000000000000000000000000000000000000000000000000000000600052602160045260246000fd5b0217905550905050613367336007546135cb565b600760008154613376906153f1565b919050819055505050505050565b61338f848484612aa9565b61339b848484846135e9565b6133da576040517f08c379a00000000000000000000000000000000000000000000000000000000081526004016133d190614d59565b60405180910390fd5b50505050565b606060405180602001604052806000815250905090565b6060600082141561343f576040518060400160405280600181526020017f3000000000000000000000000000000000000000000000000000000000000000815250905061359f565b600082905060005b6000821461347157808061345a906153f1565b915050600a8261346a9190615225565b9150613447565b60008167ffffffffffffffff8111156134b3577f4e487b7100000000000000000000000000000000000000000000000000000000600052604160045260246000fd5b6040519080825280601f01601f1916602001820160405280156134e55781602001600182028036833780820191505090505b5090505b60008514613598576001826134fe91906152b0565b9150600a8561350d9190615444565b603061351991906151cf565b60f81b818381518110613555577f4e487b7100000000000000000000000000000000000000000000000000000000600052603260045260246000fd5b60200101907effffffffffffffffffffffffffffffffffffffffffffffffffffffffffffff1916908160001a905350600a856135919190615225565b94506134e9565b8093505050505b919050565b60006005826135b39190615256565b60326135bf91906151cf565b9050919050565b505050565b6135e5828260405180602001604052806000815250613780565b5050565b600061360a8473ffffffffffffffffffffffffffffffffffffffff166137db565b15613773578373ffffffffffffffffffffffffffffffffffffffff1663150b7a02613633612776565b8786866040518563ffffffff1660e01b81526004016136559493929190614c65565b602060405180830381600087803b15801561366f57600080fd5b505af19250505080156136a057506040513d601f19601f8201168201806040525081019061369d9190613e9b565b60015b613723573d80600081146136d0576040519150601f19603f3d011682016040523d82523d6000602084013e6136d5565b606091505b5060008151141561371b576040517f08c379a000000000000000000000000000000000000000000000000000000000815260040161371290614d59565b60405180910390fd5b805181602001fd5b63150b7a0260e01b7bffffffffffffffffffffffffffffffffffffffffffffffffffffffff1916817bffffffffffffffffffffffffffffffffffffffffffffffffffffffff191614915050613778565b600190505b949350505050565b61378a83836137ee565b61379760008484846135e9565b6137d6576040517f08c379a00000000000000000000000000000000000000000000000000000000081526004016137cd90614d59565b60405180910390fd5b505050565b600080823b905060008111915050919050565b600073ffffffffffffffffffffffffffffffffffffffff168273ffffffffffffffffffffffffffffffffffffffff16141561385e576040517f08c379a000000000000000000000000000000000000000000000000000000000815260040161385590614f19565b60405180910390fd5b6138678161270a565b156138a7576040517f08c379a000000000000000000000000000000000000000000000000000000000815260040161389e90614d99565b60405180910390fd5b6138b3600083836135c6565b6001600360008473ffffffffffffffffffffffffffffffffffffffff1673ffffffffffffffffffffffffffffffffffffffff168152602001908152602001600020600082825461390391906151cf565b92505081905550816002600083815260200190815260200160002060006101000a81548173ffffffffffffffffffffffffffffffffffffffff021916908373ffffffffffffffffffffffffffffffffffffffff160217905550808273ffffffffffffffffffffffffffffffffffffffff16600073ffffffffffffffffffffffffffffffffffffffff167fddf252ad1be2c89b69c2b068fc378daa952ba7f163c4a11628f55a4df523b3ef60405160405180910390a45050565b5080546139c8906153bf565b6000825580601f106139da57506139f9565b601f0160209004906000526020600020908101906139f89190613b22565b5b50565b604051806101a0016040528060008152602001600081526020016000815260200160008152602001600081526020016000815260200160008152602001600081526020016000815260200160608152602001606081526020016000815260200160006002811115613a96577f4e487b7100000000000000000000000000000000000000000000000000000000600052602160045260246000fd5b81525090565b828054613aa8906153bf565b90600052602060002090601f016020900481019282613aca5760008555613b11565b82601f10613ae357805160ff1916838001178555613b11565b82800160010185558215613b11579182015b82811115613b10578251825591602001919060010190613af5565b5b509050613b1e9190613b22565b5090565b5b80821115613b3b576000816000905550600101613b23565b5090565b6000613b52613b4d846150e2565b6150b1565b905082815260208101848484011115613b6a57600080fd5b613b7584828561537d565b509392505050565b6000613b90613b8b84615112565b6150b1565b905082815260208101848484011115613ba857600080fd5b613bb384828561538c565b509392505050565b600081359050613bca81615585565b92915050565b600081359050613bdf8161559c565b92915050565b600081519050613bf48161559c565b92915050565b600081359050613c09816155b3565b92915050565b600081519050613c1e816155b3565b92915050565b600082601f830112613c3557600080fd5b8135613c45848260208601613b3f565b91505092915050565b600082601f830112613c5f57600080fd5b8151613c6f848260208601613b7d565b91505092915050565b600081359050613c87816155ca565b92915050565b600081519050613c9c816155ca565b92915050565b600060208284031215613cb457600080fd5b6000613cc284828501613bbb565b91505092915050565b60008060408385031215613cde57600080fd5b6000613cec85828601613bbb565b9250506020613cfd85828601613bbb565b9150509250929050565b600080600060608486031215613d1c57600080fd5b6000613d2a86828701613bbb565b9350506020613d3b86828701613bbb565b9250506040613d4c86828701613c78565b9150509250925092565b60008060008060808587031215613d6c57600080fd5b6000613d7a87828801613bbb565b9450506020613d8b87828801613bbb565b9350506040613d9c87828801613c78565b925050606085013567ffffffffffffffff811115613db957600080fd5b613dc587828801613c24565b91505092959194509250565b60008060408385031215613de457600080fd5b6000613df285828601613bbb565b9250506020613e0385828601613bd0565b9150509250929050565b60008060408385031215613e2057600080fd5b6000613e2e85828601613bbb565b9250506020613e3f85828601613c78565b9150509250929050565b600060208284031215613e5b57600080fd5b6000613e6984828501613be5565b91505092915050565b600060208284031215613e8457600080fd5b6000613e9284828501613bfa565b91505092915050565b600060208284031215613ead57600080fd5b6000613ebb84828501613c0f565b91505092915050565b600060208284031215613ed657600080fd5b600082015167ffffffffffffffff811115613ef057600080fd5b613efc84828501613c4e565b91505092915050565b600060208284031215613f1757600080fd5b6000613f2584828501613c78565b91505092915050565b600060208284031215613f4057600080fd5b6000613f4e84828501613c8d565b91505092915050565b6000613f638383614b08565b60208301905092915050565b613f78816152e4565b82525050565b6000613f8982615152565b613f938185615180565b9350613f9e83615142565b8060005b83811015613fcf578151613fb68882613f57565b9750613fc183615173565b925050600181019050613fa2565b5085935050505092915050565b613fe5816152f6565b82525050565b6000613ff68261515d565b6140008185615191565b935061401081856020860161538c565b61401981615560565b840191505092915050565b61402d8161536b565b82525050565b600061403e82615168565b61404881856151a2565b935061405881856020860161538c565b61406181615560565b840191505092915050565b600061407782615168565b61408181856151b3565b935061409181856020860161538c565b61409a81615560565b840191505092915050565b60006140b082615168565b6140ba81856151c4565b93506140ca81856020860161538c565b80840191505092915050565b60006140e36027836151b3565b91507f536869626120576172733a20414c4c4f5720555320544f205350454e4420594f60008301527f55522053484942000000000000000000000000000000000000000000000000006020830152604082019050919050565b60006141496032836151b3565b91507f4552433732313a207472616e7366657220746f206e6f6e20455243373231526560008301527f63656976657220696d706c656d656e74657200000000000000000000000000006020830152604082019050919050565b60006141af6026836151b3565b91507f4f776e61626c653a206e6577206f776e657220697320746865207a65726f206160008301527f64647265737300000000000000000000000000000000000000000000000000006020830152604082019050919050565b6000614215601c836151b3565b91507f4552433732313a20746f6b656e20616c7265616479206d696e746564000000006000830152602082019050919050565b60006142556028836151b3565b91507f536869626120576172733a205448495320544f4b454e2043414e204e4f54204260008301527f4520424f554748540000000000000000000000000000000000000000000000006020830152604082019050919050565b60006142bb6025836151b3565b91507f536869626120576172733a20494e53554646494349454e54205348494220424160008301527f4c414e43450000000000000000000000000000000000000000000000000000006020830152604082019050919050565b60006143216024836151b3565b91507f4552433732313a207472616e7366657220746f20746865207a65726f2061646460008301527f72657373000000000000000000000000000000000000000000000000000000006020830152604082019050919050565b60006143876019836151b3565b91507f4552433732313a20617070726f766520746f2063616c6c6572000000000000006000830152602082019050919050565b60006143c7602c836151b3565b91507f4552433732313a206f70657261746f7220717565727920666f72206e6f6e657860008301527f697374656e7420746f6b656e00000000000000000000000000000000000000006020830152604082019050919050565b600061442d6038836151b3565b91507f4552433732313a20617070726f76652063616c6c6572206973206e6f74206f7760008301527f6e6572206e6f7220617070726f76656420666f7220616c6c00000000000000006020830152604082019050919050565b6000614493602a836151b3565b91507f4552433732313a2062616c616e636520717565727920666f7220746865207a6560008301527f726f2061646472657373000000000000000000000000000000000000000000006020830152604082019050919050565b60006144f9601f836151b3565b91507f536869626120576172733a2043616e206e6f742073656e6420746f20646576006000830152602082019050919050565b60006145396029836151b3565b91507f4552433732313a206f776e657220717565727920666f72206e6f6e657869737460008301527f656e7420746f6b656e00000000000000000000000000000000000000000000006020830152604082019050919050565b600061459f6039836151b3565b91507f536869626120576172733a2043616e206e6f74207472616e7366657220746f6b60008301527f656e7320746f2074686520736d61727420636f6e7472616374000000000000006020830152604082019050919050565b60006146056039836151b3565b91507f536869626120576172733a204e4f5420454e4f55474820504f5745522054524560008301527f41545320544f20555047524144452054484953205348494241000000000000006020830152604082019050919050565b600061466b6020836151b3565b91507f4552433732313a206d696e7420746f20746865207a65726f20616464726573736000830152602082019050919050565b60006146ab602c836151b3565b91507f4552433732313a20617070726f76656420717565727920666f72206e6f6e657860008301527f697374656e7420746f6b656e00000000000000000000000000000000000000006020830152604082019050919050565b60006147116020836151b3565b91507f4f776e61626c653a2063616c6c6572206973206e6f7420746865206f776e65726000830152602082019050919050565b60006147516029836151b3565b91507f4552433732313a207472616e73666572206f6620746f6b656e2074686174206960008301527f73206e6f74206f776e00000000000000000000000000000000000000000000006020830152604082019050919050565b60006147b7602f836151b3565b91507f4552433732314d657461646174613a2055524920717565727920666f72206e6f60008301527f6e6578697374656e7420746f6b656e00000000000000000000000000000000006020830152604082019050919050565b600061481d6018836151b3565b91507f536869626120576172733a2043616e206e6f74206275726e00000000000000006000830152602082019050919050565b600061485d6021836151b3565b91507f4552433732313a20617070726f76616c20746f2063757272656e74206f776e6560008301527f72000000000000000000000000000000000000000000000000000000000000006020830152604082019050919050565b60006148c36031836151b3565b91507f4552433732313a207472616e736665722063616c6c6572206973206e6f74206f60008301527f776e6572206e6f7220617070726f7665640000000000000000000000000000006020830152604082019050919050565b60006149296030836151b3565b91507f4552433732314275726e61626c653a2063616c6c6572206973206e6f74206f7760008301527f6e6572206e6f7220617070726f766564000000000000000000000000000000006020830152604082019050919050565b600061498f6025836151b3565b91507f536869626120576172733a20594f5520444f204e4f54204f574e20544849532060008301527f544f4b454e0000000000000000000000000000000000000000000000000000006020830152604082019050919050565b60006101a083016000830151614a016000860182614b08565b506020830151614a146020860182614b08565b506040830151614a276040860182614b08565b506060830151614a3a6060860182614b08565b506080830151614a4d6080860182614b08565b5060a0830151614a6060a0860182614b08565b5060c0830151614a7360c0860182614b08565b5060e0830151614a8660e0860182614b08565b50610100830151614a9b610100860182614b08565b50610120830151848203610120860152614ab58282614033565b915050610140830151848203610140860152614ad18282614033565b915050610160830151614ae8610160860182614b08565b50610180830151614afd610180860182614024565b508091505092915050565b614b1181615361565b82525050565b614b2081615361565b82525050565b614b2f81615361565b82525050565b614b46614b4182615361565b61543a565b82525050565b6000614b5882856140a5565b9150614b6482846140a5565b91508190509392505050565b6000614b7c8285614b35565b602082019150614b8c8284614b35565b6020820191508190509392505050565b6000614ba88287614b35565b602082019150614bb88286614b35565b602082019150614bc88285614b35565b602082019150614bd88284614b35565b60208201915081905095945050505050565b6000602082019050614bff6000830184613f6f565b92915050565b6000604082019050614c1a6000830185613f6f565b614c276020830184613f6f565b9392505050565b6000606082019050614c436000830186613f6f565b614c506020830185613f6f565b614c5d6040830184614b17565b949350505050565b6000608082019050614c7a6000830187613f6f565b614c876020830186613f6f565b614c946040830185614b17565b8181036060830152614ca68184613feb565b905095945050505050565b6000604082019050614cc66000830185613f6f565b614cd36020830184614b17565b9392505050565b60006020820190508181036000830152614cf48184613f7e565b905092915050565b6000602082019050614d116000830184613fdc565b92915050565b60006020820190508181036000830152614d31818461406c565b905092915050565b60006020820190508181036000830152614d52816140d6565b9050919050565b60006020820190508181036000830152614d728161413c565b9050919050565b60006020820190508181036000830152614d92816141a2565b9050919050565b60006020820190508181036000830152614db281614208565b9050919050565b60006020820190508181036000830152614dd281614248565b9050919050565b60006020820190508181036000830152614df2816142ae565b9050919050565b60006020820190508181036000830152614e1281614314565b9050919050565b60006020820190508181036000830152614e328161437a565b9050919050565b60006020820190508181036000830152614e52816143ba565b9050919050565b60006020820190508181036000830152614e7281614420565b9050919050565b60006020820190508181036000830152614e9281614486565b9050919050565b60006020820190508181036000830152614eb2816144ec565b9050919050565b60006020820190508181036000830152614ed28161452c565b9050919050565b60006020820190508181036000830152614ef281614592565b9050919050565b60006020820190508181036000830152614f12816145f8565b9050919050565b60006020820190508181036000830152614f328161465e565b9050919050565b60006020820190508181036000830152614f528161469e565b9050919050565b60006020820190508181036000830152614f7281614704565b9050919050565b60006020820190508181036000830152614f9281614744565b9050919050565b60006020820190508181036000830152614fb2816147aa565b9050919050565b60006020820190508181036000830152614fd281614810565b9050919050565b60006020820190508181036000830152614ff281614850565b9050919050565b60006020820190508181036000830152615012816148b6565b9050919050565b600060208201905081810360008301526150328161491c565b9050919050565b6000602082019050818103600083015261505281614982565b9050919050565b6000602082019050818103600083015261507381846149e8565b905092915050565b60006020820190506150906000830184614b26565b92915050565b60006020820190506150ab6000830184614b17565b92915050565b6000604051905081810181811067ffffffffffffffff821117156150d8576150d7615531565b5b8060405250919050565b600067ffffffffffffffff8211156150fd576150fc615531565b5b601f19601f8301169050602081019050919050565b600067ffffffffffffffff82111561512d5761512c615531565b5b601f19601f8301169050602081019050919050565b6000819050602082019050919050565b600081519050919050565b600081519050919050565b600081519050919050565b6000602082019050919050565b600082825260208201905092915050565b600082825260208201905092915050565b600082825260208201905092915050565b600082825260208201905092915050565b600081905092915050565b60006151da82615361565b91506151e583615361565b9250827fffffffffffffffffffffffffffffffffffffffffffffffffffffffffffffffff0382111561521a57615219615475565b5b828201905092915050565b600061523082615361565b915061523b83615361565b92508261524b5761524a6154a4565b5b828204905092915050565b600061526182615361565b915061526c83615361565b9250817fffffffffffffffffffffffffffffffffffffffffffffffffffffffffffffffff04831182151516156152a5576152a4615475565b5b828202905092915050565b60006152bb82615361565b91506152c683615361565b9250828210156152d9576152d8615475565b5b828203905092915050565b60006152ef82615341565b9050919050565b60008115159050919050565b60007fffffffff0000000000000000000000000000000000000000000000000000000082169050919050565b600081905061533c82615571565b919050565b600073ffffffffffffffffffffffffffffffffffffffff82169050919050565b6000819050919050565b60006153768261532e565b9050919050565b82818337600083830152505050565b60005b838110156153aa57808201518184015260208101905061538f565b838111156153b9576000848401525b50505050565b600060028204905060018216806153d757607f821691505b602082108114156153eb576153ea615502565b5b50919050565b60006153fc82615361565b91507fffffffffffffffffffffffffffffffffffffffffffffffffffffffffffffffff82141561542f5761542e615475565b5b600182019050919050565b6000819050919050565b600061544f82615361565b915061545a83615361565b92508261546a576154696154a4565b5b828206905092915050565b7f4e487b7100000000000000000000000000000000000000000000000000000000600052601160045260246000fd5b7f4e487b7100000000000000000000000000000000000000000000000000000000600052601260045260246000fd5b7f4e487b7100000000000000000000000000000000000000000000000000000000600052602160045260246000fd5b7f4e487b7100000000000000000000000000000000000000000000000000000000600052602260045260246000fd5b7f4e487b7100000000000000000000000000000000000000000000000000000000600052604160045260246000fd5b6000601f19601f8301169050919050565b60038110615582576155816154d3565b5b50565b61558e816152e4565b811461559957600080fd5b50565b6155a5816152f6565b81146155b057600080fd5b50565b6155bc81615302565b81146155c757600080fd5b50565b6155d381615361565b81146155de57600080fd5b5056fea264697066735822122096dfeab0d8745529542bb45a8dbafc046ceab52fee6f7271f289adef9adbdfae64736f6c63430008000033",
  "immutableReferences": {},
  "source": "pragma solidity ^0.8.0;\r\n\r\nimport \"../node_modules/@openzeppelin/contracts/token/ERC721/extensions/ERC721Burnable.sol\";\r\nimport \"../node_modules/@openzeppelin/contracts/access/Ownable.sol\";\r\nimport \"../node_modules/@openzeppelin/contracts/token/ERC20/IERC20.sol\";\r\nimport \"./ShibaWarsFunctions.sol\";\r\n\r\ncontract ShibaWars is ERC721Burnable, Ownable {\r\n\r\n    using ShibaWarsFunctions for uint;\r\n    using ShibaWarsFunctions for uint256;\r\n    using ShibaWarsFunctions for string;\r\n    // token details\r\n\r\n    enum ATTRIBUTE { STRENGTH, AGILITY, DEXTERITY }\r\n\r\n    struct Shiba {\r\n        uint strength;      // HP, armor\r\n        uint agility;       // evasion, crit chance\r\n        uint dexterity;     // aim, crit chance decrease\r\n\r\n        uint strengthGain;  // strength gain per level\r\n        uint agilityGain;   // agility gain per level\r\n        uint dexterityGain; // dexterity gain per level\r\n\r\n        uint level;         // level\r\n        uint arenaScore;    // score in arena\r\n\r\n        uint tokenId;       // id of token           \r\n        string name;        // name\r\n        string description; // description\r\n\r\n        uint hitPoints;     // hitpoints\r\n        ATTRIBUTE primary;   // 1 - strength, 2- agility, 3- dexterity\r\n    }\r\n\r\n    // info about tokens\r\n    uint256 nextId = 0;\r\n    mapping(uint256 => Shiba) private _tokenDetails;\r\n\r\n    // addresses\r\n    address constant devAddress = 0x967D2413A435faC414e20C2cA3719e97B43485bB;   // 25%\r\n    address constant burnAddress = 0xc254aE8E61778C9D4F398984cA73B66cC6779eDE;  // 25%\r\n    address constant shibAddress = 0x6258D3497B01A273620Ed138d4F214661a283Eb4;\r\n    address constant sttAddress = 0xDFC902011f441F3d59A2BD7f54a25937E5912122;\r\n\r\n    IERC20 constant shibERC20 = IERC20(shibAddress);\r\n    IERC20 constant sttERC20 = IERC20(sttAddress);\r\n\r\n    constructor() ERC721(\"ShibaWars\", \"SHIBW\") {\r\n\r\n    }\r\n\r\n    // token creation\r\n\r\n    function mint(uint tokenId, uint strength, uint agility, uint dexterity, ATTRIBUTE primary) private {\r\n        _tokenDetails[nextId] = \r\n            Shiba(strength * 10, \r\n                agility * 10, \r\n                dexterity * 10, \r\n                strength, \r\n                agility, \r\n                dexterity, \r\n                1, 0, tokenId, \r\n                ShibaWarsFunctions.getName(tokenId), \r\n                ShibaWarsFunctions.getDescription(tokenId), \r\n                getMaxHpFromStrength(strength * 10),\r\n                primary);\r\n        _safeMint(msg.sender, nextId);\r\n        ++nextId;\r\n    }\r\n\r\n    function initialMint() public onlyOwner {\r\n        mint(0, 100, 100, 100, ATTRIBUTE.STRENGTH);\r\n        mint(1, 100, 100, 100, ATTRIBUTE.AGILITY);\r\n        shibERC20.approve(address(this), shibERC20.totalSupply());\r\n    }\r\n\r\n    function canFight(uint tokenId) public view returns (bool) {\r\n        uint id =  _tokenDetails[tokenId].tokenId;\r\n        return id > 1 && ShibaWarsFunctions.getStatsMultiplier(id) != 0;\r\n    }\r\n\r\n    function levelUpCost(uint256 id) public view returns (uint) {\r\n        return _tokenDetails[id].level;\r\n    }\r\n\r\n    // shiba stats\r\n\r\n    function getMaxHp(uint id) public view returns (uint) {\r\n        return getMaxHpFromStrength(_tokenDetails[id].strength);\r\n    }\r\n\r\n    function getMaxHpFromStrength(uint strength) private pure returns(uint) {\r\n        return 50 + strength * 5;\r\n    }\r\n\r\n    function getArmor(uint id) public view returns (uint) {\r\n        return _tokenDetails[id].strength;\r\n    }\r\n\r\n    function getAim(uint id) public view returns (uint) {\r\n        return _tokenDetails[id].dexterity + 5;\r\n    }\r\n\r\n    function getDodge(uint id) public view returns (uint) {\r\n        return _tokenDetails[id].agility + 5;\r\n    }\r\n\r\n    function getCritAim(uint id) public view returns (uint) {\r\n        return _tokenDetails[id].agility + 5;\r\n    }\r\n\r\n    function getCritDodge(uint id) public view returns (uint) {\r\n        return _tokenDetails[id].dexterity + 5;\r\n    }\r\n\r\n    function getPrimary(uint id)  private view returns (uint) {\r\n        if(_tokenDetails[id].primary == ATTRIBUTE.STRENGTH) {\r\n            return _tokenDetails[id].strength;    \r\n        } else if(_tokenDetails[id].primary == ATTRIBUTE.AGILITY) {\r\n            return _tokenDetails[id].agility;    \r\n        }  else {\r\n            return _tokenDetails[id].dexterity;    \r\n        }\r\n    } \r\n\r\n    function getMinDamage(uint id) public view returns (uint) {\r\n        return getPrimary(id);\r\n    }\r\n\r\n    function getMaxDamage(uint id) public view returns (uint) {\r\n        return 3 * getPrimary(id);\r\n    }\r\n\r\n    // user info\r\n\r\n    function getUserTokens(address user) public view returns (uint256[] memory) {\r\n        uint256 tokenCount = balanceOf(user);\r\n        if(tokenCount == 0) {\r\n            return new uint256[](0);\r\n        }\r\n        else {\r\n            uint256[] memory result = new uint256[](tokenCount);\r\n            uint256 index = 0;\r\n            for(uint256 i = 0; i < nextId; ++i) {\r\n                // if owner and exists\r\n                if(_exists(i) && ownerOf(i) == user) {\r\n                    result[index++] = i;\r\n                }\r\n            }\r\n            return result;\r\n        }\r\n    }\r\n\r\n    function userPowerTreatTokens(address user) public view returns (uint) {\r\n        uint count = 0;\r\n        for(uint256 i = 0; i < nextId; ++i) {\r\n            // if owner and exists\r\n            if(_exists(i) && ownerOf(i) == user && _tokenDetails[i].tokenId == ShibaWarsFunctions.POWER_TREAT) {\r\n                ++count;\r\n            }\r\n        }\r\n        return count;\r\n    }\r\n\r\n    function userShibBalance(address user) public view returns (uint) {\r\n        return shibERC20.balanceOf(user);\r\n    }\r\n\r\n    function getTokenDetails(uint256 id) public view returns (Shiba memory){\r\n        return _tokenDetails[id];\r\n    }\r\n\r\n    // buying token\r\n\r\n    function buyShiba(uint tokenId) public {\r\n        uint256 cost = ShibaWarsFunctions.getTokenPrice(tokenId);\r\n        require(cost > 0, \"Shiba Wars: THIS TOKEN CAN NOT BE BOUGHT\");\r\n        // does the buyer has enough shib?\r\n        require(userShibBalance(msg.sender) >= cost, \"Shiba Wars: INSUFFICIENT SHIB BALANCE\");\r\n        require(shibERC20.allowance(msg.sender, address(this)) >= cost, \"Shiba Wars: ALLOW US TO SPEND YOUR SHIB\");\r\n        // transfer shib from buyer to smart contract\r\n        require(shibERC20.transferFrom(msg.sender, address(this), cost), \"Shiba Wars: Can not transfer tokens to the smart contract\");\r\n        // burn shib\r\n        require(shibERC20.transferFrom(address(this), burnAddress, cost / 4),\"Shiba Wars: Can not burn\");\r\n        // send shib to deployer\r\n        require(shibERC20.transferFrom(address(this), devAddress, cost / 4),\"Shiba Wars: Can not send to dev\");\r\n        \r\n        mintNFT(tokenId);\r\n    }\r\n\r\n    function mintNFT(uint tokenId) private {\r\n        // mint the NFT\r\n        uint multiplier = ShibaWarsFunctions.getStatsMultiplier(tokenId);\r\n\r\n        uint str = 10 * multiplier + (uint(keccak256(abi.encodePacked(block.difficulty, block.timestamp))) % 6) * multiplier;\r\n        uint agi = 10 * multiplier + (uint(keccak256(abi.encodePacked(tokenId, block.timestamp))) % 6) * multiplier;\r\n        uint intl = 10 * multiplier + (uint(keccak256(abi.encodePacked(block.difficulty, tokenId))) % 6) * multiplier;\r\n\r\n        uint primary = uint(keccak256(abi.encodePacked(str, agi, intl, block.timestamp))) % 3;\r\n        ATTRIBUTE primaryAttribute = ATTRIBUTE.STRENGTH;\r\n        if(primary == 0) {\r\n            primaryAttribute = ATTRIBUTE.STRENGTH;\r\n        } else if (primary == 1) {\r\n            primaryAttribute = ATTRIBUTE.AGILITY;\r\n        } else if (primary == 2) {\r\n            primaryAttribute = ATTRIBUTE.DEXTERITY;\r\n        }\r\n\r\n        mint(tokenId, str / 100, agi / 100, intl / 100, primaryAttribute);\r\n    }\r\n\r\n    // game functions\r\n\r\n    function levelUp(uint256 id) public {\r\n        // level up if power treat\r\n        require(ownerOf(id) == msg.sender, \"Shiba Wars: YOU DO NOT OWN THIS TOKEN\");\r\n        require(userPowerTreatTokens(msg.sender) >= levelUpCost(id), \"Shiba Wars: NOT ENOUGH POWER TREATS TO UPGRADE THIS SHIBA\");\r\n\r\n        uint deleted = 0;\r\n        for(uint256 i = 0; i < nextId; ++i) {\r\n            // if owner and exists\r\n            if(_exists(i) && ownerOf(i) == msg.sender && _tokenDetails[i].tokenId == ShibaWarsFunctions.POWER_TREAT) {\r\n                deleted++;\r\n                burn(i);\r\n                delete _tokenDetails[i];\r\n            }\r\n            if(deleted == levelUpCost(id)) {\r\n                break;\r\n            }\r\n        }\r\n\r\n        ++_tokenDetails[id].level;\r\n        _tokenDetails[id].strength += _tokenDetails[id].strengthGain;\r\n        _tokenDetails[id].agility += _tokenDetails[id].agilityGain;\r\n        _tokenDetails[id].dexterity += _tokenDetails[id].dexterityGain;\r\n    }\r\n\r\n    function openPack(uint256 id) public {\r\n        // open pack\r\n        // burn the token\r\n        require(ownerOf(id) == msg.sender, \"Shiba Wars: YOU DO NOT OWN THIS TOKEN\");\r\n        delete _tokenDetails[id];\r\n        burn(id);\r\n        // mint random token\r\n        uint number = (uint(keccak256(abi.encodePacked(block.difficulty, block.timestamp))) % 100000);\r\n        uint tokenId = 0;\r\n        if (number < 1) {\r\n            // woofmeister\r\n            tokenId = 2;\r\n        } else if (number < 11) {\r\n            // doge father\r\n            tokenId = 14;\r\n        } else if (number < 111) {\r\n            // golden doge\r\n            tokenId = 15;\r\n        } else if (number < 1111) {\r\n            // ryoshi\r\n            tokenId = 16;\r\n        } else if (number < 10000) {\r\n            // shiba inu\r\n            tokenId = 9;\r\n        } else if (number < 25000) {\r\n            // akita inu\r\n            tokenId = 10; \r\n        } else if (number < 50000) {\r\n            // sanshu inu\r\n            tokenId = 11;\r\n        } else {\r\n            // shiba pup\r\n            tokenId = 12;\r\n        }\r\n        mintNFT(tokenId);\r\n    }\r\n\r\n}\r\n",
  "sourcePath": "D:/GitHub/shibawars/contracts/ShibaWars.sol",
  "compiler": {
    "name": "solc",
    "version": "0.8.0+commit.c7dfd78e.Emscripten.clang"
  },
  "schemaVersion": "3.4.1",
  "updatedAt": "2021-05-20T19:22:53.560Z",
  "networkType": "ethereum",
  "devdoc": {
    "kind": "dev",
    "methods": {
      "approve(address,uint256)": {
        "details": "See {IERC721-approve}."
      },
      "balanceOf(address)": {
        "details": "See {IERC721-balanceOf}."
      },
      "burn(uint256)": {
        "details": "Burns `tokenId`. See {ERC721-_burn}. Requirements: - The caller must own `tokenId` or be an approved operator."
      },
      "getApproved(uint256)": {
        "details": "See {IERC721-getApproved}."
      },
      "isApprovedForAll(address,address)": {
        "details": "See {IERC721-isApprovedForAll}."
      },
      "name()": {
        "details": "See {IERC721Metadata-name}."
      },
      "owner()": {
        "details": "Returns the address of the current owner."
      },
      "ownerOf(uint256)": {
        "details": "See {IERC721-ownerOf}."
      },
      "renounceOwnership()": {
        "details": "Leaves the contract without owner. It will not be possible to call `onlyOwner` functions anymore. Can only be called by the current owner. NOTE: Renouncing ownership will leave the contract without an owner, thereby removing any functionality that is only available to the owner."
      },
      "safeTransferFrom(address,address,uint256)": {
        "details": "See {IERC721-safeTransferFrom}."
      },
      "safeTransferFrom(address,address,uint256,bytes)": {
        "details": "See {IERC721-safeTransferFrom}."
      },
      "setApprovalForAll(address,bool)": {
        "details": "See {IERC721-setApprovalForAll}."
      },
      "supportsInterface(bytes4)": {
        "details": "See {IERC165-supportsInterface}."
      },
      "symbol()": {
        "details": "See {IERC721Metadata-symbol}."
      },
      "tokenURI(uint256)": {
        "details": "See {IERC721Metadata-tokenURI}."
      },
      "transferFrom(address,address,uint256)": {
        "details": "See {IERC721-transferFrom}."
      },
      "transferOwnership(address)": {
        "details": "Transfers ownership of the contract to a new account (`newOwner`). Can only be called by the current owner."
      }
    },
    "version": 1
  },
  "userdoc": {
    "kind": "user",
    "methods": {},
    "version": 1
  }
}