{
  "contractName": "Token",
  "abi": [
    {
      "inputs": [
        {
          "internalType": "string",
          "name": "name",
          "type": "string"
        },
        {
          "internalType": "string",
          "name": "symbol",
          "type": "string"
        }
      ],
      "stateMutability": "nonpayable",
      "type": "constructor"
    },
    {
      "anonymous": false,
      "inputs": [
        {
          "indexed": true,
          "internalType": "address",
          "name": "owner",
          "type": "address"
        },
        {
          "indexed": true,
          "internalType": "address",
          "name": "approved",
          "type": "address"
        },
        {
          "indexed": true,
          "internalType": "uint256",
          "name": "tokenId",
          "type": "uint256"
        }
      ],
      "name": "Approval",
      "type": "event"
    },
    {
      "anonymous": false,
      "inputs": [
        {
          "indexed": true,
          "internalType": "address",
          "name": "owner",
          "type": "address"
        },
        {
          "indexed": true,
          "internalType": "address",
          "name": "operator",
          "type": "address"
        },
        {
          "indexed": false,
          "internalType": "bool",
          "name": "approved",
          "type": "bool"
        }
      ],
      "name": "ApprovalForAll",
      "type": "event"
    },
    {
      "anonymous": false,
      "inputs": [
        {
          "indexed": true,
          "internalType": "address",
          "name": "previousOwner",
          "type": "address"
        },
        {
          "indexed": true,
          "internalType": "address",
          "name": "newOwner",
          "type": "address"
        }
      ],
      "name": "OwnershipTransferred",
      "type": "event"
    },
    {
      "anonymous": false,
      "inputs": [
        {
          "indexed": true,
          "internalType": "address",
          "name": "from",
          "type": "address"
        },
        {
          "indexed": true,
          "internalType": "address",
          "name": "to",
          "type": "address"
        },
        {
          "indexed": true,
          "internalType": "uint256",
          "name": "tokenId",
          "type": "uint256"
        }
      ],
      "name": "Transfer",
      "type": "event"
    },
    {
      "inputs": [
        {
          "internalType": "address",
          "name": "to",
          "type": "address"
        },
        {
          "internalType": "uint256",
          "name": "tokenId",
          "type": "uint256"
        }
      ],
      "name": "approve",
      "outputs": [],
      "stateMutability": "nonpayable",
      "type": "function"
    },
    {
      "inputs": [
        {
          "internalType": "address",
          "name": "owner",
          "type": "address"
        }
      ],
      "name": "balanceOf",
      "outputs": [
        {
          "internalType": "uint256",
          "name": "",
          "type": "uint256"
        }
      ],
      "stateMutability": "view",
      "type": "function",
      "constant": true
    },
    {
      "inputs": [
        {
          "internalType": "uint256",
          "name": "tokenId",
          "type": "uint256"
        }
      ],
      "name": "getApproved",
      "outputs": [
        {
          "internalType": "address",
          "name": "",
          "type": "address"
        }
      ],
      "stateMutability": "view",
      "type": "function",
      "constant": true
    },
    {
      "inputs": [
        {
          "internalType": "address",
          "name": "owner",
          "type": "address"
        },
        {
          "internalType": "address",
          "name": "operator",
          "type": "address"
        }
      ],
      "name": "isApprovedForAll",
      "outputs": [
        {
          "internalType": "bool",
          "name": "",
          "type": "bool"
        }
      ],
      "stateMutability": "view",
      "type": "function",
      "constant": true
    },
    {
      "inputs": [],
      "name": "name",
      "outputs": [
        {
          "internalType": "string",
          "name": "",
          "type": "string"
        }
      ],
      "stateMutability": "view",
      "type": "function",
      "constant": true
    },
    {
      "inputs": [],
      "name": "owner",
      "outputs": [
        {
          "internalType": "address",
          "name": "",
          "type": "address"
        }
      ],
      "stateMutability": "view",
      "type": "function",
      "constant": true
    },
    {
      "inputs": [
        {
          "internalType": "uint256",
          "name": "tokenId",
          "type": "uint256"
        }
      ],
      "name": "ownerOf",
      "outputs": [
        {
          "internalType": "address",
          "name": "",
          "type": "address"
        }
      ],
      "stateMutability": "view",
      "type": "function",
      "constant": true
    },
    {
      "inputs": [],
      "name": "renounceOwnership",
      "outputs": [],
      "stateMutability": "nonpayable",
      "type": "function"
    },
    {
      "inputs": [
        {
          "internalType": "address",
          "name": "from",
          "type": "address"
        },
        {
          "internalType": "address",
          "name": "to",
          "type": "address"
        },
        {
          "internalType": "uint256",
          "name": "tokenId",
          "type": "uint256"
        }
      ],
      "name": "safeTransferFrom",
      "outputs": [],
      "stateMutability": "nonpayable",
      "type": "function"
    },
    {
      "inputs": [
        {
          "internalType": "address",
          "name": "from",
          "type": "address"
        },
        {
          "internalType": "address",
          "name": "to",
          "type": "address"
        },
        {
          "internalType": "uint256",
          "name": "tokenId",
          "type": "uint256"
        },
        {
          "internalType": "bytes",
          "name": "_data",
          "type": "bytes"
        }
      ],
      "name": "safeTransferFrom",
      "outputs": [],
      "stateMutability": "nonpayable",
      "type": "function"
    },
    {
      "inputs": [
        {
          "internalType": "address",
          "name": "operator",
          "type": "address"
        },
        {
          "internalType": "bool",
          "name": "approved",
          "type": "bool"
        }
      ],
      "name": "setApprovalForAll",
      "outputs": [],
      "stateMutability": "nonpayable",
      "type": "function"
    },
    {
      "inputs": [
        {
          "internalType": "bytes4",
          "name": "interfaceId",
          "type": "bytes4"
        }
      ],
      "name": "supportsInterface",
      "outputs": [
        {
          "internalType": "bool",
          "name": "",
          "type": "bool"
        }
      ],
      "stateMutability": "view",
      "type": "function",
      "constant": true
    },
    {
      "inputs": [],
      "name": "symbol",
      "outputs": [
        {
          "internalType": "string",
          "name": "",
          "type": "string"
        }
      ],
      "stateMutability": "view",
      "type": "function",
      "constant": true
    },
    {
      "inputs": [
        {
          "internalType": "uint256",
          "name": "tokenId",
          "type": "uint256"
        }
      ],
      "name": "tokenURI",
      "outputs": [
        {
          "internalType": "string",
          "name": "",
          "type": "string"
        }
      ],
      "stateMutability": "view",
      "type": "function",
      "constant": true
    },
    {
      "inputs": [
        {
          "internalType": "address",
          "name": "from",
          "type": "address"
        },
        {
          "internalType": "address",
          "name": "to",
          "type": "address"
        },
        {
          "internalType": "uint256",
          "name": "tokenId",
          "type": "uint256"
        }
      ],
      "name": "transferFrom",
      "outputs": [],
      "stateMutability": "nonpayable",
      "type": "function"
    },
    {
      "inputs": [
        {
          "internalType": "address",
          "name": "newOwner",
          "type": "address"
        }
      ],
      "name": "transferOwnership",
      "outputs": [],
      "stateMutability": "nonpayable",
      "type": "function"
    },
    {
      "inputs": [
        {
          "internalType": "string",
          "name": "name",
          "type": "string"
        },
        {
          "internalType": "string",
          "name": "description",
          "type": "string"
        },
        {
          "internalType": "uint256",
          "name": "strength",
          "type": "uint256"
        },
        {
          "internalType": "uint256",
          "name": "agility",
          "type": "uint256"
        },
        {
          "internalType": "uint256",
          "name": "dexterity",
          "type": "uint256"
        }
      ],
      "name": "mint",
      "outputs": [],
      "stateMutability": "nonpayable",
      "type": "function"
    },
    {
      "inputs": [
        {
          "internalType": "uint256",
          "name": "id",
          "type": "uint256"
        }
      ],
      "name": "upgrade",
      "outputs": [],
      "stateMutability": "nonpayable",
      "type": "function"
    },
    {
      "inputs": [
        {
          "internalType": "uint256",
          "name": "id",
          "type": "uint256"
        }
      ],
      "name": "getTokenDetails",
      "outputs": [
        {
          "components": [
            {
              "internalType": "uint256",
              "name": "strength",
              "type": "uint256"
            },
            {
              "internalType": "uint256",
              "name": "agility",
              "type": "uint256"
            },
            {
              "internalType": "uint256",
              "name": "dexterity",
              "type": "uint256"
            },
            {
              "internalType": "uint256",
              "name": "level",
              "type": "uint256"
            },
            {
              "internalType": "string",
              "name": "name",
              "type": "string"
            },
            {
              "internalType": "string",
              "name": "description",
              "type": "string"
            }
          ],
          "internalType": "struct Token.Shiba",
          "name": "",
          "type": "tuple"
        }
      ],
      "stateMutability": "view",
      "type": "function",
      "constant": true
    }
  ],
  "bytecode": "0x608060405260006007553480156200001657600080fd5b506040516200350c3803806200350c83398181016040528101906200003c919062000255565b818181600090805190602001906200005692919062000133565b5080600190805190602001906200006f92919062000133565b5050506000620000846200012b60201b60201c565b905080600660006101000a81548173ffffffffffffffffffffffffffffffffffffffff021916908373ffffffffffffffffffffffffffffffffffffffff1602179055508073ffffffffffffffffffffffffffffffffffffffff16600073ffffffffffffffffffffffffffffffffffffffff167f8be0079c531659141344cd1fd0a4f28419497f9722a3daafe3b4186f6b6457e060405160405180910390a3505050620003f9565b600033905090565b828054620001419062000365565b90600052602060002090601f016020900481019282620001655760008555620001b1565b82601f106200018057805160ff1916838001178555620001b1565b82800160010185558215620001b1579182015b82811115620001b057825182559160200191906001019062000193565b5b509050620001c09190620001c4565b5090565b5b80821115620001df576000816000905550600101620001c5565b5090565b6000620001fa620001f484620002fc565b620002c8565b9050828152602081018484840111156200021357600080fd5b620002208482856200032f565b509392505050565b600082601f8301126200023a57600080fd5b81516200024c848260208601620001e3565b91505092915050565b600080604083850312156200026957600080fd5b600083015167ffffffffffffffff8111156200028457600080fd5b620002928582860162000228565b925050602083015167ffffffffffffffff811115620002b057600080fd5b620002be8582860162000228565b9150509250929050565b6000604051905081810181811067ffffffffffffffff82111715620002f257620002f1620003ca565b5b8060405250919050565b600067ffffffffffffffff8211156200031a5762000319620003ca565b5b601f19601f8301169050602081019050919050565b60005b838110156200034f57808201518184015260208101905062000332565b838111156200035f576000848401525b50505050565b600060028204905060018216806200037e57607f821691505b602082108114156200039557620003946200039b565b5b50919050565b7f4e487b7100000000000000000000000000000000000000000000000000000000600052602260045260246000fd5b7f4e487b7100000000000000000000000000000000000000000000000000000000600052604160045260246000fd5b61310380620004096000396000f3fe608060405234801561001057600080fd5b50600436106101215760003560e01c806370a08231116100ad578063b88d4fde11610071578063b88d4fde146102f2578063c1e037281461030e578063c87b56dd1461033e578063e985e9c51461036e578063f2fde38b1461039e57610121565b806370a0823114610260578063715018a6146102905780638da5cb5b1461029a57806395d89b41146102b8578063a22cb465146102d657610121565b806323b872dd116100f457806323b872dd146101c057806342842e0e146101dc57806345977d03146101f85780635e371bce146102145780636352211e1461023057610121565b806301ffc9a71461012657806306fdde0314610156578063081812fc14610174578063095ea7b3146101a4575b600080fd5b610140600480360381019061013b919061210b565b6103ba565b60405161014d9190612a28565b60405180910390f35b61015e61049c565b60405161016b9190612a43565b60405180910390f35b61018e60048036038101906101899190612204565b61052e565b60405161019b91906129c1565b60405180910390f35b6101be60048036038101906101b991906120cf565b6105b3565b005b6101da60048036038101906101d59190611fc9565b6106cb565b005b6101f660048036038101906101f19190611fc9565b61072b565b005b610212600480360381019061020d9190612204565b61074b565b005b61022e6004803603810190610229919061215d565b610778565b005b61024a60048036038101906102459190612204565b6108c5565b60405161025791906129c1565b60405180910390f35b61027a60048036038101906102759190611f64565b610977565b6040516102879190612c87565b60405180910390f35b610298610a2f565b005b6102a2610b6c565b6040516102af91906129c1565b60405180910390f35b6102c0610b96565b6040516102cd9190612a43565b60405180910390f35b6102f060048036038101906102eb9190612093565b610c28565b005b61030c60048036038101906103079190612018565b610da9565b005b61032860048036038101906103239190612204565b610e0b565b6040516103359190612c65565b60405180910390f35b61035860048036038101906103539190612204565b610f84565b6040516103659190612a43565b60405180910390f35b61038860048036038101906103839190611f8d565b61102b565b6040516103959190612a28565b60405180910390f35b6103b860048036038101906103b39190611f64565b6110bf565b005b60007f80ac58cd000000000000000000000000000000000000000000000000000000007bffffffffffffffffffffffffffffffffffffffffffffffffffffffff1916827bffffffffffffffffffffffffffffffffffffffffffffffffffffffff1916148061048557507f5b5e139f000000000000000000000000000000000000000000000000000000007bffffffffffffffffffffffffffffffffffffffffffffffffffffffff1916827bffffffffffffffffffffffffffffffffffffffffffffffffffffffff1916145b8061049557506104948261126b565b5b9050919050565b6060600080546104ab90612ef8565b80601f01602080910402602001604051908101604052809291908181526020018280546104d790612ef8565b80156105245780601f106104f957610100808354040283529160200191610524565b820191906000526020600020905b81548152906001019060200180831161050757829003601f168201915b5050505050905090565b6000610539826112d5565b610578576040517f08c379a000000000000000000000000000000000000000000000000000000000815260040161056f90612ba5565b60405180910390fd5b6004600083815260200190815260200160002060009054906101000a900473ffffffffffffffffffffffffffffffffffffffff169050919050565b60006105be826108c5565b90508073ffffffffffffffffffffffffffffffffffffffff168373ffffffffffffffffffffffffffffffffffffffff16141561062f576040517f08c379a000000000000000000000000000000000000000000000000000000000815260040161062690612c25565b60405180910390fd5b8073ffffffffffffffffffffffffffffffffffffffff1661064e611341565b73ffffffffffffffffffffffffffffffffffffffff16148061067d575061067c81610677611341565b61102b565b5b6106bc576040517f08c379a00000000000000000000000000000000000000000000000000000000081526004016106b390612b25565b60405180910390fd5b6106c68383611349565b505050565b6106dc6106d6611341565b82611402565b61071b576040517f08c379a000000000000000000000000000000000000000000000000000000000815260040161071290612c45565b60405180910390fd5b6107268383836114e0565b505050565b61074683838360405180602001604052806000815250610da9565b505050565b600860008281526020019081526020016000206003016000815461076e90612f2a565b9190508190555050565b610780611341565b73ffffffffffffffffffffffffffffffffffffffff1661079e610b6c565b73ffffffffffffffffffffffffffffffffffffffff16146107f4576040517f08c379a00000000000000000000000000000000000000000000000000000000081526004016107eb90612bc5565b60405180910390fd5b6040518060c00160405280848152602001838152602001828152602001600181526020018681526020018581525060086000600754815260200190815260200160002060008201518160000155602082015181600101556040820151816002015560608201518160030155608082015181600401908051906020019061087b929190611d52565b5060a0820151816005019080519060200190610898929190611d52565b509050506108a83360075461173c565b6007600081546108b790612f2a565b919050819055505050505050565b6000806002600084815260200190815260200160002060009054906101000a900473ffffffffffffffffffffffffffffffffffffffff169050600073ffffffffffffffffffffffffffffffffffffffff168173ffffffffffffffffffffffffffffffffffffffff16141561096e576040517f08c379a000000000000000000000000000000000000000000000000000000000815260040161096590612b65565b60405180910390fd5b80915050919050565b60008073ffffffffffffffffffffffffffffffffffffffff168273ffffffffffffffffffffffffffffffffffffffff1614156109e8576040517f08c379a00000000000000000000000000000000000000000000000000000000081526004016109df90612b45565b60405180910390fd5b600360008373ffffffffffffffffffffffffffffffffffffffff1673ffffffffffffffffffffffffffffffffffffffff168152602001908152602001600020549050919050565b610a37611341565b73ffffffffffffffffffffffffffffffffffffffff16610a55610b6c565b73ffffffffffffffffffffffffffffffffffffffff1614610aab576040517f08c379a0000000000000000000000000000000000000000000000000000000008152600401610aa290612bc5565b60405180910390fd5b600073ffffffffffffffffffffffffffffffffffffffff16600660009054906101000a900473ffffffffffffffffffffffffffffffffffffffff1673ffffffffffffffffffffffffffffffffffffffff167f8be0079c531659141344cd1fd0a4f28419497f9722a3daafe3b4186f6b6457e060405160405180910390a36000600660006101000a81548173ffffffffffffffffffffffffffffffffffffffff021916908373ffffffffffffffffffffffffffffffffffffffff160217905550565b6000600660009054906101000a900473ffffffffffffffffffffffffffffffffffffffff16905090565b606060018054610ba590612ef8565b80601f0160208091040260200160405190810160405280929190818152602001828054610bd190612ef8565b8015610c1e5780601f10610bf357610100808354040283529160200191610c1e565b820191906000526020600020905b815481529060010190602001808311610c0157829003601f168201915b5050505050905090565b610c30611341565b73ffffffffffffffffffffffffffffffffffffffff168273ffffffffffffffffffffffffffffffffffffffff161415610c9e576040517f08c379a0000000000000000000000000000000000000000000000000000000008152600401610c9590612ae5565b60405180910390fd5b8060056000610cab611341565b73ffffffffffffffffffffffffffffffffffffffff1673ffffffffffffffffffffffffffffffffffffffff16815260200190815260200160002060008473ffffffffffffffffffffffffffffffffffffffff1673ffffffffffffffffffffffffffffffffffffffff16815260200190815260200160002060006101000a81548160ff0219169083151502179055508173ffffffffffffffffffffffffffffffffffffffff16610d58611341565b73ffffffffffffffffffffffffffffffffffffffff167f17307eab39ab6107e8899845ad3d59bd9653f200f220920489ca2b5937696c3183604051610d9d9190612a28565b60405180910390a35050565b610dba610db4611341565b83611402565b610df9576040517f08c379a0000000000000000000000000000000000000000000000000000000008152600401610df090612c45565b60405180910390fd5b610e058484848461175a565b50505050565b610e13611dd8565b600860008381526020019081526020016000206040518060c001604052908160008201548152602001600182015481526020016002820154815260200160038201548152602001600482018054610e6990612ef8565b80601f0160208091040260200160405190810160405280929190818152602001828054610e9590612ef8565b8015610ee25780601f10610eb757610100808354040283529160200191610ee2565b820191906000526020600020905b815481529060010190602001808311610ec557829003601f168201915b50505050508152602001600582018054610efb90612ef8565b80601f0160208091040260200160405190810160405280929190818152602001828054610f2790612ef8565b8015610f745780601f10610f4957610100808354040283529160200191610f74565b820191906000526020600020905b815481529060010190602001808311610f5757829003601f168201915b5050505050815250509050919050565b6060610f8f826112d5565b610fce576040517f08c379a0000000000000000000000000000000000000000000000000000000008152600401610fc590612c05565b60405180910390fd5b6000610fd86117b6565b90506000815111610ff85760405180602001604052806000815250611023565b80611002846117cd565b60405160200161101392919061299d565b6040516020818303038152906040525b915050919050565b6000600560008473ffffffffffffffffffffffffffffffffffffffff1673ffffffffffffffffffffffffffffffffffffffff16815260200190815260200160002060008373ffffffffffffffffffffffffffffffffffffffff1673ffffffffffffffffffffffffffffffffffffffff16815260200190815260200160002060009054906101000a900460ff16905092915050565b6110c7611341565b73ffffffffffffffffffffffffffffffffffffffff166110e5610b6c565b73ffffffffffffffffffffffffffffffffffffffff161461113b576040517f08c379a000000000000000000000000000000000000000000000000000000000815260040161113290612bc5565b60405180910390fd5b600073ffffffffffffffffffffffffffffffffffffffff168173ffffffffffffffffffffffffffffffffffffffff1614156111ab576040517f08c379a00000000000000000000000000000000000000000000000000000000081526004016111a290612a85565b60405180910390fd5b8073ffffffffffffffffffffffffffffffffffffffff16600660009054906101000a900473ffffffffffffffffffffffffffffffffffffffff1673ffffffffffffffffffffffffffffffffffffffff167f8be0079c531659141344cd1fd0a4f28419497f9722a3daafe3b4186f6b6457e060405160405180910390a380600660006101000a81548173ffffffffffffffffffffffffffffffffffffffff021916908373ffffffffffffffffffffffffffffffffffffffff16021790555050565b60007f01ffc9a7000000000000000000000000000000000000000000000000000000007bffffffffffffffffffffffffffffffffffffffffffffffffffffffff1916827bffffffffffffffffffffffffffffffffffffffffffffffffffffffff1916149050919050565b60008073ffffffffffffffffffffffffffffffffffffffff166002600084815260200190815260200160002060009054906101000a900473ffffffffffffffffffffffffffffffffffffffff1673ffffffffffffffffffffffffffffffffffffffff1614159050919050565b600033905090565b816004600083815260200190815260200160002060006101000a81548173ffffffffffffffffffffffffffffffffffffffff021916908373ffffffffffffffffffffffffffffffffffffffff160217905550808273ffffffffffffffffffffffffffffffffffffffff166113bc836108c5565b73ffffffffffffffffffffffffffffffffffffffff167f8c5be1e5ebec7d5bd14f71427d1e84f3dd0314c0f7b2291e5b200ac8c7c3b92560405160405180910390a45050565b600061140d826112d5565b61144c576040517f08c379a000000000000000000000000000000000000000000000000000000000815260040161144390612b05565b60405180910390fd5b6000611457836108c5565b90508073ffffffffffffffffffffffffffffffffffffffff168473ffffffffffffffffffffffffffffffffffffffff1614806114c657508373ffffffffffffffffffffffffffffffffffffffff166114ae8461052e565b73ffffffffffffffffffffffffffffffffffffffff16145b806114d757506114d6818561102b565b5b91505092915050565b8273ffffffffffffffffffffffffffffffffffffffff16611500826108c5565b73ffffffffffffffffffffffffffffffffffffffff1614611556576040517f08c379a000000000000000000000000000000000000000000000000000000000815260040161154d90612be5565b60405180910390fd5b600073ffffffffffffffffffffffffffffffffffffffff168273ffffffffffffffffffffffffffffffffffffffff1614156115c6576040517f08c379a00000000000000000000000000000000000000000000000000000000081526004016115bd90612ac5565b60405180910390fd5b6115d183838361197a565b6115dc600082611349565b6001600360008573ffffffffffffffffffffffffffffffffffffffff1673ffffffffffffffffffffffffffffffffffffffff168152602001908152602001600020600082825461162c9190612e0e565b925050819055506001600360008473ffffffffffffffffffffffffffffffffffffffff1673ffffffffffffffffffffffffffffffffffffffff16815260200190815260200160002060008282546116839190612d87565b92505081905550816002600083815260200190815260200160002060006101000a81548173ffffffffffffffffffffffffffffffffffffffff021916908373ffffffffffffffffffffffffffffffffffffffff160217905550808273ffffffffffffffffffffffffffffffffffffffff168473ffffffffffffffffffffffffffffffffffffffff167fddf252ad1be2c89b69c2b068fc378daa952ba7f163c4a11628f55a4df523b3ef60405160405180910390a4505050565b61175682826040518060200160405280600081525061197f565b5050565b6117658484846114e0565b611771848484846119da565b6117b0576040517f08c379a00000000000000000000000000000000000000000000000000000000081526004016117a790612a65565b60405180910390fd5b50505050565b606060405180602001604052806000815250905090565b60606000821415611815576040518060400160405280600181526020017f30000000000000000000000000000000000000000000000000000000000000008152509050611975565b600082905060005b6000821461184757808061183090612f2a565b915050600a826118409190612ddd565b915061181d565b60008167ffffffffffffffff811115611889577f4e487b7100000000000000000000000000000000000000000000000000000000600052604160045260246000fd5b6040519080825280601f01601f1916602001820160405280156118bb5781602001600182028036833780820191505090505b5090505b6000851461196e576001826118d49190612e0e565b9150600a856118e39190612f73565b60306118ef9190612d87565b60f81b81838151811061192b577f4e487b7100000000000000000000000000000000000000000000000000000000600052603260045260246000fd5b60200101907effffffffffffffffffffffffffffffffffffffffffffffffffffffffffffff1916908160001a905350600a856119679190612ddd565b94506118bf565b8093505050505b919050565b505050565b6119898383611b71565b61199660008484846119da565b6119d5576040517f08c379a00000000000000000000000000000000000000000000000000000000081526004016119cc90612a65565b60405180910390fd5b505050565b60006119fb8473ffffffffffffffffffffffffffffffffffffffff16611d3f565b15611b64578373ffffffffffffffffffffffffffffffffffffffff1663150b7a02611a24611341565b8786866040518563ffffffff1660e01b8152600401611a4694939291906129dc565b602060405180830381600087803b158015611a6057600080fd5b505af1925050508015611a9157506040513d601f19601f82011682018060405250810190611a8e9190612134565b60015b611b14573d8060008114611ac1576040519150601f19603f3d011682016040523d82523d6000602084013e611ac6565b606091505b50600081511415611b0c576040517f08c379a0000000000000000000000000000000000000000000000000000000008152600401611b0390612a65565b60405180910390fd5b805181602001fd5b63150b7a0260e01b7bffffffffffffffffffffffffffffffffffffffffffffffffffffffff1916817bffffffffffffffffffffffffffffffffffffffffffffffffffffffff191614915050611b69565b600190505b949350505050565b600073ffffffffffffffffffffffffffffffffffffffff168273ffffffffffffffffffffffffffffffffffffffff161415611be1576040517f08c379a0000000000000000000000000000000000000000000000000000000008152600401611bd890612b85565b60405180910390fd5b611bea816112d5565b15611c2a576040517f08c379a0000000000000000000000000000000000000000000000000000000008152600401611c2190612aa5565b60405180910390fd5b611c366000838361197a565b6001600360008473ffffffffffffffffffffffffffffffffffffffff1673ffffffffffffffffffffffffffffffffffffffff1681526020019081526020016000206000828254611c869190612d87565b92505081905550816002600083815260200190815260200160002060006101000a81548173ffffffffffffffffffffffffffffffffffffffff021916908373ffffffffffffffffffffffffffffffffffffffff160217905550808273ffffffffffffffffffffffffffffffffffffffff16600073ffffffffffffffffffffffffffffffffffffffff167fddf252ad1be2c89b69c2b068fc378daa952ba7f163c4a11628f55a4df523b3ef60405160405180910390a45050565b600080823b905060008111915050919050565b828054611d5e90612ef8565b90600052602060002090601f016020900481019282611d805760008555611dc7565b82601f10611d9957805160ff1916838001178555611dc7565b82800160010185558215611dc7579182015b82811115611dc6578251825591602001919060010190611dab565b5b509050611dd49190611e0e565b5090565b6040518060c001604052806000815260200160008152602001600081526020016000815260200160608152602001606081525090565b5b80821115611e27576000816000905550600101611e0f565b5090565b6000611e3e611e3984612cd3565b612ca2565b905082815260208101848484011115611e5657600080fd5b611e61848285612eb6565b509392505050565b6000611e7c611e7784612d03565b612ca2565b905082815260208101848484011115611e9457600080fd5b611e9f848285612eb6565b509392505050565b600081359050611eb681613071565b92915050565b600081359050611ecb81613088565b92915050565b600081359050611ee08161309f565b92915050565b600081519050611ef58161309f565b92915050565b600082601f830112611f0c57600080fd5b8135611f1c848260208601611e2b565b91505092915050565b600082601f830112611f3657600080fd5b8135611f46848260208601611e69565b91505092915050565b600081359050611f5e816130b6565b92915050565b600060208284031215611f7657600080fd5b6000611f8484828501611ea7565b91505092915050565b60008060408385031215611fa057600080fd5b6000611fae85828601611ea7565b9250506020611fbf85828601611ea7565b9150509250929050565b600080600060608486031215611fde57600080fd5b6000611fec86828701611ea7565b9350506020611ffd86828701611ea7565b925050604061200e86828701611f4f565b9150509250925092565b6000806000806080858703121561202e57600080fd5b600061203c87828801611ea7565b945050602061204d87828801611ea7565b935050604061205e87828801611f4f565b925050606085013567ffffffffffffffff81111561207b57600080fd5b61208787828801611efb565b91505092959194509250565b600080604083850312156120a657600080fd5b60006120b485828601611ea7565b92505060206120c585828601611ebc565b9150509250929050565b600080604083850312156120e257600080fd5b60006120f085828601611ea7565b925050602061210185828601611f4f565b9150509250929050565b60006020828403121561211d57600080fd5b600061212b84828501611ed1565b91505092915050565b60006020828403121561214657600080fd5b600061215484828501611ee6565b91505092915050565b600080600080600060a0868803121561217557600080fd5b600086013567ffffffffffffffff81111561218f57600080fd5b61219b88828901611f25565b955050602086013567ffffffffffffffff8111156121b857600080fd5b6121c488828901611f25565b94505060406121d588828901611f4f565b93505060606121e688828901611f4f565b92505060806121f788828901611f4f565b9150509295509295909350565b60006020828403121561221657600080fd5b600061222484828501611f4f565b91505092915050565b61223681612e42565b82525050565b61224581612e54565b82525050565b600061225682612d33565b6122608185612d49565b9350612270818560208601612ec5565b61227981613060565b840191505092915050565b600061228f82612d3e565b6122998185612d5a565b93506122a9818560208601612ec5565b6122b281613060565b840191505092915050565b60006122c882612d3e565b6122d28185612d6b565b93506122e2818560208601612ec5565b6122eb81613060565b840191505092915050565b600061230182612d3e565b61230b8185612d7c565b935061231b818560208601612ec5565b80840191505092915050565b6000612334603283612d6b565b91507f4552433732313a207472616e7366657220746f206e6f6e20455243373231526560008301527f63656976657220696d706c656d656e74657200000000000000000000000000006020830152604082019050919050565b600061239a602683612d6b565b91507f4f776e61626c653a206e6577206f776e657220697320746865207a65726f206160008301527f64647265737300000000000000000000000000000000000000000000000000006020830152604082019050919050565b6000612400601c83612d6b565b91507f4552433732313a20746f6b656e20616c7265616479206d696e746564000000006000830152602082019050919050565b6000612440602483612d6b565b91507f4552433732313a207472616e7366657220746f20746865207a65726f2061646460008301527f72657373000000000000000000000000000000000000000000000000000000006020830152604082019050919050565b60006124a6601983612d6b565b91507f4552433732313a20617070726f766520746f2063616c6c6572000000000000006000830152602082019050919050565b60006124e6602c83612d6b565b91507f4552433732313a206f70657261746f7220717565727920666f72206e6f6e657860008301527f697374656e7420746f6b656e00000000000000000000000000000000000000006020830152604082019050919050565b600061254c603883612d6b565b91507f4552433732313a20617070726f76652063616c6c6572206973206e6f74206f7760008301527f6e6572206e6f7220617070726f76656420666f7220616c6c00000000000000006020830152604082019050919050565b60006125b2602a83612d6b565b91507f4552433732313a2062616c616e636520717565727920666f7220746865207a6560008301527f726f2061646472657373000000000000000000000000000000000000000000006020830152604082019050919050565b6000612618602983612d6b565b91507f4552433732313a206f776e657220717565727920666f72206e6f6e657869737460008301527f656e7420746f6b656e00000000000000000000000000000000000000000000006020830152604082019050919050565b600061267e602083612d6b565b91507f4552433732313a206d696e7420746f20746865207a65726f20616464726573736000830152602082019050919050565b60006126be602c83612d6b565b91507f4552433732313a20617070726f76656420717565727920666f72206e6f6e657860008301527f697374656e7420746f6b656e00000000000000000000000000000000000000006020830152604082019050919050565b6000612724602083612d6b565b91507f4f776e61626c653a2063616c6c6572206973206e6f7420746865206f776e65726000830152602082019050919050565b6000612764602983612d6b565b91507f4552433732313a207472616e73666572206f6620746f6b656e2074686174206960008301527f73206e6f74206f776e00000000000000000000000000000000000000000000006020830152604082019050919050565b60006127ca602f83612d6b565b91507f4552433732314d657461646174613a2055524920717565727920666f72206e6f60008301527f6e6578697374656e7420746f6b656e00000000000000000000000000000000006020830152604082019050919050565b6000612830602183612d6b565b91507f4552433732313a20617070726f76616c20746f2063757272656e74206f776e6560008301527f72000000000000000000000000000000000000000000000000000000000000006020830152604082019050919050565b6000612896603183612d6b565b91507f4552433732313a207472616e736665722063616c6c6572206973206e6f74206f60008301527f776e6572206e6f7220617070726f7665640000000000000000000000000000006020830152604082019050919050565b600060c083016000830151612907600086018261297f565b50602083015161291a602086018261297f565b50604083015161292d604086018261297f565b506060830151612940606086018261297f565b50608083015184820360808601526129588282612284565b91505060a083015184820360a08601526129728282612284565b9150508091505092915050565b61298881612eac565b82525050565b61299781612eac565b82525050565b60006129a982856122f6565b91506129b582846122f6565b91508190509392505050565b60006020820190506129d6600083018461222d565b92915050565b60006080820190506129f1600083018761222d565b6129fe602083018661222d565b612a0b604083018561298e565b8181036060830152612a1d818461224b565b905095945050505050565b6000602082019050612a3d600083018461223c565b92915050565b60006020820190508181036000830152612a5d81846122bd565b905092915050565b60006020820190508181036000830152612a7e81612327565b9050919050565b60006020820190508181036000830152612a9e8161238d565b9050919050565b60006020820190508181036000830152612abe816123f3565b9050919050565b60006020820190508181036000830152612ade81612433565b9050919050565b60006020820190508181036000830152612afe81612499565b9050919050565b60006020820190508181036000830152612b1e816124d9565b9050919050565b60006020820190508181036000830152612b3e8161253f565b9050919050565b60006020820190508181036000830152612b5e816125a5565b9050919050565b60006020820190508181036000830152612b7e8161260b565b9050919050565b60006020820190508181036000830152612b9e81612671565b9050919050565b60006020820190508181036000830152612bbe816126b1565b9050919050565b60006020820190508181036000830152612bde81612717565b9050919050565b60006020820190508181036000830152612bfe81612757565b9050919050565b60006020820190508181036000830152612c1e816127bd565b9050919050565b60006020820190508181036000830152612c3e81612823565b9050919050565b60006020820190508181036000830152612c5e81612889565b9050919050565b60006020820190508181036000830152612c7f81846128ef565b905092915050565b6000602082019050612c9c600083018461298e565b92915050565b6000604051905081810181811067ffffffffffffffff82111715612cc957612cc8613031565b5b8060405250919050565b600067ffffffffffffffff821115612cee57612ced613031565b5b601f19601f8301169050602081019050919050565b600067ffffffffffffffff821115612d1e57612d1d613031565b5b601f19601f8301169050602081019050919050565b600081519050919050565b600081519050919050565b600082825260208201905092915050565b600082825260208201905092915050565b600082825260208201905092915050565b600081905092915050565b6000612d9282612eac565b9150612d9d83612eac565b9250827fffffffffffffffffffffffffffffffffffffffffffffffffffffffffffffffff03821115612dd257612dd1612fa4565b5b828201905092915050565b6000612de882612eac565b9150612df383612eac565b925082612e0357612e02612fd3565b5b828204905092915050565b6000612e1982612eac565b9150612e2483612eac565b925082821015612e3757612e36612fa4565b5b828203905092915050565b6000612e4d82612e8c565b9050919050565b60008115159050919050565b60007fffffffff0000000000000000000000000000000000000000000000000000000082169050919050565b600073ffffffffffffffffffffffffffffffffffffffff82169050919050565b6000819050919050565b82818337600083830152505050565b60005b83811015612ee3578082015181840152602081019050612ec8565b83811115612ef2576000848401525b50505050565b60006002820490506001821680612f1057607f821691505b60208210811415612f2457612f23613002565b5b50919050565b6000612f3582612eac565b91507fffffffffffffffffffffffffffffffffffffffffffffffffffffffffffffffff821415612f6857612f67612fa4565b5b600182019050919050565b6000612f7e82612eac565b9150612f8983612eac565b925082612f9957612f98612fd3565b5b828206905092915050565b7f4e487b7100000000000000000000000000000000000000000000000000000000600052601160045260246000fd5b7f4e487b7100000000000000000000000000000000000000000000000000000000600052601260045260246000fd5b7f4e487b7100000000000000000000000000000000000000000000000000000000600052602260045260246000fd5b7f4e487b7100000000000000000000000000000000000000000000000000000000600052604160045260246000fd5b6000601f19601f8301169050919050565b61307a81612e42565b811461308557600080fd5b50565b61309181612e54565b811461309c57600080fd5b50565b6130a881612e60565b81146130b357600080fd5b50565b6130bf81612eac565b81146130ca57600080fd5b5056fea2646970667358221220d286569f606b28b794ad00ed1e07fd2b7a3f378d7718f1435afeeabe20a5c99964736f6c63430008000033",
  "immutableReferences": {},
  "source": "pragma solidity 0.8.0;\r\n\r\nimport \"../node_modules/@openzeppelin/contracts/token/ERC721/ERC721.sol\";\r\nimport \"../node_modules/@openzeppelin/contracts/access/Ownable.sol\";\r\n\r\ncontract Token is ERC721, Ownable {\r\n\r\n    struct Shiba {\r\n        uint strength;      // HP, armor\r\n        uint agility;       // evasion, crit chance\r\n        uint dexterity;     // aim, crit chance decrease\r\n\r\n        uint level;         // level\r\n\r\n        string name;        // name\r\n        string description; // description\r\n    }\r\n\r\n    uint256 nextId = 0;\r\n\r\n    mapping(uint256 => Shiba) private _tokenDetails;\r\n\r\n    constructor(string memory name, string memory symbol) ERC721(name, symbol) {\r\n    }\r\n\r\n    function mint(string memory name, string memory description, uint strength, uint agility, uint dexterity) public onlyOwner {\r\n        _tokenDetails[nextId] = Shiba(strength, agility, dexterity, 1, name, description);  \r\n        _safeMint(msg.sender, nextId);\r\n        ++nextId;\r\n    }\r\n\r\n    function upgrade(uint256 id) public {\r\n        ++_tokenDetails[id].level;\r\n    }\r\n\r\n    function getTokenDetails(uint256 id) public view returns (Shiba memory){\r\n        return _tokenDetails[id];\r\n    }\r\n\r\n}\r\n",
  "sourcePath": "D:/GitHub/shibawars/contracts/Token.sol",
  "compiler": {
    "name": "solc",
    "version": "0.8.0+commit.c7dfd78e.Emscripten.clang"
  },
  "schemaVersion": "3.4.1",
  "updatedAt": "2021-05-13T10:37:29.763Z",
  "networkType": "ethereum",
  "devdoc": {
    "kind": "dev",
    "methods": {
      "approve(address,uint256)": {
        "details": "See {IERC721-approve}."
      },
      "balanceOf(address)": {
        "details": "See {IERC721-balanceOf}."
      },
      "getApproved(uint256)": {
        "details": "See {IERC721-getApproved}."
      },
      "isApprovedForAll(address,address)": {
        "details": "See {IERC721-isApprovedForAll}."
      },
      "name()": {
        "details": "See {IERC721Metadata-name}."
      },
      "owner()": {
        "details": "Returns the address of the current owner."
      },
      "ownerOf(uint256)": {
        "details": "See {IERC721-ownerOf}."
      },
      "renounceOwnership()": {
        "details": "Leaves the contract without owner. It will not be possible to call `onlyOwner` functions anymore. Can only be called by the current owner. NOTE: Renouncing ownership will leave the contract without an owner, thereby removing any functionality that is only available to the owner."
      },
      "safeTransferFrom(address,address,uint256)": {
        "details": "See {IERC721-safeTransferFrom}."
      },
      "safeTransferFrom(address,address,uint256,bytes)": {
        "details": "See {IERC721-safeTransferFrom}."
      },
      "setApprovalForAll(address,bool)": {
        "details": "See {IERC721-setApprovalForAll}."
      },
      "supportsInterface(bytes4)": {
        "details": "See {IERC165-supportsInterface}."
      },
      "symbol()": {
        "details": "See {IERC721Metadata-symbol}."
      },
      "tokenURI(uint256)": {
        "details": "See {IERC721Metadata-tokenURI}."
      },
      "transferFrom(address,address,uint256)": {
        "details": "See {IERC721-transferFrom}."
      },
      "transferOwnership(address)": {
        "details": "Transfers ownership of the contract to a new account (`newOwner`). Can only be called by the current owner."
      }
    },
    "version": 1
  },
  "userdoc": {
    "kind": "user",
    "methods": {},
    "version": 1
  }
}