{
  "contractName": "Token",
  "abi": [
    {
      "inputs": [
        {
          "internalType": "string",
          "name": "name",
          "type": "string"
        },
        {
          "internalType": "string",
          "name": "symbol",
          "type": "string"
        }
      ],
      "stateMutability": "nonpayable",
      "type": "constructor"
    },
    {
      "anonymous": false,
      "inputs": [
        {
          "indexed": true,
          "internalType": "address",
          "name": "owner",
          "type": "address"
        },
        {
          "indexed": true,
          "internalType": "address",
          "name": "approved",
          "type": "address"
        },
        {
          "indexed": true,
          "internalType": "uint256",
          "name": "tokenId",
          "type": "uint256"
        }
      ],
      "name": "Approval",
      "type": "event"
    },
    {
      "anonymous": false,
      "inputs": [
        {
          "indexed": true,
          "internalType": "address",
          "name": "owner",
          "type": "address"
        },
        {
          "indexed": true,
          "internalType": "address",
          "name": "operator",
          "type": "address"
        },
        {
          "indexed": false,
          "internalType": "bool",
          "name": "approved",
          "type": "bool"
        }
      ],
      "name": "ApprovalForAll",
      "type": "event"
    },
    {
      "anonymous": false,
      "inputs": [
        {
          "indexed": true,
          "internalType": "address",
          "name": "previousOwner",
          "type": "address"
        },
        {
          "indexed": true,
          "internalType": "address",
          "name": "newOwner",
          "type": "address"
        }
      ],
      "name": "OwnershipTransferred",
      "type": "event"
    },
    {
      "anonymous": false,
      "inputs": [
        {
          "indexed": true,
          "internalType": "address",
          "name": "from",
          "type": "address"
        },
        {
          "indexed": true,
          "internalType": "address",
          "name": "to",
          "type": "address"
        },
        {
          "indexed": true,
          "internalType": "uint256",
          "name": "tokenId",
          "type": "uint256"
        }
      ],
      "name": "Transfer",
      "type": "event"
    },
    {
      "inputs": [
        {
          "internalType": "address",
          "name": "to",
          "type": "address"
        },
        {
          "internalType": "uint256",
          "name": "tokenId",
          "type": "uint256"
        }
      ],
      "name": "approve",
      "outputs": [],
      "stateMutability": "nonpayable",
      "type": "function"
    },
    {
      "inputs": [
        {
          "internalType": "address",
          "name": "owner",
          "type": "address"
        }
      ],
      "name": "balanceOf",
      "outputs": [
        {
          "internalType": "uint256",
          "name": "",
          "type": "uint256"
        }
      ],
      "stateMutability": "view",
      "type": "function"
    },
    {
      "inputs": [
        {
          "internalType": "uint256",
          "name": "tokenId",
          "type": "uint256"
        }
      ],
      "name": "getApproved",
      "outputs": [
        {
          "internalType": "address",
          "name": "",
          "type": "address"
        }
      ],
      "stateMutability": "view",
      "type": "function"
    },
    {
      "inputs": [
        {
          "internalType": "address",
          "name": "owner",
          "type": "address"
        },
        {
          "internalType": "address",
          "name": "operator",
          "type": "address"
        }
      ],
      "name": "isApprovedForAll",
      "outputs": [
        {
          "internalType": "bool",
          "name": "",
          "type": "bool"
        }
      ],
      "stateMutability": "view",
      "type": "function"
    },
    {
      "inputs": [],
      "name": "name",
      "outputs": [
        {
          "internalType": "string",
          "name": "",
          "type": "string"
        }
      ],
      "stateMutability": "view",
      "type": "function"
    },
    {
      "inputs": [],
      "name": "owner",
      "outputs": [
        {
          "internalType": "address",
          "name": "",
          "type": "address"
        }
      ],
      "stateMutability": "view",
      "type": "function"
    },
    {
      "inputs": [
        {
          "internalType": "uint256",
          "name": "tokenId",
          "type": "uint256"
        }
      ],
      "name": "ownerOf",
      "outputs": [
        {
          "internalType": "address",
          "name": "",
          "type": "address"
        }
      ],
      "stateMutability": "view",
      "type": "function"
    },
    {
      "inputs": [],
      "name": "renounceOwnership",
      "outputs": [],
      "stateMutability": "nonpayable",
      "type": "function"
    },
    {
      "inputs": [
        {
          "internalType": "address",
          "name": "from",
          "type": "address"
        },
        {
          "internalType": "address",
          "name": "to",
          "type": "address"
        },
        {
          "internalType": "uint256",
          "name": "tokenId",
          "type": "uint256"
        }
      ],
      "name": "safeTransferFrom",
      "outputs": [],
      "stateMutability": "nonpayable",
      "type": "function"
    },
    {
      "inputs": [
        {
          "internalType": "address",
          "name": "from",
          "type": "address"
        },
        {
          "internalType": "address",
          "name": "to",
          "type": "address"
        },
        {
          "internalType": "uint256",
          "name": "tokenId",
          "type": "uint256"
        },
        {
          "internalType": "bytes",
          "name": "_data",
          "type": "bytes"
        }
      ],
      "name": "safeTransferFrom",
      "outputs": [],
      "stateMutability": "nonpayable",
      "type": "function"
    },
    {
      "inputs": [
        {
          "internalType": "address",
          "name": "operator",
          "type": "address"
        },
        {
          "internalType": "bool",
          "name": "approved",
          "type": "bool"
        }
      ],
      "name": "setApprovalForAll",
      "outputs": [],
      "stateMutability": "nonpayable",
      "type": "function"
    },
    {
      "inputs": [
        {
          "internalType": "bytes4",
          "name": "interfaceId",
          "type": "bytes4"
        }
      ],
      "name": "supportsInterface",
      "outputs": [
        {
          "internalType": "bool",
          "name": "",
          "type": "bool"
        }
      ],
      "stateMutability": "view",
      "type": "function"
    },
    {
      "inputs": [],
      "name": "symbol",
      "outputs": [
        {
          "internalType": "string",
          "name": "",
          "type": "string"
        }
      ],
      "stateMutability": "view",
      "type": "function"
    },
    {
      "inputs": [
        {
          "internalType": "uint256",
          "name": "tokenId",
          "type": "uint256"
        }
      ],
      "name": "tokenURI",
      "outputs": [
        {
          "internalType": "string",
          "name": "",
          "type": "string"
        }
      ],
      "stateMutability": "view",
      "type": "function"
    },
    {
      "inputs": [
        {
          "internalType": "address",
          "name": "from",
          "type": "address"
        },
        {
          "internalType": "address",
          "name": "to",
          "type": "address"
        },
        {
          "internalType": "uint256",
          "name": "tokenId",
          "type": "uint256"
        }
      ],
      "name": "transferFrom",
      "outputs": [],
      "stateMutability": "nonpayable",
      "type": "function"
    },
    {
      "inputs": [
        {
          "internalType": "address",
          "name": "newOwner",
          "type": "address"
        }
      ],
      "name": "transferOwnership",
      "outputs": [],
      "stateMutability": "nonpayable",
      "type": "function"
    },
    {
      "inputs": [
        {
          "internalType": "uint256",
          "name": "strength",
          "type": "uint256"
        },
        {
          "internalType": "uint256",
          "name": "agility",
          "type": "uint256"
        },
        {
          "internalType": "uint256",
          "name": "dexterity",
          "type": "uint256"
        }
      ],
      "name": "mint",
      "outputs": [],
      "stateMutability": "nonpayable",
      "type": "function"
    },
    {
      "inputs": [
        {
          "internalType": "uint256",
          "name": "id",
          "type": "uint256"
        }
      ],
      "name": "upgrade",
      "outputs": [],
      "stateMutability": "nonpayable",
      "type": "function"
    }
  ],
  "bytecode": "0x608060405260006007553480156200001657600080fd5b506040516200303c3803806200303c83398181016040528101906200003c919062000255565b818181600090805190602001906200005692919062000133565b5080600190805190602001906200006f92919062000133565b5050506000620000846200012b60201b60201c565b905080600660006101000a81548173ffffffffffffffffffffffffffffffffffffffff021916908373ffffffffffffffffffffffffffffffffffffffff1602179055508073ffffffffffffffffffffffffffffffffffffffff16600073ffffffffffffffffffffffffffffffffffffffff167f8be0079c531659141344cd1fd0a4f28419497f9722a3daafe3b4186f6b6457e060405160405180910390a3505050620003f9565b600033905090565b828054620001419062000365565b90600052602060002090601f016020900481019282620001655760008555620001b1565b82601f106200018057805160ff1916838001178555620001b1565b82800160010185558215620001b1579182015b82811115620001b057825182559160200191906001019062000193565b5b509050620001c09190620001c4565b5090565b5b80821115620001df576000816000905550600101620001c5565b5090565b6000620001fa620001f484620002fc565b620002c8565b9050828152602081018484840111156200021357600080fd5b620002208482856200032f565b509392505050565b600082601f8301126200023a57600080fd5b81516200024c848260208601620001e3565b91505092915050565b600080604083850312156200026957600080fd5b600083015167ffffffffffffffff8111156200028457600080fd5b620002928582860162000228565b925050602083015167ffffffffffffffff811115620002b057600080fd5b620002be8582860162000228565b9150509250929050565b6000604051905081810181811067ffffffffffffffff82111715620002f257620002f1620003ca565b5b8060405250919050565b600067ffffffffffffffff8211156200031a5762000319620003ca565b5b601f19601f8301169050602081019050919050565b60005b838110156200034f57808201518184015260208101905062000332565b838111156200035f576000848401525b50505050565b600060028204905060018216806200037e57607f821691505b602082108114156200039557620003946200039b565b5b50919050565b7f4e487b7100000000000000000000000000000000000000000000000000000000600052602260045260246000fd5b7f4e487b7100000000000000000000000000000000000000000000000000000000600052604160045260246000fd5b612c3380620004096000396000f3fe608060405234801561001057600080fd5b50600436106101165760003560e01c806370a08231116100a2578063a22cb46511610071578063a22cb465146102cb578063b88d4fde146102e7578063c87b56dd14610303578063e985e9c514610333578063f2fde38b1461036357610116565b806370a0823114610255578063715018a6146102855780638da5cb5b1461028f57806395d89b41146102ad57610116565b8063095ea7b3116100e9578063095ea7b3146101b557806323b872dd146101d157806342842e0e146101ed57806345977d03146102095780636352211e1461022557610116565b806301ffc9a71461011b57806302acc94b1461014b57806306fdde0314610167578063081812fc14610185575b600080fd5b61013560048036038101906101309190611dce565b61037f565b60405161014291906125bb565b60405180910390f35b61016560048036038101906101609190611e49565b610461565b005b61016f610566565b60405161017c91906125d6565b60405180910390f35b61019f600480360381019061019a9190611e20565b6105f8565b6040516101ac9190612554565b60405180910390f35b6101cf60048036038101906101ca9190611d92565b61067d565b005b6101eb60048036038101906101e69190611c8c565b610795565b005b61020760048036038101906102029190611c8c565b6107f5565b005b610223600480360381019061021e9190611e20565b610815565b005b61023f600480360381019061023a9190611e20565b610842565b60405161024c9190612554565b60405180910390f35b61026f600480360381019061026a9190611c27565b6108f4565b60405161027c91906127f8565b60405180910390f35b61028d6109ac565b005b610297610ae9565b6040516102a49190612554565b60405180910390f35b6102b5610b13565b6040516102c291906125d6565b60405180910390f35b6102e560048036038101906102e09190611d56565b610ba5565b005b61030160048036038101906102fc9190611cdb565b610d26565b005b61031d60048036038101906103189190611e20565b610d88565b60405161032a91906125d6565b60405180910390f35b61034d60048036038101906103489190611c50565b610e2f565b60405161035a91906125bb565b60405180910390f35b61037d60048036038101906103789190611c27565b610ec3565b005b60007f80ac58cd000000000000000000000000000000000000000000000000000000007bffffffffffffffffffffffffffffffffffffffffffffffffffffffff1916827bffffffffffffffffffffffffffffffffffffffffffffffffffffffff1916148061044a57507f5b5e139f000000000000000000000000000000000000000000000000000000007bffffffffffffffffffffffffffffffffffffffffffffffffffffffff1916827bffffffffffffffffffffffffffffffffffffffffffffffffffffffff1916145b8061045a57506104598261106f565b5b9050919050565b6104696110d9565b73ffffffffffffffffffffffffffffffffffffffff16610487610ae9565b73ffffffffffffffffffffffffffffffffffffffff16146104dd576040517f08c379a00000000000000000000000000000000000000000000000000000000081526004016104d490612758565b60405180910390fd5b604051806080016040528084815260200183815260200182815260200160018152506008600060075481526020019081526020016000206000820151816000015560208201518160010155604082015181600201556060820151816003015590505061054b336007546110e1565b60076000815461055a90612a5a565b91905081905550505050565b60606000805461057590612a28565b80601f01602080910402602001604051908101604052809291908181526020018280546105a190612a28565b80156105ee5780601f106105c3576101008083540402835291602001916105ee565b820191906000526020600020905b8154815290600101906020018083116105d157829003601f168201915b5050505050905090565b6000610603826110ff565b610642576040517f08c379a000000000000000000000000000000000000000000000000000000000815260040161063990612738565b60405180910390fd5b6004600083815260200190815260200160002060009054906101000a900473ffffffffffffffffffffffffffffffffffffffff169050919050565b600061068882610842565b90508073ffffffffffffffffffffffffffffffffffffffff168373ffffffffffffffffffffffffffffffffffffffff1614156106f9576040517f08c379a00000000000000000000000000000000000000000000000000000000081526004016106f0906127b8565b60405180910390fd5b8073ffffffffffffffffffffffffffffffffffffffff166107186110d9565b73ffffffffffffffffffffffffffffffffffffffff1614806107475750610746816107416110d9565b610e2f565b5b610786576040517f08c379a000000000000000000000000000000000000000000000000000000000815260040161077d906126b8565b60405180910390fd5b610790838361116b565b505050565b6107a66107a06110d9565b82611224565b6107e5576040517f08c379a00000000000000000000000000000000000000000000000000000000081526004016107dc906127d8565b60405180910390fd5b6107f0838383611302565b505050565b61081083838360405180602001604052806000815250610d26565b505050565b600860008281526020019081526020016000206003016000815461083890612a5a565b9190508190555050565b6000806002600084815260200190815260200160002060009054906101000a900473ffffffffffffffffffffffffffffffffffffffff169050600073ffffffffffffffffffffffffffffffffffffffff168173ffffffffffffffffffffffffffffffffffffffff1614156108eb576040517f08c379a00000000000000000000000000000000000000000000000000000000081526004016108e2906126f8565b60405180910390fd5b80915050919050565b60008073ffffffffffffffffffffffffffffffffffffffff168273ffffffffffffffffffffffffffffffffffffffff161415610965576040517f08c379a000000000000000000000000000000000000000000000000000000000815260040161095c906126d8565b60405180910390fd5b600360008373ffffffffffffffffffffffffffffffffffffffff1673ffffffffffffffffffffffffffffffffffffffff168152602001908152602001600020549050919050565b6109b46110d9565b73ffffffffffffffffffffffffffffffffffffffff166109d2610ae9565b73ffffffffffffffffffffffffffffffffffffffff1614610a28576040517f08c379a0000000000000000000000000000000000000000000000000000000008152600401610a1f90612758565b60405180910390fd5b600073ffffffffffffffffffffffffffffffffffffffff16600660009054906101000a900473ffffffffffffffffffffffffffffffffffffffff1673ffffffffffffffffffffffffffffffffffffffff167f8be0079c531659141344cd1fd0a4f28419497f9722a3daafe3b4186f6b6457e060405160405180910390a36000600660006101000a81548173ffffffffffffffffffffffffffffffffffffffff021916908373ffffffffffffffffffffffffffffffffffffffff160217905550565b6000600660009054906101000a900473ffffffffffffffffffffffffffffffffffffffff16905090565b606060018054610b2290612a28565b80601f0160208091040260200160405190810160405280929190818152602001828054610b4e90612a28565b8015610b9b5780601f10610b7057610100808354040283529160200191610b9b565b820191906000526020600020905b815481529060010190602001808311610b7e57829003601f168201915b5050505050905090565b610bad6110d9565b73ffffffffffffffffffffffffffffffffffffffff168273ffffffffffffffffffffffffffffffffffffffff161415610c1b576040517f08c379a0000000000000000000000000000000000000000000000000000000008152600401610c1290612678565b60405180910390fd5b8060056000610c286110d9565b73ffffffffffffffffffffffffffffffffffffffff1673ffffffffffffffffffffffffffffffffffffffff16815260200190815260200160002060008473ffffffffffffffffffffffffffffffffffffffff1673ffffffffffffffffffffffffffffffffffffffff16815260200190815260200160002060006101000a81548160ff0219169083151502179055508173ffffffffffffffffffffffffffffffffffffffff16610cd56110d9565b73ffffffffffffffffffffffffffffffffffffffff167f17307eab39ab6107e8899845ad3d59bd9653f200f220920489ca2b5937696c3183604051610d1a91906125bb565b60405180910390a35050565b610d37610d316110d9565b83611224565b610d76576040517f08c379a0000000000000000000000000000000000000000000000000000000008152600401610d6d906127d8565b60405180910390fd5b610d828484848461155e565b50505050565b6060610d93826110ff565b610dd2576040517f08c379a0000000000000000000000000000000000000000000000000000000008152600401610dc990612798565b60405180910390fd5b6000610ddc6115ba565b90506000815111610dfc5760405180602001604052806000815250610e27565b80610e06846115d1565b604051602001610e17929190612530565b6040516020818303038152906040525b915050919050565b6000600560008473ffffffffffffffffffffffffffffffffffffffff1673ffffffffffffffffffffffffffffffffffffffff16815260200190815260200160002060008373ffffffffffffffffffffffffffffffffffffffff1673ffffffffffffffffffffffffffffffffffffffff16815260200190815260200160002060009054906101000a900460ff16905092915050565b610ecb6110d9565b73ffffffffffffffffffffffffffffffffffffffff16610ee9610ae9565b73ffffffffffffffffffffffffffffffffffffffff1614610f3f576040517f08c379a0000000000000000000000000000000000000000000000000000000008152600401610f3690612758565b60405180910390fd5b600073ffffffffffffffffffffffffffffffffffffffff168173ffffffffffffffffffffffffffffffffffffffff161415610faf576040517f08c379a0000000000000000000000000000000000000000000000000000000008152600401610fa690612618565b60405180910390fd5b8073ffffffffffffffffffffffffffffffffffffffff16600660009054906101000a900473ffffffffffffffffffffffffffffffffffffffff1673ffffffffffffffffffffffffffffffffffffffff167f8be0079c531659141344cd1fd0a4f28419497f9722a3daafe3b4186f6b6457e060405160405180910390a380600660006101000a81548173ffffffffffffffffffffffffffffffffffffffff021916908373ffffffffffffffffffffffffffffffffffffffff16021790555050565b60007f01ffc9a7000000000000000000000000000000000000000000000000000000007bffffffffffffffffffffffffffffffffffffffffffffffffffffffff1916827bffffffffffffffffffffffffffffffffffffffffffffffffffffffff1916149050919050565b600033905090565b6110fb82826040518060200160405280600081525061177e565b5050565b60008073ffffffffffffffffffffffffffffffffffffffff166002600084815260200190815260200160002060009054906101000a900473ffffffffffffffffffffffffffffffffffffffff1673ffffffffffffffffffffffffffffffffffffffff1614159050919050565b816004600083815260200190815260200160002060006101000a81548173ffffffffffffffffffffffffffffffffffffffff021916908373ffffffffffffffffffffffffffffffffffffffff160217905550808273ffffffffffffffffffffffffffffffffffffffff166111de83610842565b73ffffffffffffffffffffffffffffffffffffffff167f8c5be1e5ebec7d5bd14f71427d1e84f3dd0314c0f7b2291e5b200ac8c7c3b92560405160405180910390a45050565b600061122f826110ff565b61126e576040517f08c379a000000000000000000000000000000000000000000000000000000000815260040161126590612698565b60405180910390fd5b600061127983610842565b90508073ffffffffffffffffffffffffffffffffffffffff168473ffffffffffffffffffffffffffffffffffffffff1614806112e857508373ffffffffffffffffffffffffffffffffffffffff166112d0846105f8565b73ffffffffffffffffffffffffffffffffffffffff16145b806112f957506112f88185610e2f565b5b91505092915050565b8273ffffffffffffffffffffffffffffffffffffffff1661132282610842565b73ffffffffffffffffffffffffffffffffffffffff1614611378576040517f08c379a000000000000000000000000000000000000000000000000000000000815260040161136f90612778565b60405180910390fd5b600073ffffffffffffffffffffffffffffffffffffffff168273ffffffffffffffffffffffffffffffffffffffff1614156113e8576040517f08c379a00000000000000000000000000000000000000000000000000000000081526004016113df90612658565b60405180910390fd5b6113f38383836117d9565b6113fe60008261116b565b6001600360008573ffffffffffffffffffffffffffffffffffffffff1673ffffffffffffffffffffffffffffffffffffffff168152602001908152602001600020600082825461144e919061293e565b925050819055506001600360008473ffffffffffffffffffffffffffffffffffffffff1673ffffffffffffffffffffffffffffffffffffffff16815260200190815260200160002060008282546114a591906128b7565b92505081905550816002600083815260200190815260200160002060006101000a81548173ffffffffffffffffffffffffffffffffffffffff021916908373ffffffffffffffffffffffffffffffffffffffff160217905550808273ffffffffffffffffffffffffffffffffffffffff168473ffffffffffffffffffffffffffffffffffffffff167fddf252ad1be2c89b69c2b068fc378daa952ba7f163c4a11628f55a4df523b3ef60405160405180910390a4505050565b611569848484611302565b611575848484846117de565b6115b4576040517f08c379a00000000000000000000000000000000000000000000000000000000081526004016115ab906125f8565b60405180910390fd5b50505050565b606060405180602001604052806000815250905090565b60606000821415611619576040518060400160405280600181526020017f30000000000000000000000000000000000000000000000000000000000000008152509050611779565b600082905060005b6000821461164b57808061163490612a5a565b915050600a82611644919061290d565b9150611621565b60008167ffffffffffffffff81111561168d577f4e487b7100000000000000000000000000000000000000000000000000000000600052604160045260246000fd5b6040519080825280601f01601f1916602001820160405280156116bf5781602001600182028036833780820191505090505b5090505b60008514611772576001826116d8919061293e565b9150600a856116e79190612aa3565b60306116f391906128b7565b60f81b81838151811061172f577f4e487b7100000000000000000000000000000000000000000000000000000000600052603260045260246000fd5b60200101907effffffffffffffffffffffffffffffffffffffffffffffffffffffffffffff1916908160001a905350600a8561176b919061290d565b94506116c3565b8093505050505b919050565b6117888383611975565b61179560008484846117de565b6117d4576040517f08c379a00000000000000000000000000000000000000000000000000000000081526004016117cb906125f8565b60405180910390fd5b505050565b505050565b60006117ff8473ffffffffffffffffffffffffffffffffffffffff16611b43565b15611968578373ffffffffffffffffffffffffffffffffffffffff1663150b7a026118286110d9565b8786866040518563ffffffff1660e01b815260040161184a949392919061256f565b602060405180830381600087803b15801561186457600080fd5b505af192505050801561189557506040513d601f19601f820116820180604052508101906118929190611df7565b60015b611918573d80600081146118c5576040519150601f19603f3d011682016040523d82523d6000602084013e6118ca565b606091505b50600081511415611910576040517f08c379a0000000000000000000000000000000000000000000000000000000008152600401611907906125f8565b60405180910390fd5b805181602001fd5b63150b7a0260e01b7bffffffffffffffffffffffffffffffffffffffffffffffffffffffff1916817bffffffffffffffffffffffffffffffffffffffffffffffffffffffff19161491505061196d565b600190505b949350505050565b600073ffffffffffffffffffffffffffffffffffffffff168273ffffffffffffffffffffffffffffffffffffffff1614156119e5576040517f08c379a00000000000000000000000000000000000000000000000000000000081526004016119dc90612718565b60405180910390fd5b6119ee816110ff565b15611a2e576040517f08c379a0000000000000000000000000000000000000000000000000000000008152600401611a2590612638565b60405180910390fd5b611a3a600083836117d9565b6001600360008473ffffffffffffffffffffffffffffffffffffffff1673ffffffffffffffffffffffffffffffffffffffff1681526020019081526020016000206000828254611a8a91906128b7565b92505081905550816002600083815260200190815260200160002060006101000a81548173ffffffffffffffffffffffffffffffffffffffff021916908373ffffffffffffffffffffffffffffffffffffffff160217905550808273ffffffffffffffffffffffffffffffffffffffff16600073ffffffffffffffffffffffffffffffffffffffff167fddf252ad1be2c89b69c2b068fc378daa952ba7f163c4a11628f55a4df523b3ef60405160405180910390a45050565b600080823b905060008111915050919050565b6000611b69611b6484612844565b612813565b905082815260208101848484011115611b8157600080fd5b611b8c8482856129e6565b509392505050565b600081359050611ba381612ba1565b92915050565b600081359050611bb881612bb8565b92915050565b600081359050611bcd81612bcf565b92915050565b600081519050611be281612bcf565b92915050565b600082601f830112611bf957600080fd5b8135611c09848260208601611b56565b91505092915050565b600081359050611c2181612be6565b92915050565b600060208284031215611c3957600080fd5b6000611c4784828501611b94565b91505092915050565b60008060408385031215611c6357600080fd5b6000611c7185828601611b94565b9250506020611c8285828601611b94565b9150509250929050565b600080600060608486031215611ca157600080fd5b6000611caf86828701611b94565b9350506020611cc086828701611b94565b9250506040611cd186828701611c12565b9150509250925092565b60008060008060808587031215611cf157600080fd5b6000611cff87828801611b94565b9450506020611d1087828801611b94565b9350506040611d2187828801611c12565b925050606085013567ffffffffffffffff811115611d3e57600080fd5b611d4a87828801611be8565b91505092959194509250565b60008060408385031215611d6957600080fd5b6000611d7785828601611b94565b9250506020611d8885828601611ba9565b9150509250929050565b60008060408385031215611da557600080fd5b6000611db385828601611b94565b9250506020611dc485828601611c12565b9150509250929050565b600060208284031215611de057600080fd5b6000611dee84828501611bbe565b91505092915050565b600060208284031215611e0957600080fd5b6000611e1784828501611bd3565b91505092915050565b600060208284031215611e3257600080fd5b6000611e4084828501611c12565b91505092915050565b600080600060608486031215611e5e57600080fd5b6000611e6c86828701611c12565b9350506020611e7d86828701611c12565b9250506040611e8e86828701611c12565b9150509250925092565b611ea181612972565b82525050565b611eb081612984565b82525050565b6000611ec182612874565b611ecb818561288a565b9350611edb8185602086016129f5565b611ee481612b90565b840191505092915050565b6000611efa8261287f565b611f04818561289b565b9350611f148185602086016129f5565b611f1d81612b90565b840191505092915050565b6000611f338261287f565b611f3d81856128ac565b9350611f4d8185602086016129f5565b80840191505092915050565b6000611f6660328361289b565b91507f4552433732313a207472616e7366657220746f206e6f6e20455243373231526560008301527f63656976657220696d706c656d656e74657200000000000000000000000000006020830152604082019050919050565b6000611fcc60268361289b565b91507f4f776e61626c653a206e6577206f776e657220697320746865207a65726f206160008301527f64647265737300000000000000000000000000000000000000000000000000006020830152604082019050919050565b6000612032601c8361289b565b91507f4552433732313a20746f6b656e20616c7265616479206d696e746564000000006000830152602082019050919050565b600061207260248361289b565b91507f4552433732313a207472616e7366657220746f20746865207a65726f2061646460008301527f72657373000000000000000000000000000000000000000000000000000000006020830152604082019050919050565b60006120d860198361289b565b91507f4552433732313a20617070726f766520746f2063616c6c6572000000000000006000830152602082019050919050565b6000612118602c8361289b565b91507f4552433732313a206f70657261746f7220717565727920666f72206e6f6e657860008301527f697374656e7420746f6b656e00000000000000000000000000000000000000006020830152604082019050919050565b600061217e60388361289b565b91507f4552433732313a20617070726f76652063616c6c6572206973206e6f74206f7760008301527f6e6572206e6f7220617070726f76656420666f7220616c6c00000000000000006020830152604082019050919050565b60006121e4602a8361289b565b91507f4552433732313a2062616c616e636520717565727920666f7220746865207a6560008301527f726f2061646472657373000000000000000000000000000000000000000000006020830152604082019050919050565b600061224a60298361289b565b91507f4552433732313a206f776e657220717565727920666f72206e6f6e657869737460008301527f656e7420746f6b656e00000000000000000000000000000000000000000000006020830152604082019050919050565b60006122b060208361289b565b91507f4552433732313a206d696e7420746f20746865207a65726f20616464726573736000830152602082019050919050565b60006122f0602c8361289b565b91507f4552433732313a20617070726f76656420717565727920666f72206e6f6e657860008301527f697374656e7420746f6b656e00000000000000000000000000000000000000006020830152604082019050919050565b600061235660208361289b565b91507f4f776e61626c653a2063616c6c6572206973206e6f7420746865206f776e65726000830152602082019050919050565b600061239660298361289b565b91507f4552433732313a207472616e73666572206f6620746f6b656e2074686174206960008301527f73206e6f74206f776e00000000000000000000000000000000000000000000006020830152604082019050919050565b60006123fc602f8361289b565b91507f4552433732314d657461646174613a2055524920717565727920666f72206e6f60008301527f6e6578697374656e7420746f6b656e00000000000000000000000000000000006020830152604082019050919050565b600061246260218361289b565b91507f4552433732313a20617070726f76616c20746f2063757272656e74206f776e6560008301527f72000000000000000000000000000000000000000000000000000000000000006020830152604082019050919050565b60006124c860318361289b565b91507f4552433732313a207472616e736665722063616c6c6572206973206e6f74206f60008301527f776e6572206e6f7220617070726f7665640000000000000000000000000000006020830152604082019050919050565b61252a816129dc565b82525050565b600061253c8285611f28565b91506125488284611f28565b91508190509392505050565b60006020820190506125696000830184611e98565b92915050565b60006080820190506125846000830187611e98565b6125916020830186611e98565b61259e6040830185612521565b81810360608301526125b08184611eb6565b905095945050505050565b60006020820190506125d06000830184611ea7565b92915050565b600060208201905081810360008301526125f08184611eef565b905092915050565b6000602082019050818103600083015261261181611f59565b9050919050565b6000602082019050818103600083015261263181611fbf565b9050919050565b6000602082019050818103600083015261265181612025565b9050919050565b6000602082019050818103600083015261267181612065565b9050919050565b60006020820190508181036000830152612691816120cb565b9050919050565b600060208201905081810360008301526126b18161210b565b9050919050565b600060208201905081810360008301526126d181612171565b9050919050565b600060208201905081810360008301526126f1816121d7565b9050919050565b600060208201905081810360008301526127118161223d565b9050919050565b60006020820190508181036000830152612731816122a3565b9050919050565b60006020820190508181036000830152612751816122e3565b9050919050565b6000602082019050818103600083015261277181612349565b9050919050565b6000602082019050818103600083015261279181612389565b9050919050565b600060208201905081810360008301526127b1816123ef565b9050919050565b600060208201905081810360008301526127d181612455565b9050919050565b600060208201905081810360008301526127f1816124bb565b9050919050565b600060208201905061280d6000830184612521565b92915050565b6000604051905081810181811067ffffffffffffffff8211171561283a57612839612b61565b5b8060405250919050565b600067ffffffffffffffff82111561285f5761285e612b61565b5b601f19601f8301169050602081019050919050565b600081519050919050565b600081519050919050565b600082825260208201905092915050565b600082825260208201905092915050565b600081905092915050565b60006128c2826129dc565b91506128cd836129dc565b9250827fffffffffffffffffffffffffffffffffffffffffffffffffffffffffffffffff0382111561290257612901612ad4565b5b828201905092915050565b6000612918826129dc565b9150612923836129dc565b92508261293357612932612b03565b5b828204905092915050565b6000612949826129dc565b9150612954836129dc565b92508282101561296757612966612ad4565b5b828203905092915050565b600061297d826129bc565b9050919050565b60008115159050919050565b60007fffffffff0000000000000000000000000000000000000000000000000000000082169050919050565b600073ffffffffffffffffffffffffffffffffffffffff82169050919050565b6000819050919050565b82818337600083830152505050565b60005b83811015612a135780820151818401526020810190506129f8565b83811115612a22576000848401525b50505050565b60006002820490506001821680612a4057607f821691505b60208210811415612a5457612a53612b32565b5b50919050565b6000612a65826129dc565b91507fffffffffffffffffffffffffffffffffffffffffffffffffffffffffffffffff821415612a9857612a97612ad4565b5b600182019050919050565b6000612aae826129dc565b9150612ab9836129dc565b925082612ac957612ac8612b03565b5b828206905092915050565b7f4e487b7100000000000000000000000000000000000000000000000000000000600052601160045260246000fd5b7f4e487b7100000000000000000000000000000000000000000000000000000000600052601260045260246000fd5b7f4e487b7100000000000000000000000000000000000000000000000000000000600052602260045260246000fd5b7f4e487b7100000000000000000000000000000000000000000000000000000000600052604160045260246000fd5b6000601f19601f8301169050919050565b612baa81612972565b8114612bb557600080fd5b50565b612bc181612984565b8114612bcc57600080fd5b50565b612bd881612990565b8114612be357600080fd5b50565b612bef816129dc565b8114612bfa57600080fd5b5056fea264697066735822122089a5a3c3898509650462865124d47cd7cd35cefe2ced20fab03c9475dddb256e64736f6c63430008000033",
  "immutableReferences": {},
  "source": "pragma solidity 0.8.0;\r\n\r\nimport \"../node_modules/@openzeppelin/contracts/token/ERC721/ERC721.sol\";\r\nimport \"../node_modules/@openzeppelin/contracts/access/Ownable.sol\";\r\n\r\ncontract Token is ERC721, Ownable {\r\n\r\n    struct Shiba {\r\n        uint strength;      // HP, armor\r\n        uint agility;       // evasion, crit chance\r\n        uint dexterity;     // aim, crit chance decrease\r\n\r\n        uint level;         // level\r\n    }\r\n\r\n    uint256 nextId = 0;\r\n\r\n    mapping(uint256 => Shiba) private _tokenDetails;\r\n\r\n    constructor(string memory name, string memory symbol) ERC721(name, symbol) {\r\n\r\n    }\r\n\r\n    function mint(uint strength, uint agility, uint dexterity) public onlyOwner {\r\n        _tokenDetails[nextId] = Shiba(strength, agility, dexterity, 1);  \r\n        _safeMint(msg.sender, nextId);\r\n        ++nextId;\r\n    }\r\n\r\n    function upgrade(uint256 id) public {\r\n        ++_tokenDetails[id].level;\r\n    }\r\n\r\n}\r\n",
  "sourcePath": "D:/GitHub/shibawars/contracts/Token.sol",
  "compiler": {
    "name": "solc",
    "version": "0.8.0+commit.c7dfd78e.Emscripten.clang"
  },
  "schemaVersion": "3.4.1",
  "updatedAt": "2021-05-12T14:04:39.920Z",
  "devdoc": {
    "kind": "dev",
    "methods": {
      "approve(address,uint256)": {
        "details": "See {IERC721-approve}."
      },
      "balanceOf(address)": {
        "details": "See {IERC721-balanceOf}."
      },
      "getApproved(uint256)": {
        "details": "See {IERC721-getApproved}."
      },
      "isApprovedForAll(address,address)": {
        "details": "See {IERC721-isApprovedForAll}."
      },
      "name()": {
        "details": "See {IERC721Metadata-name}."
      },
      "owner()": {
        "details": "Returns the address of the current owner."
      },
      "ownerOf(uint256)": {
        "details": "See {IERC721-ownerOf}."
      },
      "renounceOwnership()": {
        "details": "Leaves the contract without owner. It will not be possible to call `onlyOwner` functions anymore. Can only be called by the current owner. NOTE: Renouncing ownership will leave the contract without an owner, thereby removing any functionality that is only available to the owner."
      },
      "safeTransferFrom(address,address,uint256)": {
        "details": "See {IERC721-safeTransferFrom}."
      },
      "safeTransferFrom(address,address,uint256,bytes)": {
        "details": "See {IERC721-safeTransferFrom}."
      },
      "setApprovalForAll(address,bool)": {
        "details": "See {IERC721-setApprovalForAll}."
      },
      "supportsInterface(bytes4)": {
        "details": "See {IERC165-supportsInterface}."
      },
      "symbol()": {
        "details": "See {IERC721Metadata-symbol}."
      },
      "tokenURI(uint256)": {
        "details": "See {IERC721Metadata-tokenURI}."
      },
      "transferFrom(address,address,uint256)": {
        "details": "See {IERC721-transferFrom}."
      },
      "transferOwnership(address)": {
        "details": "Transfers ownership of the contract to a new account (`newOwner`). Can only be called by the current owner."
      }
    },
    "version": 1
  },
  "userdoc": {
    "kind": "user",
    "methods": {},
    "version": 1
  }
}