{
  "contractName": "Token",
  "abi": [
    {
      "inputs": [
        {
          "internalType": "string",
          "name": "name",
          "type": "string"
        },
        {
          "internalType": "string",
          "name": "symbol",
          "type": "string"
        }
      ],
      "stateMutability": "nonpayable",
      "type": "constructor"
    },
    {
      "anonymous": false,
      "inputs": [
        {
          "indexed": true,
          "internalType": "address",
          "name": "owner",
          "type": "address"
        },
        {
          "indexed": true,
          "internalType": "address",
          "name": "approved",
          "type": "address"
        },
        {
          "indexed": true,
          "internalType": "uint256",
          "name": "tokenId",
          "type": "uint256"
        }
      ],
      "name": "Approval",
      "type": "event"
    },
    {
      "anonymous": false,
      "inputs": [
        {
          "indexed": true,
          "internalType": "address",
          "name": "owner",
          "type": "address"
        },
        {
          "indexed": true,
          "internalType": "address",
          "name": "operator",
          "type": "address"
        },
        {
          "indexed": false,
          "internalType": "bool",
          "name": "approved",
          "type": "bool"
        }
      ],
      "name": "ApprovalForAll",
      "type": "event"
    },
    {
      "anonymous": false,
      "inputs": [
        {
          "indexed": true,
          "internalType": "address",
          "name": "previousOwner",
          "type": "address"
        },
        {
          "indexed": true,
          "internalType": "address",
          "name": "newOwner",
          "type": "address"
        }
      ],
      "name": "OwnershipTransferred",
      "type": "event"
    },
    {
      "anonymous": false,
      "inputs": [
        {
          "indexed": true,
          "internalType": "address",
          "name": "from",
          "type": "address"
        },
        {
          "indexed": true,
          "internalType": "address",
          "name": "to",
          "type": "address"
        },
        {
          "indexed": true,
          "internalType": "uint256",
          "name": "tokenId",
          "type": "uint256"
        }
      ],
      "name": "Transfer",
      "type": "event"
    },
    {
      "inputs": [
        {
          "internalType": "address",
          "name": "to",
          "type": "address"
        },
        {
          "internalType": "uint256",
          "name": "tokenId",
          "type": "uint256"
        }
      ],
      "name": "approve",
      "outputs": [],
      "stateMutability": "nonpayable",
      "type": "function"
    },
    {
      "inputs": [
        {
          "internalType": "address",
          "name": "owner",
          "type": "address"
        }
      ],
      "name": "balanceOf",
      "outputs": [
        {
          "internalType": "uint256",
          "name": "",
          "type": "uint256"
        }
      ],
      "stateMutability": "view",
      "type": "function",
      "constant": true
    },
    {
      "inputs": [
        {
          "internalType": "uint256",
          "name": "tokenId",
          "type": "uint256"
        }
      ],
      "name": "getApproved",
      "outputs": [
        {
          "internalType": "address",
          "name": "",
          "type": "address"
        }
      ],
      "stateMutability": "view",
      "type": "function",
      "constant": true
    },
    {
      "inputs": [
        {
          "internalType": "address",
          "name": "owner",
          "type": "address"
        },
        {
          "internalType": "address",
          "name": "operator",
          "type": "address"
        }
      ],
      "name": "isApprovedForAll",
      "outputs": [
        {
          "internalType": "bool",
          "name": "",
          "type": "bool"
        }
      ],
      "stateMutability": "view",
      "type": "function",
      "constant": true
    },
    {
      "inputs": [],
      "name": "name",
      "outputs": [
        {
          "internalType": "string",
          "name": "",
          "type": "string"
        }
      ],
      "stateMutability": "view",
      "type": "function",
      "constant": true
    },
    {
      "inputs": [],
      "name": "owner",
      "outputs": [
        {
          "internalType": "address",
          "name": "",
          "type": "address"
        }
      ],
      "stateMutability": "view",
      "type": "function",
      "constant": true
    },
    {
      "inputs": [
        {
          "internalType": "uint256",
          "name": "tokenId",
          "type": "uint256"
        }
      ],
      "name": "ownerOf",
      "outputs": [
        {
          "internalType": "address",
          "name": "",
          "type": "address"
        }
      ],
      "stateMutability": "view",
      "type": "function",
      "constant": true
    },
    {
      "inputs": [],
      "name": "renounceOwnership",
      "outputs": [],
      "stateMutability": "nonpayable",
      "type": "function"
    },
    {
      "inputs": [
        {
          "internalType": "address",
          "name": "from",
          "type": "address"
        },
        {
          "internalType": "address",
          "name": "to",
          "type": "address"
        },
        {
          "internalType": "uint256",
          "name": "tokenId",
          "type": "uint256"
        }
      ],
      "name": "safeTransferFrom",
      "outputs": [],
      "stateMutability": "nonpayable",
      "type": "function"
    },
    {
      "inputs": [
        {
          "internalType": "address",
          "name": "from",
          "type": "address"
        },
        {
          "internalType": "address",
          "name": "to",
          "type": "address"
        },
        {
          "internalType": "uint256",
          "name": "tokenId",
          "type": "uint256"
        },
        {
          "internalType": "bytes",
          "name": "_data",
          "type": "bytes"
        }
      ],
      "name": "safeTransferFrom",
      "outputs": [],
      "stateMutability": "nonpayable",
      "type": "function"
    },
    {
      "inputs": [
        {
          "internalType": "address",
          "name": "operator",
          "type": "address"
        },
        {
          "internalType": "bool",
          "name": "approved",
          "type": "bool"
        }
      ],
      "name": "setApprovalForAll",
      "outputs": [],
      "stateMutability": "nonpayable",
      "type": "function"
    },
    {
      "inputs": [
        {
          "internalType": "bytes4",
          "name": "interfaceId",
          "type": "bytes4"
        }
      ],
      "name": "supportsInterface",
      "outputs": [
        {
          "internalType": "bool",
          "name": "",
          "type": "bool"
        }
      ],
      "stateMutability": "view",
      "type": "function",
      "constant": true
    },
    {
      "inputs": [],
      "name": "symbol",
      "outputs": [
        {
          "internalType": "string",
          "name": "",
          "type": "string"
        }
      ],
      "stateMutability": "view",
      "type": "function",
      "constant": true
    },
    {
      "inputs": [
        {
          "internalType": "uint256",
          "name": "tokenId",
          "type": "uint256"
        }
      ],
      "name": "tokenURI",
      "outputs": [
        {
          "internalType": "string",
          "name": "",
          "type": "string"
        }
      ],
      "stateMutability": "view",
      "type": "function",
      "constant": true
    },
    {
      "inputs": [
        {
          "internalType": "address",
          "name": "from",
          "type": "address"
        },
        {
          "internalType": "address",
          "name": "to",
          "type": "address"
        },
        {
          "internalType": "uint256",
          "name": "tokenId",
          "type": "uint256"
        }
      ],
      "name": "transferFrom",
      "outputs": [],
      "stateMutability": "nonpayable",
      "type": "function"
    },
    {
      "inputs": [
        {
          "internalType": "address",
          "name": "newOwner",
          "type": "address"
        }
      ],
      "name": "transferOwnership",
      "outputs": [],
      "stateMutability": "nonpayable",
      "type": "function"
    },
    {
      "inputs": [
        {
          "internalType": "uint256",
          "name": "tokenId",
          "type": "uint256"
        },
        {
          "internalType": "uint256",
          "name": "strength",
          "type": "uint256"
        },
        {
          "internalType": "uint256",
          "name": "agility",
          "type": "uint256"
        },
        {
          "internalType": "uint256",
          "name": "dexterity",
          "type": "uint256"
        }
      ],
      "name": "mint",
      "outputs": [],
      "stateMutability": "nonpayable",
      "type": "function"
    },
    {
      "inputs": [
        {
          "internalType": "uint256",
          "name": "tokenId",
          "type": "uint256"
        }
      ],
      "name": "canFight",
      "outputs": [
        {
          "internalType": "bool",
          "name": "",
          "type": "bool"
        }
      ],
      "stateMutability": "view",
      "type": "function",
      "constant": true
    },
    {
      "inputs": [
        {
          "internalType": "address",
          "name": "user",
          "type": "address"
        }
      ],
      "name": "getUserTokens",
      "outputs": [
        {
          "internalType": "uint256[]",
          "name": "",
          "type": "uint256[]"
        }
      ],
      "stateMutability": "view",
      "type": "function",
      "constant": true
    },
    {
      "inputs": [
        {
          "internalType": "address",
          "name": "user",
          "type": "address"
        }
      ],
      "name": "userShibBalance",
      "outputs": [
        {
          "internalType": "uint256",
          "name": "",
          "type": "uint256"
        }
      ],
      "stateMutability": "view",
      "type": "function",
      "constant": true
    },
    {
      "inputs": [],
      "name": "buyShiba",
      "outputs": [],
      "stateMutability": "nonpayable",
      "type": "function"
    },
    {
      "inputs": [
        {
          "internalType": "uint256",
          "name": "id",
          "type": "uint256"
        }
      ],
      "name": "levelUp",
      "outputs": [],
      "stateMutability": "nonpayable",
      "type": "function"
    },
    {
      "inputs": [
        {
          "internalType": "uint256",
          "name": "id",
          "type": "uint256"
        }
      ],
      "name": "getTokenDetails",
      "outputs": [
        {
          "components": [
            {
              "internalType": "uint256",
              "name": "strength",
              "type": "uint256"
            },
            {
              "internalType": "uint256",
              "name": "agility",
              "type": "uint256"
            },
            {
              "internalType": "uint256",
              "name": "dexterity",
              "type": "uint256"
            },
            {
              "internalType": "uint256",
              "name": "strengthGain",
              "type": "uint256"
            },
            {
              "internalType": "uint256",
              "name": "agilityGain",
              "type": "uint256"
            },
            {
              "internalType": "uint256",
              "name": "dexterityGain",
              "type": "uint256"
            },
            {
              "internalType": "uint256",
              "name": "level",
              "type": "uint256"
            },
            {
              "internalType": "uint256",
              "name": "arenaScore",
              "type": "uint256"
            },
            {
              "internalType": "uint256",
              "name": "tokenId",
              "type": "uint256"
            },
            {
              "internalType": "string",
              "name": "name",
              "type": "string"
            },
            {
              "internalType": "string",
              "name": "description",
              "type": "string"
            }
          ],
          "internalType": "struct Token.Shiba",
          "name": "",
          "type": "tuple"
        }
      ],
      "stateMutability": "view",
      "type": "function",
      "constant": true
    }
  ],
  "bytecode": "0x608060405260006007553480156200001657600080fd5b5060405162004fc138038062004fc183398181016040528101906200003c919062000255565b818181600090805190602001906200005692919062000133565b5080600190805190602001906200006f92919062000133565b5050506000620000846200012b60201b60201c565b905080600660006101000a81548173ffffffffffffffffffffffffffffffffffffffff021916908373ffffffffffffffffffffffffffffffffffffffff1602179055508073ffffffffffffffffffffffffffffffffffffffff16600073ffffffffffffffffffffffffffffffffffffffff167f8be0079c531659141344cd1fd0a4f28419497f9722a3daafe3b4186f6b6457e060405160405180910390a3505050620003f9565b600033905090565b828054620001419062000365565b90600052602060002090601f016020900481019282620001655760008555620001b1565b82601f106200018057805160ff1916838001178555620001b1565b82800160010185558215620001b1579182015b82811115620001b057825182559160200191906001019062000193565b5b509050620001c09190620001c4565b5090565b5b80821115620001df576000816000905550600101620001c5565b5090565b6000620001fa620001f484620002fc565b620002c8565b9050828152602081018484840111156200021357600080fd5b620002208482856200032f565b509392505050565b600082601f8301126200023a57600080fd5b81516200024c848260208601620001e3565b91505092915050565b600080604083850312156200026957600080fd5b600083015167ffffffffffffffff8111156200028457600080fd5b620002928582860162000228565b925050602083015167ffffffffffffffff811115620002b057600080fd5b620002be8582860162000228565b9150509250929050565b6000604051905081810181811067ffffffffffffffff82111715620002f257620002f1620003ca565b5b8060405250919050565b600067ffffffffffffffff8211156200031a5762000319620003ca565b5b601f19601f8301169050602081019050919050565b60005b838110156200034f57808201518184015260208101905062000332565b838111156200035f576000848401525b50505050565b600060028204905060018216806200037e57607f821691505b602082108114156200039557620003946200039b565b5b50919050565b7f4e487b7100000000000000000000000000000000000000000000000000000000600052602260045260246000fd5b7f4e487b7100000000000000000000000000000000000000000000000000000000600052604160045260246000fd5b614bb880620004096000396000f3fe608060405234801561001057600080fd5b506004361061014d5760003560e01c80636582ccd3116100c3578063a22fb0b51161007c578063a22fb0b514610388578063b88d4fde146103b8578063c1e03728146103d4578063c87b56dd14610404578063e985e9c514610434578063f2fde38b146104645761014d565b80636582ccd3146102da57806370a08231146102f6578063715018a6146103265780638da5cb5b1461033057806395d89b411461034e578063a22cb4651461036c5761014d565b8063233573b411610115578063233573b41461020857806323b872dd146102385780632aafe0841461025457806342842e0e1461025e578063519dc8d21461027a5780636352211e146102aa5761014d565b806301ffc9a71461015257806306fdde0314610182578063081812fc146101a0578063095ea7b3146101d05780630ce90ec2146101ec575b600080fd5b61016c60048036038101906101679190613476565b610480565b6040516101799190614022565b60405180910390f35b61018a610562565b604051610197919061403d565b60405180910390f35b6101ba60048036038101906101b591906134c8565b6105f4565b6040516101c79190613f39565b60405180910390f35b6101ea60048036038101906101e59190613411565b610679565b005b610206600480360381019061020191906134c8565b610791565b005b610222600480360381019061021d91906134c8565b610887565b60405161022f9190614022565b60405180910390f35b610252600480360381019061024d919061330b565b6108c4565b005b61025c610924565b005b6102786004803603810190610273919061330b565b610e2c565b005b610294600480360381019061028f91906132a6565b610e4c565b6040516102a19190614000565b60405180910390f35b6102c460048036038101906102bf91906134c8565b61100a565b6040516102d19190613f39565b60405180910390f35b6102f460048036038101906102ef919061351a565b6110bc565b005b610310600480360381019061030b91906132a6565b611291565b60405161031d91906142c1565b60405180910390f35b61032e611349565b005b610338611486565b6040516103459190613f39565b60405180910390f35b6103566114b0565b604051610363919061403d565b60405180910390f35b610386600480360381019061038191906133d5565b611542565b005b6103a2600480360381019061039d91906132a6565b6116c3565b6040516103af91906142c1565b60405180910390f35b6103d260048036038101906103cd919061335a565b611769565b005b6103ee60048036038101906103e991906134c8565b6117cb565b6040516103fb919061429f565b60405180910390f35b61041e600480360381019061041991906134c8565b611977565b60405161042b919061403d565b60405180910390f35b61044e600480360381019061044991906132cf565b611a1e565b60405161045b9190614022565b60405180910390f35b61047e600480360381019061047991906132a6565b611ab2565b005b60007f80ac58cd000000000000000000000000000000000000000000000000000000007bffffffffffffffffffffffffffffffffffffffffffffffffffffffff1916827bffffffffffffffffffffffffffffffffffffffffffffffffffffffff1916148061054b57507f5b5e139f000000000000000000000000000000000000000000000000000000007bffffffffffffffffffffffffffffffffffffffffffffffffffffffff1916827bffffffffffffffffffffffffffffffffffffffffffffffffffffffff1916145b8061055b575061055a82611c5e565b5b9050919050565b60606000805461057190614595565b80601f016020809104026020016040519081016040528092919081815260200182805461059d90614595565b80156105ea5780601f106105bf576101008083540402835291602001916105ea565b820191906000526020600020905b8154815290600101906020018083116105cd57829003601f168201915b5050505050905090565b60006105ff82611cc8565b61063e576040517f08c379a0000000000000000000000000000000000000000000000000000000008152600401610635906141df565b60405180910390fd5b6004600083815260200190815260200160002060009054906101000a900473ffffffffffffffffffffffffffffffffffffffff169050919050565b60006106848261100a565b90508073ffffffffffffffffffffffffffffffffffffffff168373ffffffffffffffffffffffffffffffffffffffff1614156106f5576040517f08c379a00000000000000000000000000000000000000000000000000000000081526004016106ec9061425f565b60405180910390fd5b8073ffffffffffffffffffffffffffffffffffffffff16610714611d34565b73ffffffffffffffffffffffffffffffffffffffff16148061074357506107428161073d611d34565b611a1e565b5b610782576040517f08c379a00000000000000000000000000000000000000000000000000000000081526004016107799061415f565b60405180910390fd5b61078c8383611d3c565b505050565b60086000828152602001908152602001600020600601600081546107b4906145c7565b9190508190555060086000828152602001908152602001600020600301546008600083815260200190815260200160002060000160008282546107f791906143ca565b92505081905550600860008281526020019081526020016000206004015460086000838152602001908152602001600020600101600082825461083a91906143ca565b92505081905550600860008281526020019081526020016000206005015460086000838152602001908152602001600020600201600082825461087d91906143ca565b9250508190555050565b600080600860008481526020019081526020016000206008015490506001811180156108bc575060006108b982611df5565b14155b915050919050565b6108d56108cf611d34565b82611f3f565b610914576040517f08c379a000000000000000000000000000000000000000000000000000000000815260040161090b9061427f565b60405180910390fd5b61091f83838361201d565b505050565b60006305f5e100905080610937336116c3565b1015610978576040517f08c379a000000000000000000000000000000000000000000000000000000000815260040161096f906140df565b60405180910390fd5b80736258d3497b01a273620ed138d4f214661a283eb473ffffffffffffffffffffffffffffffffffffffff1663dd62ed3e33306040518363ffffffff1660e01b81526004016109c8929190613f54565b60206040518083038186803b1580156109e057600080fd5b505afa1580156109f4573d6000803e3d6000fd5b505050506040513d601f19601f82011682018060405250810190610a1891906134f1565b1015610a59576040517f08c379a0000000000000000000000000000000000000000000000000000000008152600401610a509061405f565b60405180910390fd5b736258d3497b01a273620ed138d4f214661a283eb473ffffffffffffffffffffffffffffffffffffffff166323b872dd3330846040518463ffffffff1660e01b8152600401610aaa93929190613f7d565b602060405180830381600087803b158015610ac457600080fd5b505af1158015610ad8573d6000803e3d6000fd5b505050506040513d601f19601f82011682018060405250810190610afc919061344d565b610b0557600080fd5b736258d3497b01a273620ed138d4f214661a283eb473ffffffffffffffffffffffffffffffffffffffff166323b872dd3073c254ae8e61778c9d4f398984ca73b66cc6779ede600485610b589190614420565b6040518463ffffffff1660e01b8152600401610b7693929190613f7d565b602060405180830381600087803b158015610b9057600080fd5b505af1158015610ba4573d6000803e3d6000fd5b505050506040513d601f19601f82011682018060405250810190610bc8919061344d565b50736258d3497b01a273620ed138d4f214661a283eb473ffffffffffffffffffffffffffffffffffffffff166323b872dd3073967d2413a435fac414e20c2ca3719e97b43485bb600485610c1c9190614420565b6040518463ffffffff1660e01b8152600401610c3a93929190613f7d565b602060405180830381600087803b158015610c5457600080fd5b505af1158015610c68573d6000803e3d6000fd5b505050506040513d601f19601f82011682018060405250810190610c8c919061344d565b50600060124442600754604051602001610ca893929190613efc565b6040516020818303038152906040528051906020012060001c610ccb919061461a565b90506000610cd882611df5565b905060008160064442604051602001610cf2929190613ed0565b6040516020818303038152906040528051906020012060001c610d15919061461a565b610d1f9190614451565b82600a610d2c9190614451565b610d3691906143ca565b905060008260068542604051602001610d50929190613ed0565b6040516020818303038152906040528051906020012060001c610d73919061461a565b610d7d9190614451565b83600a610d8a9190614451565b610d9491906143ca565b905060008360064487604051602001610dae929190613ed0565b6040516020818303038152906040528051906020012060001c610dd1919061461a565b610ddb9190614451565b84600a610de89190614451565b610df291906143ca565b9050610e2485606485610e059190614420565b606485610e129190614420565b606485610e1f9190614420565b6110bc565b505050505050565b610e4783838360405180602001604052806000815250611769565b505050565b60606000610e5983611291565b90506000811415610edc57600067ffffffffffffffff811115610ea5577f4e487b7100000000000000000000000000000000000000000000000000000000600052604160045260246000fd5b604051908082528060200260200182016040528015610ed35781602001602082028036833780820191505090505b50915050611005565b60008167ffffffffffffffff811115610f1e577f4e487b7100000000000000000000000000000000000000000000000000000000600052604160045260246000fd5b604051908082528060200260200182016040528015610f4c5781602001602082028036833780820191505090505b5090506000805b600754811015610ffd578573ffffffffffffffffffffffffffffffffffffffff16610f7d8261100a565b73ffffffffffffffffffffffffffffffffffffffff161415610fec5780838380610fa6906145c7565b945081518110610fdf577f4e487b7100000000000000000000000000000000000000000000000000000000600052603260045260246000fd5b6020026020010181815250505b80610ff6906145c7565b9050610f53565b508193505050505b919050565b6000806002600084815260200190815260200160002060009054906101000a900473ffffffffffffffffffffffffffffffffffffffff169050600073ffffffffffffffffffffffffffffffffffffffff168173ffffffffffffffffffffffffffffffffffffffff1614156110b3576040517f08c379a00000000000000000000000000000000000000000000000000000000081526004016110aa9061419f565b60405180910390fd5b80915050919050565b6110c4611d34565b73ffffffffffffffffffffffffffffffffffffffff166110e2611486565b73ffffffffffffffffffffffffffffffffffffffff1614611138576040517f08c379a000000000000000000000000000000000000000000000000000000000815260040161112f906141ff565b60405180910390fd5b604051806101600160405280600a856111519190614451565b8152602001600a846111639190614451565b8152602001600a836111759190614451565b815260200184815260200183815260200182815260200160018152602001600081526020018581526020016111a986612279565b81526020016111b78661277f565b815250600860006007548152602001908152602001600020600082015181600001556020820151816001015560408201518160020155606082015181600301556080820151816004015560a0820151816005015560c0820151816006015560e0820151816007015561010082015181600801556101208201518160090190805190602001906112479291906130ae565b5061014082015181600a0190805190602001906112659291906130ae565b5090505061127533600754612a98565b600760008154611284906145c7565b9190508190555050505050565b60008073ffffffffffffffffffffffffffffffffffffffff168273ffffffffffffffffffffffffffffffffffffffff161415611302576040517f08c379a00000000000000000000000000000000000000000000000000000000081526004016112f99061417f565b60405180910390fd5b600360008373ffffffffffffffffffffffffffffffffffffffff1673ffffffffffffffffffffffffffffffffffffffff168152602001908152602001600020549050919050565b611351611d34565b73ffffffffffffffffffffffffffffffffffffffff1661136f611486565b73ffffffffffffffffffffffffffffffffffffffff16146113c5576040517f08c379a00000000000000000000000000000000000000000000000000000000081526004016113bc906141ff565b60405180910390fd5b600073ffffffffffffffffffffffffffffffffffffffff16600660009054906101000a900473ffffffffffffffffffffffffffffffffffffffff1673ffffffffffffffffffffffffffffffffffffffff167f8be0079c531659141344cd1fd0a4f28419497f9722a3daafe3b4186f6b6457e060405160405180910390a36000600660006101000a81548173ffffffffffffffffffffffffffffffffffffffff021916908373ffffffffffffffffffffffffffffffffffffffff160217905550565b6000600660009054906101000a900473ffffffffffffffffffffffffffffffffffffffff16905090565b6060600180546114bf90614595565b80601f01602080910402602001604051908101604052809291908181526020018280546114eb90614595565b80156115385780601f1061150d57610100808354040283529160200191611538565b820191906000526020600020905b81548152906001019060200180831161151b57829003601f168201915b5050505050905090565b61154a611d34565b73ffffffffffffffffffffffffffffffffffffffff168273ffffffffffffffffffffffffffffffffffffffff1614156115b8576040517f08c379a00000000000000000000000000000000000000000000000000000000081526004016115af9061411f565b60405180910390fd5b80600560006115c5611d34565b73ffffffffffffffffffffffffffffffffffffffff1673ffffffffffffffffffffffffffffffffffffffff16815260200190815260200160002060008473ffffffffffffffffffffffffffffffffffffffff1673ffffffffffffffffffffffffffffffffffffffff16815260200190815260200160002060006101000a81548160ff0219169083151502179055508173ffffffffffffffffffffffffffffffffffffffff16611672611d34565b73ffffffffffffffffffffffffffffffffffffffff167f17307eab39ab6107e8899845ad3d59bd9653f200f220920489ca2b5937696c31836040516116b79190614022565b60405180910390a35050565b6000736258d3497b01a273620ed138d4f214661a283eb473ffffffffffffffffffffffffffffffffffffffff166370a08231836040518263ffffffff1660e01b81526004016117129190613f39565b60206040518083038186803b15801561172a57600080fd5b505afa15801561173e573d6000803e3d6000fd5b505050506040513d601f19601f8201168201806040525081019061176291906134f1565b9050919050565b61177a611774611d34565b83611f3f565b6117b9576040517f08c379a00000000000000000000000000000000000000000000000000000000081526004016117b09061427f565b60405180910390fd5b6117c584848484612ab6565b50505050565b6117d3613134565b600860008381526020019081526020016000206040518061016001604052908160008201548152602001600182015481526020016002820154815260200160038201548152602001600482015481526020016005820154815260200160068201548152602001600782015481526020016008820154815260200160098201805461185c90614595565b80601f016020809104026020016040519081016040528092919081815260200182805461188890614595565b80156118d55780601f106118aa576101008083540402835291602001916118d5565b820191906000526020600020905b8154815290600101906020018083116118b857829003601f168201915b50505050508152602001600a820180546118ee90614595565b80601f016020809104026020016040519081016040528092919081815260200182805461191a90614595565b80156119675780601f1061193c57610100808354040283529160200191611967565b820191906000526020600020905b81548152906001019060200180831161194a57829003601f168201915b5050505050815250509050919050565b606061198282611cc8565b6119c1576040517f08c379a00000000000000000000000000000000000000000000000000000000081526004016119b89061423f565b60405180910390fd5b60006119cb612b12565b905060008151116119eb5760405180602001604052806000815250611a16565b806119f584612b29565b604051602001611a06929190613eac565b6040516020818303038152906040525b915050919050565b6000600560008473ffffffffffffffffffffffffffffffffffffffff1673ffffffffffffffffffffffffffffffffffffffff16815260200190815260200160002060008373ffffffffffffffffffffffffffffffffffffffff1673ffffffffffffffffffffffffffffffffffffffff16815260200190815260200160002060009054906101000a900460ff16905092915050565b611aba611d34565b73ffffffffffffffffffffffffffffffffffffffff16611ad8611486565b73ffffffffffffffffffffffffffffffffffffffff1614611b2e576040517f08c379a0000000000000000000000000000000000000000000000000000000008152600401611b25906141ff565b60405180910390fd5b600073ffffffffffffffffffffffffffffffffffffffff168173ffffffffffffffffffffffffffffffffffffffff161415611b9e576040517f08c379a0000000000000000000000000000000000000000000000000000000008152600401611b959061409f565b60405180910390fd5b8073ffffffffffffffffffffffffffffffffffffffff16600660009054906101000a900473ffffffffffffffffffffffffffffffffffffffff1673ffffffffffffffffffffffffffffffffffffffff167f8be0079c531659141344cd1fd0a4f28419497f9722a3daafe3b4186f6b6457e060405160405180910390a380600660006101000a81548173ffffffffffffffffffffffffffffffffffffffff021916908373ffffffffffffffffffffffffffffffffffffffff16021790555050565b60007f01ffc9a7000000000000000000000000000000000000000000000000000000007bffffffffffffffffffffffffffffffffffffffffffffffffffffffff1916827bffffffffffffffffffffffffffffffffffffffffffffffffffffffff1916149050919050565b60008073ffffffffffffffffffffffffffffffffffffffff166002600084815260200190815260200160002060009054906101000a900473ffffffffffffffffffffffffffffffffffffffff1673ffffffffffffffffffffffffffffffffffffffff1614159050919050565b600033905090565b816004600083815260200190815260200160002060006101000a81548173ffffffffffffffffffffffffffffffffffffffff021916908373ffffffffffffffffffffffffffffffffffffffff160217905550808273ffffffffffffffffffffffffffffffffffffffff16611daf8361100a565b73ffffffffffffffffffffffffffffffffffffffff167f8c5be1e5ebec7d5bd14f71427d1e84f3dd0314c0f7b2291e5b200ac8c7c3b92560405160405180910390a45050565b600080821480611e055750600182145b15611e14576103e89050611f3a565b6002821415611e27576101909050611f3a565b6003821415611e395760e19050611f3a565b6004821415611e4b5760c89050611f3a565b6005821415611e5d5760af9050611f3a565b6006821415611e6f5760969050611f3a565b6007821415611e815760c89050611f3a565b6008821415611e935760b49050611f3a565b6009821415611ea55760a09050611f3a565b600a821415611eb757608c9050611f3a565b600b821415611ec95760789050611f3a565b600c821415611edb5760649050611f3a565b600d821415611eed5760009050611f3a565b600e821415611eff5760fa9050611f3a565b600f821415611f115760e19050611f3a565b6010821415611f235760c89050611f3a565b6011821415611f355760009050611f3a565b600090505b919050565b6000611f4a82611cc8565b611f89576040517f08c379a0000000000000000000000000000000000000000000000000000000008152600401611f809061413f565b60405180910390fd5b6000611f948361100a565b90508073ffffffffffffffffffffffffffffffffffffffff168473ffffffffffffffffffffffffffffffffffffffff16148061200357508373ffffffffffffffffffffffffffffffffffffffff16611feb846105f4565b73ffffffffffffffffffffffffffffffffffffffff16145b8061201457506120138185611a1e565b5b91505092915050565b8273ffffffffffffffffffffffffffffffffffffffff1661203d8261100a565b73ffffffffffffffffffffffffffffffffffffffff1614612093576040517f08c379a000000000000000000000000000000000000000000000000000000000815260040161208a9061421f565b60405180910390fd5b600073ffffffffffffffffffffffffffffffffffffffff168273ffffffffffffffffffffffffffffffffffffffff161415612103576040517f08c379a00000000000000000000000000000000000000000000000000000000081526004016120fa906140ff565b60405180910390fd5b61210e838383612cd6565b612119600082611d3c565b6001600360008573ffffffffffffffffffffffffffffffffffffffff1673ffffffffffffffffffffffffffffffffffffffff168152602001908152602001600020600082825461216991906144ab565b925050819055506001600360008473ffffffffffffffffffffffffffffffffffffffff1673ffffffffffffffffffffffffffffffffffffffff16815260200190815260200160002060008282546121c091906143ca565b92505081905550816002600083815260200190815260200160002060006101000a81548173ffffffffffffffffffffffffffffffffffffffff021916908373ffffffffffffffffffffffffffffffffffffffff160217905550808273ffffffffffffffffffffffffffffffffffffffff168473ffffffffffffffffffffffffffffffffffffffff167fddf252ad1be2c89b69c2b068fc378daa952ba7f163c4a11628f55a4df523b3ef60405160405180910390a4505050565b606060008214156122c1576040518060400160405280600e81526020017f426f6a6172206461204b696c6c61000000000000000000000000000000000000815250905061277a565b6001821415612307576040518060400160405280601481526020017f4b6179612074686520576f6c66204d6f74686572000000000000000000000000815250905061277a565b600282141561234d576040518060400160405280600b81526020017f576f6f664d656973746572000000000000000000000000000000000000000000815250905061277a565b6003821415612393576040518060400160405280600b81526020017f5368696261205768616c65000000000000000000000000000000000000000000815250905061277a565b60048214156123d9576040518060400160405280600881526020017f4f47205368696261000000000000000000000000000000000000000000000000815250905061277a565b600582141561241f576040518060400160405280600d81526020017f5368696261205761726c6f726400000000000000000000000000000000000000815250905061277a565b6006821415612465576040518060400160405280600d81526020017f53686962612047656e6572616c00000000000000000000000000000000000000815250905061277a565b60078214156124ab576040518060400160405280600881526020017f5761746368646f67000000000000000000000000000000000000000000000000815250905061277a565b60088214156124f1576040518060400160405280600b81526020017f446f6765204b696c6c6572000000000000000000000000000000000000000000815250905061277a565b6009821415612537576040518060400160405280600981526020017f536869626120496e750000000000000000000000000000000000000000000000815250905061277a565b600a82141561257d576040518060400160405280600981526020017f416b69746120496e750000000000000000000000000000000000000000000000815250905061277a565b600b8214156125c3576040518060400160405280600a81526020017f53616e73687520496e7500000000000000000000000000000000000000000000815250905061277a565b600c821415612609576040518060400160405280600981526020017f5368696261205075700000000000000000000000000000000000000000000000815250905061277a565b600d82141561264f576040518060400160405280601681526020017f4c75636b7920446f6765205061636b2047656e20233100000000000000000000815250905061277a565b600e821415612695576040518060400160405280600b81526020017f446f676520466174686572000000000000000000000000000000000000000000815250905061277a565b600f8214156126db576040518060400160405280600b81526020017f476f6c64656e20446f6765000000000000000000000000000000000000000000815250905061277a565b6010821415612721576040518060400160405280600681526020017f52796f7368690000000000000000000000000000000000000000000000000000815250905061277a565b6011821415612767576040518060400160405280600b81526020017f506f776572205472656174000000000000000000000000000000000000000000815250905061277a565b6040518060200160405280600081525090505b919050565b606060008214156127aa57604051806080016040528060448152602001614910604491399050612a93565b60018214156127d357604051806060016040528060398152602001614a09603991399050612a93565b60028214156127fc576040518060800160405280604e8152602001614801604e91399050612a93565b600382141561282557604051806060016040528060218152602001614a42602191399050612a93565b600482141561284e57604051806060016040528060388152602001614ae8603891399050612a93565b60058214156128775760405180608001604052806046815260200161484f604691399050612a93565b60068214156128a0576040518060600160405280602581526020016147a3602591399050612a93565b60078214156128c9576040518060800160405280604f8152602001614a63604f91399050612a93565b60088214156128f2576040518060a0016040528060638152602001614b20606391399050612a93565b600982141561291b57604051806060016040528060368152602001614ab2603691399050612a93565b600a8214156129445760405180606001604052806034815260200161497d603491399050612a93565b600b82141561296d576040518060600160405280603981526020016147c8603991399050612a93565b600c8214156129b3576040518060400160405280601381526020017f41575757575757575757575757575757575757000000000000000000000000008152509050612a93565b600d8214156129dc576040518060800160405280604e81526020016148c2604e91399050612a93565b600e821415612a05576040518060800160405280605881526020016149b1605891399050612a93565b600f821415612a2e57604051806060016040528060298152602001614954602991399050612a93565b6010821415612a57576040518060600160405280602e8152602001614775602e91399050612a93565b6011821415612a80576040518060600160405280602d8152602001614895602d91399050612a93565b6040518060200160405280600081525090505b919050565b612ab2828260405180602001604052806000815250612cdb565b5050565b612ac184848461201d565b612acd84848484612d36565b612b0c576040517f08c379a0000000000000000000000000000000000000000000000000000000008152600401612b039061407f565b60405180910390fd5b50505050565b606060405180602001604052806000815250905090565b60606000821415612b71576040518060400160405280600181526020017f30000000000000000000000000000000000000000000000000000000000000008152509050612cd1565b600082905060005b60008214612ba3578080612b8c906145c7565b915050600a82612b9c9190614420565b9150612b79565b60008167ffffffffffffffff811115612be5577f4e487b7100000000000000000000000000000000000000000000000000000000600052604160045260246000fd5b6040519080825280601f01601f191660200182016040528015612c175781602001600182028036833780820191505090505b5090505b60008514612cca57600182612c3091906144ab565b9150600a85612c3f919061461a565b6030612c4b91906143ca565b60f81b818381518110612c87577f4e487b7100000000000000000000000000000000000000000000000000000000600052603260045260246000fd5b60200101907effffffffffffffffffffffffffffffffffffffffffffffffffffffffffffff1916908160001a905350600a85612cc39190614420565b9450612c1b565b8093505050505b919050565b505050565b612ce58383612ecd565b612cf26000848484612d36565b612d31576040517f08c379a0000000000000000000000000000000000000000000000000000000008152600401612d289061407f565b60405180910390fd5b505050565b6000612d578473ffffffffffffffffffffffffffffffffffffffff1661309b565b15612ec0578373ffffffffffffffffffffffffffffffffffffffff1663150b7a02612d80611d34565b8786866040518563ffffffff1660e01b8152600401612da29493929190613fb4565b602060405180830381600087803b158015612dbc57600080fd5b505af1925050508015612ded57506040513d601f19601f82011682018060405250810190612dea919061349f565b60015b612e70573d8060008114612e1d576040519150601f19603f3d011682016040523d82523d6000602084013e612e22565b606091505b50600081511415612e68576040517f08c379a0000000000000000000000000000000000000000000000000000000008152600401612e5f9061407f565b60405180910390fd5b805181602001fd5b63150b7a0260e01b7bffffffffffffffffffffffffffffffffffffffffffffffffffffffff1916817bffffffffffffffffffffffffffffffffffffffffffffffffffffffff191614915050612ec5565b600190505b949350505050565b600073ffffffffffffffffffffffffffffffffffffffff168273ffffffffffffffffffffffffffffffffffffffff161415612f3d576040517f08c379a0000000000000000000000000000000000000000000000000000000008152600401612f34906141bf565b60405180910390fd5b612f4681611cc8565b15612f86576040517f08c379a0000000000000000000000000000000000000000000000000000000008152600401612f7d906140bf565b60405180910390fd5b612f9260008383612cd6565b6001600360008473ffffffffffffffffffffffffffffffffffffffff1673ffffffffffffffffffffffffffffffffffffffff1681526020019081526020016000206000828254612fe291906143ca565b92505081905550816002600083815260200190815260200160002060006101000a81548173ffffffffffffffffffffffffffffffffffffffff021916908373ffffffffffffffffffffffffffffffffffffffff160217905550808273ffffffffffffffffffffffffffffffffffffffff16600073ffffffffffffffffffffffffffffffffffffffff167fddf252ad1be2c89b69c2b068fc378daa952ba7f163c4a11628f55a4df523b3ef60405160405180910390a45050565b600080823b905060008111915050919050565b8280546130ba90614595565b90600052602060002090601f0160209004810192826130dc5760008555613123565b82601f106130f557805160ff1916838001178555613123565b82800160010185558215613123579182015b82811115613122578251825591602001919060010190613107565b5b509050613130919061318e565b5090565b60405180610160016040528060008152602001600081526020016000815260200160008152602001600081526020016000815260200160008152602001600081526020016000815260200160608152602001606081525090565b5b808211156131a757600081600090555060010161318f565b5090565b60006131be6131b98461430d565b6142dc565b9050828152602081018484840111156131d657600080fd5b6131e1848285614553565b509392505050565b6000813590506131f881614718565b92915050565b60008135905061320d8161472f565b92915050565b6000815190506132228161472f565b92915050565b60008135905061323781614746565b92915050565b60008151905061324c81614746565b92915050565b600082601f83011261326357600080fd5b81356132738482602086016131ab565b91505092915050565b60008135905061328b8161475d565b92915050565b6000815190506132a08161475d565b92915050565b6000602082840312156132b857600080fd5b60006132c6848285016131e9565b91505092915050565b600080604083850312156132e257600080fd5b60006132f0858286016131e9565b9250506020613301858286016131e9565b9150509250929050565b60008060006060848603121561332057600080fd5b600061332e868287016131e9565b935050602061333f868287016131e9565b92505060406133508682870161327c565b9150509250925092565b6000806000806080858703121561337057600080fd5b600061337e878288016131e9565b945050602061338f878288016131e9565b93505060406133a08782880161327c565b925050606085013567ffffffffffffffff8111156133bd57600080fd5b6133c987828801613252565b91505092959194509250565b600080604083850312156133e857600080fd5b60006133f6858286016131e9565b9250506020613407858286016131fe565b9150509250929050565b6000806040838503121561342457600080fd5b6000613432858286016131e9565b92505060206134438582860161327c565b9150509250929050565b60006020828403121561345f57600080fd5b600061346d84828501613213565b91505092915050565b60006020828403121561348857600080fd5b600061349684828501613228565b91505092915050565b6000602082840312156134b157600080fd5b60006134bf8482850161323d565b91505092915050565b6000602082840312156134da57600080fd5b60006134e88482850161327c565b91505092915050565b60006020828403121561350357600080fd5b600061351184828501613291565b91505092915050565b6000806000806080858703121561353057600080fd5b600061353e8782880161327c565b945050602061354f8782880161327c565b93505060406135608782880161327c565b92505060606135718782880161327c565b91505092959194509250565b60006135898383613e77565b60208301905092915050565b61359e816144df565b82525050565b60006135af8261434d565b6135b9818561437b565b93506135c48361433d565b8060005b838110156135f55781516135dc888261357d565b97506135e78361436e565b9250506001810190506135c8565b5085935050505092915050565b61360b816144f1565b82525050565b600061361c82614358565b613626818561438c565b9350613636818560208601614562565b61363f81614707565b840191505092915050565b600061365582614363565b61365f818561439d565b935061366f818560208601614562565b61367881614707565b840191505092915050565b600061368e82614363565b61369881856143ae565b93506136a8818560208601614562565b6136b181614707565b840191505092915050565b60006136c782614363565b6136d181856143bf565b93506136e1818560208601614562565b80840191505092915050565b60006136fa6027836143ae565b91507f536869626120576172733a20414c4c4f5720555320544f205350454e4420594f60008301527f55522053484942000000000000000000000000000000000000000000000000006020830152604082019050919050565b60006137606032836143ae565b91507f4552433732313a207472616e7366657220746f206e6f6e20455243373231526560008301527f63656976657220696d706c656d656e74657200000000000000000000000000006020830152604082019050919050565b60006137c66026836143ae565b91507f4f776e61626c653a206e6577206f776e657220697320746865207a65726f206160008301527f64647265737300000000000000000000000000000000000000000000000000006020830152604082019050919050565b600061382c601c836143ae565b91507f4552433732313a20746f6b656e20616c7265616479206d696e746564000000006000830152602082019050919050565b600061386c6025836143ae565b91507f536869626120576172733a20494e53554646494349454e54205348494220424160008301527f4c414e43450000000000000000000000000000000000000000000000000000006020830152604082019050919050565b60006138d26024836143ae565b91507f4552433732313a207472616e7366657220746f20746865207a65726f2061646460008301527f72657373000000000000000000000000000000000000000000000000000000006020830152604082019050919050565b60006139386019836143ae565b91507f4552433732313a20617070726f766520746f2063616c6c6572000000000000006000830152602082019050919050565b6000613978602c836143ae565b91507f4552433732313a206f70657261746f7220717565727920666f72206e6f6e657860008301527f697374656e7420746f6b656e00000000000000000000000000000000000000006020830152604082019050919050565b60006139de6038836143ae565b91507f4552433732313a20617070726f76652063616c6c6572206973206e6f74206f7760008301527f6e6572206e6f7220617070726f76656420666f7220616c6c00000000000000006020830152604082019050919050565b6000613a44602a836143ae565b91507f4552433732313a2062616c616e636520717565727920666f7220746865207a6560008301527f726f2061646472657373000000000000000000000000000000000000000000006020830152604082019050919050565b6000613aaa6029836143ae565b91507f4552433732313a206f776e657220717565727920666f72206e6f6e657869737460008301527f656e7420746f6b656e00000000000000000000000000000000000000000000006020830152604082019050919050565b6000613b106020836143ae565b91507f4552433732313a206d696e7420746f20746865207a65726f20616464726573736000830152602082019050919050565b6000613b50602c836143ae565b91507f4552433732313a20617070726f76656420717565727920666f72206e6f6e657860008301527f697374656e7420746f6b656e00000000000000000000000000000000000000006020830152604082019050919050565b6000613bb66020836143ae565b91507f4f776e61626c653a2063616c6c6572206973206e6f7420746865206f776e65726000830152602082019050919050565b6000613bf66029836143ae565b91507f4552433732313a207472616e73666572206f6620746f6b656e2074686174206960008301527f73206e6f74206f776e00000000000000000000000000000000000000000000006020830152604082019050919050565b6000613c5c602f836143ae565b91507f4552433732314d657461646174613a2055524920717565727920666f72206e6f60008301527f6e6578697374656e7420746f6b656e00000000000000000000000000000000006020830152604082019050919050565b6000613cc26021836143ae565b91507f4552433732313a20617070726f76616c20746f2063757272656e74206f776e6560008301527f72000000000000000000000000000000000000000000000000000000000000006020830152604082019050919050565b6000613d286031836143ae565b91507f4552433732313a207472616e736665722063616c6c6572206973206e6f74206f60008301527f776e6572206e6f7220617070726f7665640000000000000000000000000000006020830152604082019050919050565b600061016083016000830151613d9a6000860182613e77565b506020830151613dad6020860182613e77565b506040830151613dc06040860182613e77565b506060830151613dd36060860182613e77565b506080830151613de66080860182613e77565b5060a0830151613df960a0860182613e77565b5060c0830151613e0c60c0860182613e77565b5060e0830151613e1f60e0860182613e77565b50610100830151613e34610100860182613e77565b50610120830151848203610120860152613e4e828261364a565b915050610140830151848203610140860152613e6a828261364a565b9150508091505092915050565b613e8081614549565b82525050565b613e8f81614549565b82525050565b613ea6613ea182614549565b614610565b82525050565b6000613eb882856136bc565b9150613ec482846136bc565b91508190509392505050565b6000613edc8285613e95565b602082019150613eec8284613e95565b6020820191508190509392505050565b6000613f088286613e95565b602082019150613f188285613e95565b602082019150613f288284613e95565b602082019150819050949350505050565b6000602082019050613f4e6000830184613595565b92915050565b6000604082019050613f696000830185613595565b613f766020830184613595565b9392505050565b6000606082019050613f926000830186613595565b613f9f6020830185613595565b613fac6040830184613e86565b949350505050565b6000608082019050613fc96000830187613595565b613fd66020830186613595565b613fe36040830185613e86565b8181036060830152613ff58184613611565b905095945050505050565b6000602082019050818103600083015261401a81846135a4565b905092915050565b60006020820190506140376000830184613602565b92915050565b600060208201905081810360008301526140578184613683565b905092915050565b60006020820190508181036000830152614078816136ed565b9050919050565b6000602082019050818103600083015261409881613753565b9050919050565b600060208201905081810360008301526140b8816137b9565b9050919050565b600060208201905081810360008301526140d88161381f565b9050919050565b600060208201905081810360008301526140f88161385f565b9050919050565b60006020820190508181036000830152614118816138c5565b9050919050565b600060208201905081810360008301526141388161392b565b9050919050565b600060208201905081810360008301526141588161396b565b9050919050565b60006020820190508181036000830152614178816139d1565b9050919050565b6000602082019050818103600083015261419881613a37565b9050919050565b600060208201905081810360008301526141b881613a9d565b9050919050565b600060208201905081810360008301526141d881613b03565b9050919050565b600060208201905081810360008301526141f881613b43565b9050919050565b6000602082019050818103600083015261421881613ba9565b9050919050565b6000602082019050818103600083015261423881613be9565b9050919050565b6000602082019050818103600083015261425881613c4f565b9050919050565b6000602082019050818103600083015261427881613cb5565b9050919050565b6000602082019050818103600083015261429881613d1b565b9050919050565b600060208201905081810360008301526142b98184613d81565b905092915050565b60006020820190506142d66000830184613e86565b92915050565b6000604051905081810181811067ffffffffffffffff82111715614303576143026146d8565b5b8060405250919050565b600067ffffffffffffffff821115614328576143276146d8565b5b601f19601f8301169050602081019050919050565b6000819050602082019050919050565b600081519050919050565b600081519050919050565b600081519050919050565b6000602082019050919050565b600082825260208201905092915050565b600082825260208201905092915050565b600082825260208201905092915050565b600082825260208201905092915050565b600081905092915050565b60006143d582614549565b91506143e083614549565b9250827fffffffffffffffffffffffffffffffffffffffffffffffffffffffffffffffff038211156144155761441461464b565b5b828201905092915050565b600061442b82614549565b915061443683614549565b9250826144465761444561467a565b5b828204905092915050565b600061445c82614549565b915061446783614549565b9250817fffffffffffffffffffffffffffffffffffffffffffffffffffffffffffffffff04831182151516156144a05761449f61464b565b5b828202905092915050565b60006144b682614549565b91506144c183614549565b9250828210156144d4576144d361464b565b5b828203905092915050565b60006144ea82614529565b9050919050565b60008115159050919050565b60007fffffffff0000000000000000000000000000000000000000000000000000000082169050919050565b600073ffffffffffffffffffffffffffffffffffffffff82169050919050565b6000819050919050565b82818337600083830152505050565b60005b83811015614580578082015181840152602081019050614565565b8381111561458f576000848401525b50505050565b600060028204905060018216806145ad57607f821691505b602082108114156145c1576145c06146a9565b5b50919050565b60006145d282614549565b91507fffffffffffffffffffffffffffffffffffffffffffffffffffffffffffffffff8214156146055761460461464b565b5b600182019050919050565b6000819050919050565b600061462582614549565b915061463083614549565b9250826146405761463f61467a565b5b828206905092915050565b7f4e487b7100000000000000000000000000000000000000000000000000000000600052601160045260246000fd5b7f4e487b7100000000000000000000000000000000000000000000000000000000600052601260045260246000fd5b7f4e487b7100000000000000000000000000000000000000000000000000000000600052602260045260246000fd5b7f4e487b7100000000000000000000000000000000000000000000000000000000600052604160045260246000fd5b6000601f19601f8301169050919050565b614721816144df565b811461472c57600080fd5b50565b614738816144f1565b811461474357600080fd5b50565b61474f816144fd565b811461475a57600080fd5b50565b61476681614549565b811461477157600080fd5b5056fe546865206f6e652077686f20746f6f6b20757320756e6465722074686569722077696e67732e2052796f7368692e4f6e65206261726b2c20616e6420746865792061726520696e2074686520626174746c652e446f20796f75206576656e206b6e6f772074686973206f6e653f20496620796f7520646f6e27742c206a757374206c6f6f6b20617420697421546865206f6e652077686f2068617320706f776572206f76657220616c6c2074686520646f67732e205765206c6f6f6b20757020746f20796f7520616e642062656c6965766520696e20796f752e416c746f7567682074686579206d6179206e6f74206265207265636f676e697a65642c207468657920646f206c65616420746865205368696241726d7920666f72776172642e46656564207468697320746f20796f757220646f676520746f20696e63726561736520697473206c6576656c2e4f70656e20666f722061206368616e636520746f2067657420612076657279207261726520446f67652c20696e636c7564696e672074686520576f6f664d656973746572207468656d73656c662e416c746f7567682068652773206e6f7420612053686962612c20646f206e6f74206d65737320776974682068696d2e205468652077617264656e206f66206f726465722e576520616c6c2061726520696e2069742e20414e442054484953204f4e4520495320474f4c44454e214120636f7079206361743f204e4f21204a75737420616e6f74686572206375746520496e752066616d696c79206d656d626572214120667269656e642073686f756c6420616c7761797320756e646572657374696d61746520796f7572207669727475657320616e6420616e20656e656d79206f766572657374696d61746520796f7572206661756c74732e536865206d617920626520637574652c20627574207368652077696c6c2067657420796f752e204265776172652c207368652062697465732e546865207472756520686f6c64657273206f6620746865205368696241726d792e54686973206973206e6f7420612073686962612e20427574206120736d616c6c206375746520646f6765206e65656473206120626967207374726f6e6720444f4720746f20646566656e642069742e4a757374206c6f6f6b2061742069742120486f772063616e20796f75206e6f742077616e7420746f206f776e207468656d20616c6c3f54686579207765726520686572652073696e63652074686520626567696e6e696e672e205468652074727565206c6f79616c206f6e65732e5075742074686520646f6765206f6e20746865206c656173682e204576656e2074686f7567682074686520646f67657320686f6c6420746f6765746865722c20446f6765204b696c6c6572206973207472756520746f206974732062656c696566732ea26469706673582212207421129cdbbfe7c8152a0136f7ca49e1388bf1959d712a925cffb5b65eaabdc664736f6c63430008000033",
  "immutableReferences": {},
  "source": "pragma solidity ^0.8.0;\r\n\r\nimport \"../node_modules/@openzeppelin/contracts/token/ERC721/ERC721.sol\";\r\nimport \"../node_modules/@openzeppelin/contracts/access/Ownable.sol\";\r\nimport \"../node_modules/@openzeppelin/contracts/token/ERC20/IERC20.sol\";\r\n\r\ncontract Token is ERC721, Ownable {\r\n\r\n    struct Shiba {\r\n        uint strength;      // HP, armor\r\n        uint agility;       // evasion, crit chance\r\n        uint dexterity;     // aim, crit chance decrease\r\n\r\n        uint strengthGain;  // strength gain per level\r\n        uint agilityGain;   // agility gain per level\r\n        uint dexterityGain; // dexterity gain per level\r\n\r\n        uint level;         // level\r\n        uint arenaScore;    // score in arena\r\n\r\n        uint tokenId;       // id of token           \r\n        string name;        // name\r\n        string description; // description\r\n    }\r\n\r\n    uint256 nextId = 0;\r\n    address constant devAddress = 0x967D2413A435faC414e20C2cA3719e97B43485bB;   // 25%\r\n    address constant shibAddress = 0x6258D3497B01A273620Ed138d4F214661a283Eb4;\r\n    address constant burnAddress = 0xc254aE8E61778C9D4F398984cA73B66cC6779eDE;  // 25%\r\n\r\n    IERC20 constant shibERC20 = IERC20(shibAddress);\r\n\r\n    mapping(uint256 => Shiba) private _tokenDetails;\r\n\r\n    constructor(string memory name, string memory symbol) ERC721(name, symbol) {\r\n    }\r\n\r\n    function mint(uint tokenId, uint strength, uint agility, uint dexterity) public onlyOwner {\r\n        _tokenDetails[nextId] = Shiba(strength * 10, agility * 10, dexterity * 10, strength, agility, dexterity, 1, 0, tokenId, getName(tokenId), getDescription(tokenId));\r\n        /**\r\n        token id: \r\n        0: Bojar da Killa\r\n        1: Kaya the Wolfmother\r\n        2: Woofmeister\r\n        3: Shiba Whale\r\n        4: OG Shiba\r\n        5: Shiba Warlord\r\n        6: Shiba General\r\n        7: Watchdog\r\n        8: Doge Killer\r\n        9: Shiba Inu\r\n        10: Akita Inu\r\n        11: Sanshu Inu\r\n        12: Shiba Pup\r\n        13: Lucky Doge Pack Gen#1\r\n        14: Doge Father\r\n        15: Golden Doge\r\n        16: Ryoshi\r\n        17: Power Treat\r\n         */  \r\n        _safeMint(msg.sender, nextId);\r\n        ++nextId;\r\n    }\r\n\r\n    function canFight(uint tokenId) public view returns (bool) {\r\n        uint id =  _tokenDetails[tokenId].tokenId;\r\n        return id > 1 && getStatsMultiplier(id) != 0;\r\n    }\r\n\r\n    function getName(uint tokenId) private pure returns (string memory)  {\r\n        if (tokenId == 0){\r\n            return \"Bojar da Killa\";\r\n        } else if (tokenId == 1) {\r\n            return \"Kaya the Wolf Mother\";\r\n        } else if (tokenId == 2) {\r\n            return \"WoofMeister\";\r\n        } else if (tokenId == 3) {\r\n            return \"Shiba Whale\";\r\n        } else if (tokenId == 4) {\r\n            return \"OG Shiba\";\r\n        } else if (tokenId == 5) {\r\n            return \"Shiba Warlord\";\r\n        } else if (tokenId == 6) {\r\n            return \"Shiba General\";\r\n        } else if (tokenId == 7) {\r\n            return \"Watchdog\";\r\n        } else if (tokenId == 8) {\r\n            return \"Doge Killer\";\r\n        } else if (tokenId == 9) {\r\n            return \"Shiba Inu\";\r\n        } else if (tokenId == 10) {\r\n            return \"Akita Inu\";\r\n        } else if (tokenId == 11) {\r\n            return \"Sanshu Inu\";\r\n        } else if (tokenId == 12) {\r\n            return \"Shiba Pup\";\r\n        } else if (tokenId == 13) {\r\n            return \"Lucky Doge Pack Gen #1\";\r\n        } else if (tokenId == 14) {\r\n            return \"Doge Father\";\r\n        } else if (tokenId == 15) {\r\n            return \"Golden Doge\";\r\n        } else if (tokenId == 16) {\r\n            return \"Ryoshi\";\r\n        } else if (tokenId == 17) {\r\n            return \"Power Treat\";\r\n        }\r\n        return \"\";\r\n    }\r\n\r\n\r\n    function getDescription(uint tokenId) private pure returns (string memory) {\r\n        if (tokenId == 0) {\r\n            return \"Altough he's not a Shiba, do not mess with him. The warden of order.\";\r\n        } else if (tokenId == 1) {\r\n            return \"She may be cute, but she will get you. Beware, she bites.\";\r\n        } else if (tokenId == 2) {\r\n            return \"The one who has power over all the dogs. We look up to you and believe in you.\";\r\n        } else if (tokenId == 3) {\r\n            return \"The true holders of the ShibArmy.\";\r\n        } else if (tokenId == 4) {\r\n            return \"They were here since the beginning. The true loyal ones.\";\r\n        } else if (tokenId == 5) {\r\n            return \"Altough they may not be recognized, they do lead the ShibArmy forward.\";\r\n        } else if (tokenId == 6) {\r\n            return \"One bark, and they are in the battle.\";\r\n        } else if (tokenId == 7) {\r\n            return \"This is not a shiba. But a small cute doge needs a big strong DOG to defend it.\";\r\n        } else if (tokenId == 8) {\r\n            return \"Put the doge on the leash. Even though the doges hold together, Doge Killer is true to its beliefs.\";\r\n        } else if (tokenId == 9) {\r\n            return \"Just look at it! How can you not want to own them all?\";\r\n        } else if (tokenId == 10) {\r\n            return \"A copy cat? NO! Just another cute Inu family member!\";\r\n        } else if (tokenId == 11) {\r\n            return \"Do you even know this one? If you don't, just look at it!\";\r\n        } else if (tokenId == 12) {\r\n            return \"AWWWWWWWWWWWWWWWWWW\";\r\n        } else if (tokenId == 13) {\r\n            return \"Open for a chance to get a very rare Doge, including the WoofMeister themself.\";\r\n        } else if (tokenId == 14) {\r\n            return \"A friend should always underestimate your virtues and an enemy overestimate your faults.\";\r\n        } else if (tokenId == 15) {\r\n            return \"We all are in it. AND THIS ONE IS GOLDEN!\";\r\n        } else if (tokenId == 16) {\r\n            return \"The one who took us under their wings. Ryoshi.\";\r\n        } else if (tokenId == 17) {\r\n            return \"Feed this to your doge to increase its level.\";\r\n        }\r\n        return \"\";\r\n    }\r\n\r\n    function getStatsMultiplier(uint tokenId) private pure returns (uint) {\r\n        if (tokenId == 0 || tokenId == 1) {\r\n            return 1000;\r\n        } else if (tokenId == 2) {\r\n            return 400;\r\n        } else if (tokenId == 3) {\r\n            return 225;\r\n        } else if (tokenId == 4) {\r\n            return 200;\r\n        } else if (tokenId == 5) {\r\n            return 175;\r\n        } else if (tokenId == 6) {\r\n            return 150;\r\n        } else if (tokenId == 7) {\r\n            return 200;\r\n        } else if (tokenId == 8) {\r\n            return 180;\r\n        } else if (tokenId == 9) {\r\n            return 160;\r\n        } else if (tokenId == 10) {\r\n            return 140;\r\n        } else if (tokenId == 11) {\r\n            return 120;\r\n        } else if (tokenId == 12) {\r\n            return 100;\r\n        } else if (tokenId == 13) {\r\n            return 0;\r\n        } else if (tokenId == 14) {\r\n            return 250;\r\n        } else if (tokenId == 15) {\r\n            return 225;\r\n        } else if (tokenId == 16) {\r\n            return 200;\r\n        } else if (tokenId == 17) {\r\n            return 0;\r\n        }\r\n        return 0;\r\n    }\r\n\r\n    function getUserTokens(address user) public view returns (uint256[] memory) {\r\n        uint256 tokenCount = balanceOf(user);\r\n        if(tokenCount == 0) {\r\n            return new uint256[](0);\r\n        }\r\n        else {\r\n            uint256[] memory result = new uint256[](tokenCount);\r\n            uint256 index = 0;\r\n            for(uint256 i = 0; i < nextId; ++i) {\r\n                // if owner and not treat\r\n                if(ownerOf(i) == user) {\r\n                    result[index++] = i;\r\n                }\r\n            }\r\n            return result;\r\n        }\r\n    }\r\n\r\n    function userShibBalance(address user) public view returns (uint) {\r\n        return shibERC20.balanceOf(user);\r\n    }\r\n\r\n    function buyShiba() public {\r\n        uint256 cost = 100000000;\r\n        // does the buyer has enough shib?\r\n        require(userShibBalance(msg.sender) >= cost, \"Shiba Wars: INSUFFICIENT SHIB BALANCE\");\r\n        require(shibERC20.allowance(msg.sender, address(this)) >= cost, \"Shiba Wars: ALLOW US TO SPEND YOUR SHIB\");\r\n        // transfer shib from buyer to smart contract\r\n        require(shibERC20.transferFrom(msg.sender, address(this), cost));\r\n        // burn shib\r\n        shibERC20.transferFrom(address(this), burnAddress, cost / 4);\r\n        // send shib to deployer\r\n        shibERC20.transferFrom(address(this), devAddress, cost / 4);\r\n        // mint the NFT\r\n        uint id = uint(keccak256(abi.encodePacked(block.difficulty, block.timestamp, nextId))) % 18;\r\n        uint multiplier = getStatsMultiplier(id);\r\n\r\n        uint str = 10 * multiplier + (uint(keccak256(abi.encodePacked(block.difficulty, block.timestamp))) % 6) * multiplier;\r\n        uint agi = 10 * multiplier + (uint(keccak256(abi.encodePacked(id, block.timestamp))) % 6) * multiplier;\r\n        uint intl = 10 * multiplier + (uint(keccak256(abi.encodePacked(block.difficulty, id))) % 6) * multiplier;\r\n\r\n        mint(id, str / 100, agi / 100, intl / 100);\r\n    }\r\n\r\n    function levelUp(uint256 id) public {\r\n        // level up if power treat\r\n        ++_tokenDetails[id].level;\r\n        _tokenDetails[id].strength += _tokenDetails[id].strengthGain;\r\n        _tokenDetails[id].agility += _tokenDetails[id].agilityGain;\r\n        _tokenDetails[id].dexterity += _tokenDetails[id].dexterityGain;\r\n    }\r\n\r\n    function getTokenDetails(uint256 id) public view returns (Shiba memory){\r\n        return _tokenDetails[id];\r\n    }\r\n\r\n}\r\n",
  "sourcePath": "D:/GitHub/shibawars/contracts/Token.sol",
  "compiler": {
    "name": "solc",
    "version": "0.8.0+commit.c7dfd78e.Emscripten.clang"
  },
  "schemaVersion": "3.4.1",
  "updatedAt": "2021-05-15T10:22:42.460Z",
  "networkType": "ethereum",
  "devdoc": {
    "kind": "dev",
    "methods": {
      "approve(address,uint256)": {
        "details": "See {IERC721-approve}."
      },
      "balanceOf(address)": {
        "details": "See {IERC721-balanceOf}."
      },
      "getApproved(uint256)": {
        "details": "See {IERC721-getApproved}."
      },
      "isApprovedForAll(address,address)": {
        "details": "See {IERC721-isApprovedForAll}."
      },
      "name()": {
        "details": "See {IERC721Metadata-name}."
      },
      "owner()": {
        "details": "Returns the address of the current owner."
      },
      "ownerOf(uint256)": {
        "details": "See {IERC721-ownerOf}."
      },
      "renounceOwnership()": {
        "details": "Leaves the contract without owner. It will not be possible to call `onlyOwner` functions anymore. Can only be called by the current owner. NOTE: Renouncing ownership will leave the contract without an owner, thereby removing any functionality that is only available to the owner."
      },
      "safeTransferFrom(address,address,uint256)": {
        "details": "See {IERC721-safeTransferFrom}."
      },
      "safeTransferFrom(address,address,uint256,bytes)": {
        "details": "See {IERC721-safeTransferFrom}."
      },
      "setApprovalForAll(address,bool)": {
        "details": "See {IERC721-setApprovalForAll}."
      },
      "supportsInterface(bytes4)": {
        "details": "See {IERC165-supportsInterface}."
      },
      "symbol()": {
        "details": "See {IERC721Metadata-symbol}."
      },
      "tokenURI(uint256)": {
        "details": "See {IERC721Metadata-tokenURI}."
      },
      "transferFrom(address,address,uint256)": {
        "details": "See {IERC721-transferFrom}."
      },
      "transferOwnership(address)": {
        "details": "Transfers ownership of the contract to a new account (`newOwner`). Can only be called by the current owner."
      }
    },
    "version": 1
  },
  "userdoc": {
    "kind": "user",
    "methods": {},
    "version": 1
  }
}